{
  "contractName": "BNS",
  "abi": [
    {
      "inputs": [
        {
          "internalType": "string",
          "name": "_username",
          "type": "string"
        }
      ],
      "name": "register",
      "outputs": [],
      "stateMutability": "nonpayable",
      "type": "function"
    },
    {
      "inputs": [
        {
          "internalType": "string",
          "name": "_username",
          "type": "string"
        }
      ],
      "name": "transferETH",
      "outputs": [],
      "stateMutability": "payable",
      "type": "function",
      "payable": true
    },
    {
      "inputs": [],
      "name": "isUserRegistered",
      "outputs": [
        {
          "internalType": "bool",
          "name": "",
          "type": "bool"
        }
      ],
      "stateMutability": "view",
      "type": "function",
      "constant": true
    },
    {
      "inputs": [],
      "name": "getUsername",
      "outputs": [
        {
          "internalType": "string",
          "name": "",
          "type": "string"
        }
      ],
      "stateMutability": "view",
      "type": "function",
      "constant": true
    }
  ],
  "bytecode": "0x608060405234801561001057600080fd5b50610c3c806100206000396000f3fe60806040526004361061003f5760003560e01c8063681f3e6d14610044578063873138f31461006f578063a539e0bc1461009a578063f2c298be146100b6575b600080fd5b34801561005057600080fd5b506100596100df565b6040516100669190610901565b60405180910390f35b34801561007b57600080fd5b506100846101b0565b60405161009191906108e6565b60405180910390f35b6100b460048036038101906100af9190610749565b610206565b005b3480156100c257600080fd5b506100dd60048036038101906100d89190610749565b610419565b005b60606000803373ffffffffffffffffffffffffffffffffffffffff1673ffffffffffffffffffffffffffffffffffffffff168152602001908152602001600020600101805461012d90610a79565b80601f016020809104026020016040519081016040528092919081815260200182805461015990610a79565b80156101a65780601f1061017b576101008083540402835291602001916101a6565b820191906000526020600020905b81548152906001019060200180831161018957829003601f168201915b5050505050905090565b60008060003373ffffffffffffffffffffffffffffffffffffffff1673ffffffffffffffffffffffffffffffffffffffff16815260200190815260200160002060000160009054906101000a900460ff16905090565b600073ffffffffffffffffffffffffffffffffffffffff1660018260405161022e91906108ba565b908152602001604051809103902060009054906101000a900473ffffffffffffffffffffffffffffffffffffffff1673ffffffffffffffffffffffffffffffffffffffff1614156102b4576040517f08c379a00000000000000000000000000000000000000000000000000000000081526004016102ab90610943565b60405180910390fd5b6001816040516102c491906108ba565b908152602001604051809103902060009054906101000a900473ffffffffffffffffffffffffffffffffffffffff1673ffffffffffffffffffffffffffffffffffffffff163373ffffffffffffffffffffffffffffffffffffffff161415610361576040517f08c379a000000000000000000000000000000000000000000000000000000000815260040161035890610983565b60405180910390fd5b600060018260405161037391906108ba565b908152602001604051809103902060009054906101000a900473ffffffffffffffffffffffffffffffffffffffff1673ffffffffffffffffffffffffffffffffffffffff16346040516103c5906108d1565b60006040518083038185875af1925050503d8060008114610402576040519150601f19603f3d011682016040523d82523d6000602084013e610407565b606091505b505090508061041557600080fd5b5050565b600073ffffffffffffffffffffffffffffffffffffffff1660018260405161044191906108ba565b908152602001604051809103902060009054906101000a900473ffffffffffffffffffffffffffffffffffffffff1673ffffffffffffffffffffffffffffffffffffffff16146104c6576040517f08c379a00000000000000000000000000000000000000000000000000000000081526004016104bd90610923565b60405180910390fd5b604051806020016040528060008152508051906020012081805190602001201415610526576040517f08c379a000000000000000000000000000000000000000000000000000000000815260040161051d90610963565b60405180910390fd5b3360018260405161053791906108ba565b908152602001604051809103902060006101000a81548173ffffffffffffffffffffffffffffffffffffffff021916908373ffffffffffffffffffffffffffffffffffffffff16021790555060016000803373ffffffffffffffffffffffffffffffffffffffff1673ffffffffffffffffffffffffffffffffffffffff16815260200190815260200160002060000160006101000a81548160ff021916908315150217905550806000803373ffffffffffffffffffffffffffffffffffffffff1673ffffffffffffffffffffffffffffffffffffffff1681526020019081526020016000206001019080519060200190610632929190610636565b5050565b82805461064290610a79565b90600052602060002090601f01602090048101928261066457600085556106ab565b82601f1061067d57805160ff19168380011785556106ab565b828001600101855582156106ab579182015b828111156106aa57825182559160200191906001019061068f565b5b5090506106b891906106bc565b5090565b5b808211156106d55760008160009055506001016106bd565b5090565b60006106ec6106e7846109c8565b6109a3565b90508281526020810184848401111561070857610707610b3f565b5b610713848285610a37565b509392505050565b600082601f8301126107305761072f610b3a565b5b81356107408482602086016106d9565b91505092915050565b60006020828403121561075f5761075e610b49565b5b600082013567ffffffffffffffff81111561077d5761077c610b44565b5b6107898482850161071b565b91505092915050565b61079b81610a2b565b82525050565b60006107ac826109f9565b6107b68185610a0f565b93506107c6818560208601610a46565b6107cf81610b4e565b840191505092915050565b60006107e5826109f9565b6107ef8185610a20565b93506107ff818560208601610a46565b80840191505092915050565b6000610818601283610a0f565b915061082382610b5f565b602082019050919050565b600061083b600e83610a0f565b915061084682610b88565b602082019050919050565b600061085e601283610a0f565b915061086982610bb1565b602082019050919050565b6000610881601383610a0f565b915061088c82610bda565b602082019050919050565b60006108a4600083610a04565b91506108af82610c03565b600082019050919050565b60006108c682846107da565b915081905092915050565b60006108dc82610897565b9150819050919050565b60006020820190506108fb6000830184610792565b92915050565b6000602082019050818103600083015261091b81846107a1565b905092915050565b6000602082019050818103600083015261093c8161080b565b9050919050565b6000602082019050818103600083015261095c8161082e565b9050919050565b6000602082019050818103600083015261097c81610851565b9050919050565b6000602082019050818103600083015261099c81610874565b9050919050565b60006109ad6109be565b90506109b98282610aab565b919050565b6000604051905090565b600067ffffffffffffffff8211156109e3576109e2610b0b565b5b6109ec82610b4e565b9050602081019050919050565b600081519050919050565b600081905092915050565b600082825260208201905092915050565b600081905092915050565b60008115159050919050565b82818337600083830152505050565b60005b83811015610a64578082015181840152602081019050610a49565b83811115610a73576000848401525b50505050565b60006002820490506001821680610a9157607f821691505b60208210811415610aa557610aa4610adc565b5b50919050565b610ab482610b4e565b810181811067ffffffffffffffff82111715610ad357610ad2610b0b565b5b80604052505050565b7f4e487b7100000000000000000000000000000000000000000000000000000000600052602260045260246000fd5b7f4e487b7100000000000000000000000000000000000000000000000000000000600052604160045260246000fd5b600080fd5b600080fd5b600080fd5b600080fd5b6000601f19601f8301169050919050565b7f616c726561647920726567697374657265640000000000000000000000000000600082015250565b7f6e6f742072656769737465726564000000000000000000000000000000000000600082015250565b7f436865636b2074686520757365726e616d650000000000000000000000000000600082015250565b7f436865636b2074686520726563697069656e7400000000000000000000000000600082015250565b5056fea2646970667358221220670b1c453a75aa9c3ad4cca0e11804676b0f817359da76d60d23c12f374448d264736f6c63430008070033",
  "immutableReferences": {},
  "source": "// SPDX-License-Identifier: MIT\npragma solidity 0.8.7;\n\ncontract BNS {\n    struct User {\n        bool isRegistered;\n        string username;\n    }\n\n    mapping(address => User) private users;\n    mapping(string => address) private userNaming;\n\n    function register(string memory _username) public {\n        require(\n            userNaming[_username] ==\n                address(0x0000000000000000000000000000000000000000),\n            \"already registered\"\n        );\n        // require the username not to be an empty string\n        require(\n            keccak256(bytes(_username)) != keccak256(bytes(\"\")),\n            \"Check the username\"\n        );\n\n        userNaming[_username] = msg.sender;\n\n        users[msg.sender].isRegistered = true;\n        users[msg.sender].username = _username;\n    }\n\n    function transferETH(string memory _username) public payable {\n        require(\n            userNaming[_username] !=\n                address(0x0000000000000000000000000000000000000000),\n            \"not registered\"\n        );\n        require(msg.sender != userNaming[_username], \"Check the recipient\");\n\n        (bool success, ) = userNaming[_username].call{value: msg.value}(\"\");\n        require(success);\n    }\n\n    function isUserRegistered() public view returns (bool) {\n        return users[msg.sender].isRegistered;\n    }\n\n    function getUsername() public view returns (string memory) {\n        return users[msg.sender].username;\n    }\n}\n",
  "sourcePath": "/Users/samuel/Documents/Projet/Pojet_Dev/Blockchain_NS/contracts/BNS.sol",
  "compiler": {
    "name": "solc",
    "version": "0.8.7+commit.e28d00a7.Emscripten.clang"
  },
  "schemaVersion": "3.3.4",
  "updatedAt": "2021-08-28T22:55:15.176Z",
  "networkType": "ethereum",
  "devdoc": {
    "kind": "dev",
    "methods": {},
    "version": 1
  },
  "userdoc": {
    "kind": "user",
    "methods": {},
    "version": 1
  }
}