{
  "contractName": "CouponPayment",
  "abi": [
    {
      "inputs": [
        {
          "internalType": "string",
          "name": "_issuerName",
          "type": "string"
        },
        {
          "internalType": "uint256",
          "name": "_issueVolume",
          "type": "uint256"
        },
        {
          "internalType": "uint256",
          "name": "_denomination",
          "type": "uint256"
        },
        {
          "internalType": "uint256",
          "name": "_couponRate",
          "type": "uint256"
        },
        {
          "internalType": "address",
          "name": "_currency",
          "type": "address"
        }
      ],
      "stateMutability": "nonpayable",
      "type": "constructor"
    },
    {
      "inputs": [],
      "name": "issueVolume",
      "outputs": [
        {
          "internalType": "uint256",
          "name": "",
          "type": "uint256"
        }
      ],
      "stateMutability": "view",
      "type": "function",
      "constant": true
    },
    {
      "inputs": [],
      "name": "lastTimeStamp",
      "outputs": [
        {
          "internalType": "uint256",
          "name": "",
          "type": "uint256"
        }
      ],
      "stateMutability": "view",
      "type": "function",
      "constant": true
    },
    {
      "inputs": [],
      "name": "payInterest",
      "outputs": [],
      "stateMutability": "nonpayable",
      "type": "function"
    },
    {
      "inputs": [
        {
          "components": [
            {
              "internalType": "address",
              "name": "investor",
              "type": "address"
            },
            {
              "internalType": "uint256",
              "name": "principal",
              "type": "uint256"
            }
          ],
          "internalType": "struct IData.Offer[]",
          "name": "_offers",
          "type": "tuple[]"
        }
      ],
      "name": "setInvestersOffers",
      "outputs": [],
      "stateMutability": "nonpayable",
      "type": "function"
    },
    {
      "inputs": [],
      "name": "getListOfIntesrestsPaid",
      "outputs": [
        {
          "components": [
            {
              "internalType": "string",
              "name": "issuerName",
              "type": "string"
            },
            {
              "internalType": "uint256",
              "name": "issueVolume",
              "type": "uint256"
            },
            {
              "internalType": "uint256",
              "name": "couponRate",
              "type": "uint256"
            },
            {
              "internalType": "uint256",
              "name": "interestPaid",
              "type": "uint256"
            }
          ],
          "internalType": "struct IData.CouponPaymentReceipt[]",
          "name": "",
          "type": "tuple[]"
        }
      ],
      "stateMutability": "view",
      "type": "function",
      "constant": true
    }
  ],
  "bytecode": "0x60806040523480156200001157600080fd5b506040516200173d3803806200173d83398181016040528101906200003791906200031e565b846000908162000048919062000606565b5083600281905550826003819055508160048190555080600660006101000a81548173ffffffffffffffffffffffffffffffffffffffff021916908373ffffffffffffffffffffffffffffffffffffffff16021790555033600560006101000a81548173ffffffffffffffffffffffffffffffffffffffff021916908373ffffffffffffffffffffffffffffffffffffffff1602179055505050505050620006ed565b6000604051905090565b600080fd5b600080fd5b600080fd5b600080fd5b6000601f19601f8301169050919050565b7f4e487b7100000000000000000000000000000000000000000000000000000000600052604160045260246000fd5b620001548262000109565b810181811067ffffffffffffffff821117156200017657620001756200011a565b5b80604052505050565b60006200018b620000eb565b905062000199828262000149565b919050565b600067ffffffffffffffff821115620001bc57620001bb6200011a565b5b620001c78262000109565b9050602081019050919050565b60005b83811015620001f4578082015181840152602081019050620001d7565b60008484015250505050565b60006200021762000211846200019e565b6200017f565b90508281526020810184848401111562000236576200023562000104565b5b62000243848285620001d4565b509392505050565b600082601f830112620002635762000262620000ff565b5b81516200027584826020860162000200565b91505092915050565b6000819050919050565b62000293816200027e565b81146200029f57600080fd5b50565b600081519050620002b38162000288565b92915050565b600073ffffffffffffffffffffffffffffffffffffffff82169050919050565b6000620002e682620002b9565b9050919050565b620002f881620002d9565b81146200030457600080fd5b50565b6000815190506200031881620002ed565b92915050565b600080600080600060a086880312156200033d576200033c620000f5565b5b600086015167ffffffffffffffff8111156200035e576200035d620000fa565b5b6200036c888289016200024b565b95505060206200037f88828901620002a2565b94505060406200039288828901620002a2565b9350506060620003a588828901620002a2565b9250506080620003b88882890162000307565b9150509295509295909350565b600081519050919050565b7f4e487b7100000000000000000000000000000000000000000000000000000000600052602260045260246000fd5b600060028204905060018216806200041857607f821691505b6020821081036200042e576200042d620003d0565b5b50919050565b60008190508160005260206000209050919050565b60006020601f8301049050919050565b600082821b905092915050565b600060088302620004987fffffffffffffffffffffffffffffffffffffffffffffffffffffffffffffffff8262000459565b620004a4868362000459565b95508019841693508086168417925050509392505050565b6000819050919050565b6000620004e7620004e1620004db846200027e565b620004bc565b6200027e565b9050919050565b6000819050919050565b6200050383620004c6565b6200051b6200051282620004ee565b84845462000466565b825550505050565b600090565b6200053262000523565b6200053f818484620004f8565b505050565b5b8181101562000567576200055b60008262000528565b60018101905062000545565b5050565b601f821115620005b657620005808162000434565b6200058b8462000449565b810160208510156200059b578190505b620005b3620005aa8562000449565b83018262000544565b50505b505050565b600082821c905092915050565b6000620005db60001984600802620005bb565b1980831691505092915050565b6000620005f68383620005c8565b9150826002028217905092915050565b6200061182620003c5565b67ffffffffffffffff8111156200062d576200062c6200011a565b5b620006398254620003ff565b620006468282856200056b565b600060209050601f8311600181146200067e576000841562000669578287015190505b620006758582620005e8565b865550620006e5565b601f1984166200068e8662000434565b60005b82811015620006b85784890151825560018201915060208501945060208101905062000691565b86831015620006d85784890151620006d4601f891682620005c8565b8355505b6001600288020188555050505b505050505050565b61104080620006fd6000396000f3fe608060405234801561001057600080fd5b50600436106100575760003560e01c80633f3b3b271461005c578063710d33291461007a5780639f02d8b014610098578063a15a211c146100b6578063cd7a282c146100c0575b600080fd5b6100646100dc565b6040516100719190610611565b60405180910390f35b6100826100e2565b60405161008f9190610611565b60405180910390f35b6100a06100e8565b6040516100ad91906107f0565b60405180910390f35b6100be6101f7565b005b6100da60048036038101906100d59190610a4d565b6104ac565b005b60015481565b60025481565b60606008805480602002602001604051908101604052809291908181526020016000905b828210156101ee578382906000526020600020906004020160405180608001604052908160008201805461013f90610ac5565b80601f016020809104026020016040519081016040528092919081815260200182805461016b90610ac5565b80156101b85780601f1061018d576101008083540402835291602001916101b8565b820191906000526020600020905b81548152906001019060200180831161019b57829003601f168201915b5050505050815260200160018201548152602001600282015481526020016003820154815250508152602001906001019061010c565b50505050905090565b600080600090505b6007805490508110156103925760006007828154811061022257610221610af6565b5b906000526020600020906002020160010154905060006007838154811061024c5761024b610af6565b5b906000526020600020906002020160000160009054906101000a900473ffffffffffffffffffffffffffffffffffffffff16905060006301e133806127106102949190610b54565b6078600454670de0b6b3a7640000866102ad9190610b54565b6102b79190610b54565b6102c19190610b54565b6102cb9190610bc5565b9050600660009054906101000a900473ffffffffffffffffffffffffffffffffffffffff1673ffffffffffffffffffffffffffffffffffffffff1663a9059cbb83836040518363ffffffff1660e01b815260040161032a929190610c05565b6020604051808303816000875af1158015610349573d6000803e3d6000fd5b505050506040513d601f19601f8201168201806040525081019061036d9190610c66565b50808561037a9190610c93565b9450505050808061038a90610cc7565b9150506101ff565b5060006040518060800160405280600080546103ad90610ac5565b80601f01602080910402602001604051908101604052809291908181526020018280546103d990610ac5565b80156104265780601f106103fb57610100808354040283529160200191610426565b820191906000526020600020905b81548152906001019060200180831161040957829003601f168201915b5050505050815260200160025481526020016004548152602001838152509050600881908060018154018082558091505060019003906000526020600020906004020160009091909190915060008201518160000190816104879190610ebb565b5060208201518160010155604082015181600201556060820151816003015550505050565b600560009054906101000a900473ffffffffffffffffffffffffffffffffffffffff1673ffffffffffffffffffffffffffffffffffffffff163373ffffffffffffffffffffffffffffffffffffffff161461053c576040517f08c379a000000000000000000000000000000000000000000000000000000000815260040161053390610fea565b60405180910390fd5b60005b81518110156105f457600782828151811061055d5761055c610af6565b5b6020026020010151908060018154018082558091505060019003906000526020600020906002020160009091909190915060008201518160000160006101000a81548173ffffffffffffffffffffffffffffffffffffffff021916908373ffffffffffffffffffffffffffffffffffffffff16021790555060208201518160010155505080806105ec90610cc7565b91505061053f565b5050565b6000819050919050565b61060b816105f8565b82525050565b60006020820190506106266000830184610602565b92915050565b600081519050919050565b600082825260208201905092915050565b6000819050602082019050919050565b600081519050919050565b600082825260208201905092915050565b60005b83811015610692578082015181840152602081019050610677565b60008484015250505050565b6000601f19601f8301169050919050565b60006106ba82610658565b6106c48185610663565b93506106d4818560208601610674565b6106dd8161069e565b840191505092915050565b6106f1816105f8565b82525050565b6000608083016000830151848203600086015261071482826106af565b915050602083015161072960208601826106e8565b50604083015161073c60408601826106e8565b50606083015161074f60608601826106e8565b508091505092915050565b600061076683836106f7565b905092915050565b6000602082019050919050565b60006107868261062c565b6107908185610637565b9350836020820285016107a285610648565b8060005b858110156107de57848403895281516107bf858261075a565b94506107ca8361076e565b925060208a019950506001810190506107a6565b50829750879550505050505092915050565b6000602082019050818103600083015261080a818461077b565b905092915050565b6000604051905090565b600080fd5b600080fd5b600080fd5b7f4e487b7100000000000000000000000000000000000000000000000000000000600052604160045260246000fd5b6108638261069e565b810181811067ffffffffffffffff821117156108825761088161082b565b5b80604052505050565b6000610895610812565b90506108a1828261085a565b919050565b600067ffffffffffffffff8211156108c1576108c061082b565b5b602082029050602081019050919050565b600080fd5b600080fd5b600073ffffffffffffffffffffffffffffffffffffffff82169050919050565b6000610907826108dc565b9050919050565b610917816108fc565b811461092257600080fd5b50565b6000813590506109348161090e565b92915050565b610943816105f8565b811461094e57600080fd5b50565b6000813590506109608161093a565b92915050565b60006040828403121561097c5761097b6108d7565b5b610986604061088b565b9050600061099684828501610925565b60008301525060206109aa84828501610951565b60208301525092915050565b60006109c96109c4846108a6565b61088b565b905080838252602082019050604084028301858111156109ec576109eb6108d2565b5b835b81811015610a155780610a018882610966565b8452602084019350506040810190506109ee565b5050509392505050565b600082601f830112610a3457610a33610826565b5b8135610a448482602086016109b6565b91505092915050565b600060208284031215610a6357610a6261081c565b5b600082013567ffffffffffffffff811115610a8157610a80610821565b5b610a8d84828501610a1f565b91505092915050565b7f4e487b7100000000000000000000000000000000000000000000000000000000600052602260045260246000fd5b60006002820490506001821680610add57607f821691505b602082108103610af057610aef610a96565b5b50919050565b7f4e487b7100000000000000000000000000000000000000000000000000000000600052603260045260246000fd5b7f4e487b7100000000000000000000000000000000000000000000000000000000600052601160045260246000fd5b6000610b5f826105f8565b9150610b6a836105f8565b9250828202610b78816105f8565b91508282048414831517610b8f57610b8e610b25565b5b5092915050565b7f4e487b7100000000000000000000000000000000000000000000000000000000600052601260045260246000fd5b6000610bd0826105f8565b9150610bdb836105f8565b925082610beb57610bea610b96565b5b828204905092915050565b610bff816108fc565b82525050565b6000604082019050610c1a6000830185610bf6565b610c276020830184610602565b9392505050565b60008115159050919050565b610c4381610c2e565b8114610c4e57600080fd5b50565b600081519050610c6081610c3a565b92915050565b600060208284031215610c7c57610c7b61081c565b5b6000610c8a84828501610c51565b91505092915050565b6000610c9e826105f8565b9150610ca9836105f8565b9250828201905080821115610cc157610cc0610b25565b5b92915050565b6000610cd2826105f8565b91507fffffffffffffffffffffffffffffffffffffffffffffffffffffffffffffffff8203610d0457610d03610b25565b5b600182019050919050565b60008190508160005260206000209050919050565b60006020601f8301049050919050565b600082821b905092915050565b600060088302610d717fffffffffffffffffffffffffffffffffffffffffffffffffffffffffffffffff82610d34565b610d7b8683610d34565b95508019841693508086168417925050509392505050565b6000819050919050565b6000610db8610db3610dae846105f8565b610d93565b6105f8565b9050919050565b6000819050919050565b610dd283610d9d565b610de6610dde82610dbf565b848454610d41565b825550505050565b600090565b610dfb610dee565b610e06818484610dc9565b505050565b5b81811015610e2a57610e1f600082610df3565b600181019050610e0c565b5050565b601f821115610e6f57610e4081610d0f565b610e4984610d24565b81016020851015610e58578190505b610e6c610e6485610d24565b830182610e0b565b50505b505050565b600082821c905092915050565b6000610e9260001984600802610e74565b1980831691505092915050565b6000610eab8383610e81565b9150826002028217905092915050565b610ec482610658565b67ffffffffffffffff811115610edd57610edc61082b565b5b610ee78254610ac5565b610ef2828285610e2e565b600060209050601f831160018114610f255760008415610f13578287015190505b610f1d8582610e9f565b865550610f85565b601f198416610f3386610d0f565b60005b82811015610f5b57848901518255600182019150602085019450602081019050610f36565b86831015610f785784890151610f74601f891682610e81565b8355505b6001600288020188555050505b505050505050565b600082825260208201905092915050565b7f436f75706f6e5061796d656e743a204f4e4c595f4d414e414745520000000000600082015250565b6000610fd4601b83610f8d565b9150610fdf82610f9e565b602082019050919050565b6000602082019050818103600083015261100381610fc7565b905091905056fea26469706673582212205d3e41f36feb882fde6a94b3d5dd10bd6c86cbf0ece63a2a93fa03f667a2921164736f6c63430008130033",
  "immutableReferences": {},
  "source": "// SPDX-License-Identifier: MIT\npragma solidity ^0.8.0;\n\nimport \"./IERC20.sol\";\nimport \"./IData.sol\";\n\ncontract CouponPayment {\n    uint256 constant private NUMBER_OF_SECONDS_IN_YEAR = 31536000;\n    string issuerName;\n    uint public lastTimeStamp;\n    uint256 public issueVolume;\n    uint256 denomination;\n    uint256 couponRate;\n    address manager;\n    address currency;\n\n    IData.Offer[] internal offers;\n    IData.CouponPaymentReceipt[] internal interestsPaid;\n\n    modifier onlyManager {\n        require(msg.sender == manager, \"CouponPayment: ONLY_MANAGER\");\n        _;\n    }\n\n    constructor(\n        string memory _issuerName,\n        uint256 _issueVolume,\n        uint256 _denomination,\n        uint256 _couponRate,\n        address _currency\n    ) {\n        issuerName = _issuerName;\n        issueVolume = _issueVolume;\n        denomination = _denomination;\n        couponRate = _couponRate;\n        currency = _currency;\n\n        manager = msg.sender;\n    }\n\n    function payInterest() public {\n        uint256 totalInterest;\n        for (uint256 i = 0; i < offers.length; i++) {\n            uint256 principal = offers[i].principal;\n            address investor = offers[i].investor;\n\n            uint256 interest = (principal * 1 ether) * couponRate * (120) / (10000 * NUMBER_OF_SECONDS_IN_YEAR);\n\n            IERC20(currency).transfer(investor, interest);\n            \n            totalInterest += interest;\n        }\n\n        IData.CouponPaymentReceipt memory receipt = IData.CouponPaymentReceipt({\n            issuerName: issuerName,\n            issueVolume: issueVolume,\n            couponRate: couponRate,\n            interestPaid: totalInterest\n        });\n\n        interestsPaid.push(receipt);\n    }\n\n    function setInvestersOffers(IData.Offer[] memory _offers) external onlyManager {\n        for(uint256 i = 0; i < _offers.length; i++) {\n            offers.push(_offers[i]);\n        }\n    }\n\n    function getListOfIntesrestsPaid() external view returns(IData.CouponPaymentReceipt[] memory) {\n        return interestsPaid;\n    }\n}",
  "sourcePath": "/Users/sam/Documents/Finance/EIP/basic-erc7092/contracts/utils/CouponPayment.sol",
  "compiler": {
    "name": "solc",
    "version": "0.8.19+commit.7dd6d404.Emscripten.clang"
  },
  "schemaVersion": "3.4.9",
  "updatedAt": "2023-08-22T01:16:14.316Z",
  "networkType": "ethereum",
  "devdoc": {
    "kind": "dev",
    "methods": {},
    "version": 1
  },
  "userdoc": {
    "kind": "user",
    "methods": {},
    "version": 1
  }
}