{
  "contractName": "ERC7092",
  "abi": [
    {
      "inputs": [
        {
          "components": [
            {
              "internalType": "string",
              "name": "isin",
              "type": "string"
            },
            {
              "internalType": "string",
              "name": "name",
              "type": "string"
            },
            {
              "internalType": "address",
              "name": "currency",
              "type": "address"
            },
            {
              "internalType": "uint256",
              "name": "denomination",
              "type": "uint256"
            },
            {
              "internalType": "uint256",
              "name": "issueVolume",
              "type": "uint256"
            },
            {
              "internalType": "uint256",
              "name": "couponRate",
              "type": "uint256"
            },
            {
              "internalType": "uint256",
              "name": "issueDate",
              "type": "uint256"
            },
            {
              "internalType": "uint256",
              "name": "maturityDate",
              "type": "uint256"
            }
          ],
          "internalType": "struct BondStorage.Bond",
          "name": "_bond",
          "type": "tuple"
        },
        {
          "components": [
            {
              "internalType": "address",
              "name": "accountAddress",
              "type": "address"
            },
            {
              "internalType": "string",
              "name": "name",
              "type": "string"
            },
            {
              "internalType": "string",
              "name": "country",
              "type": "string"
            },
            {
              "internalType": "string",
              "name": "email",
              "type": "string"
            },
            {
              "internalType": "string",
              "name": "category",
              "type": "string"
            },
            {
              "internalType": "string",
              "name": "creditRating",
              "type": "string"
            },
            {
              "internalType": "uint256",
              "name": "carbonCredit",
              "type": "uint256"
            }
          ],
          "internalType": "struct BondStorage.Issuer",
          "name": "_issuer",
          "type": "tuple"
        }
      ],
      "stateMutability": "nonpayable",
      "type": "constructor"
    },
    {
      "anonymous": false,
      "inputs": [
        {
          "indexed": false,
          "internalType": "address",
          "name": "_owner",
          "type": "address"
        },
        {
          "indexed": false,
          "internalType": "address",
          "name": "_spender",
          "type": "address"
        },
        {
          "indexed": false,
          "internalType": "uint256",
          "name": "_amount",
          "type": "uint256"
        }
      ],
      "name": "AllowanceDecreased",
      "type": "event"
    },
    {
      "anonymous": false,
      "inputs": [
        {
          "indexed": false,
          "internalType": "address",
          "name": "_owner",
          "type": "address"
        },
        {
          "indexed": false,
          "internalType": "address",
          "name": "_spender",
          "type": "address"
        },
        {
          "indexed": false,
          "internalType": "uint256",
          "name": "_amount",
          "type": "uint256"
        }
      ],
      "name": "Approved",
      "type": "event"
    },
    {
      "anonymous": false,
      "inputs": [
        {
          "components": [
            {
              "internalType": "string",
              "name": "isin",
              "type": "string"
            },
            {
              "internalType": "string",
              "name": "name",
              "type": "string"
            },
            {
              "internalType": "address",
              "name": "currency",
              "type": "address"
            },
            {
              "internalType": "uint256",
              "name": "denomination",
              "type": "uint256"
            },
            {
              "internalType": "uint256",
              "name": "issueVolume",
              "type": "uint256"
            },
            {
              "internalType": "uint256",
              "name": "couponRate",
              "type": "uint256"
            },
            {
              "internalType": "uint256",
              "name": "issueDate",
              "type": "uint256"
            },
            {
              "internalType": "uint256",
              "name": "maturityDate",
              "type": "uint256"
            }
          ],
          "indexed": false,
          "internalType": "struct BondStorage.Bond",
          "name": "_bond",
          "type": "tuple"
        },
        {
          "components": [
            {
              "internalType": "address",
              "name": "investor",
              "type": "address"
            },
            {
              "internalType": "uint256",
              "name": "principal",
              "type": "uint256"
            }
          ],
          "indexed": false,
          "internalType": "struct BondStorage.Offer[]",
          "name": "_offers",
          "type": "tuple[]"
        }
      ],
      "name": "BondIssued",
      "type": "event"
    },
    {
      "anonymous": false,
      "inputs": [],
      "name": "Redeemed",
      "type": "event"
    },
    {
      "anonymous": false,
      "inputs": [
        {
          "indexed": false,
          "internalType": "address",
          "name": "_from",
          "type": "address"
        },
        {
          "indexed": false,
          "internalType": "address",
          "name": "_to",
          "type": "address"
        },
        {
          "indexed": false,
          "internalType": "uint256",
          "name": "_amount",
          "type": "uint256"
        },
        {
          "indexed": false,
          "internalType": "bytes",
          "name": "_data",
          "type": "bytes"
        }
      ],
      "name": "Transferred",
      "type": "event"
    },
    {
      "inputs": [],
      "name": "bondISIN",
      "outputs": [
        {
          "internalType": "string",
          "name": "",
          "type": "string"
        }
      ],
      "stateMutability": "view",
      "type": "function",
      "constant": true
    },
    {
      "inputs": [],
      "name": "bondManager",
      "outputs": [
        {
          "internalType": "address",
          "name": "",
          "type": "address"
        }
      ],
      "stateMutability": "view",
      "type": "function",
      "constant": true
    },
    {
      "inputs": [],
      "name": "lock",
      "outputs": [
        {
          "internalType": "uint256",
          "name": "",
          "type": "uint256"
        }
      ],
      "stateMutability": "view",
      "type": "function",
      "constant": true
    },
    {
      "inputs": [],
      "name": "issue",
      "outputs": [],
      "stateMutability": "nonpayable",
      "type": "function"
    },
    {
      "inputs": [],
      "name": "redeem",
      "outputs": [],
      "stateMutability": "nonpayable",
      "type": "function"
    },
    {
      "inputs": [
        {
          "internalType": "uint256",
          "name": "_amount",
          "type": "uint256"
        }
      ],
      "name": "register",
      "outputs": [],
      "stateMutability": "nonpayable",
      "type": "function"
    },
    {
      "inputs": [],
      "name": "unlock",
      "outputs": [],
      "stateMutability": "nonpayable",
      "type": "function"
    },
    {
      "inputs": [],
      "name": "isin",
      "outputs": [
        {
          "internalType": "string",
          "name": "",
          "type": "string"
        }
      ],
      "stateMutability": "view",
      "type": "function",
      "constant": true
    },
    {
      "inputs": [],
      "name": "name",
      "outputs": [
        {
          "internalType": "string",
          "name": "",
          "type": "string"
        }
      ],
      "stateMutability": "view",
      "type": "function",
      "constant": true
    },
    {
      "inputs": [],
      "name": "currency",
      "outputs": [
        {
          "internalType": "address",
          "name": "",
          "type": "address"
        }
      ],
      "stateMutability": "view",
      "type": "function",
      "constant": true
    },
    {
      "inputs": [],
      "name": "denomination",
      "outputs": [
        {
          "internalType": "uint256",
          "name": "",
          "type": "uint256"
        }
      ],
      "stateMutability": "view",
      "type": "function",
      "constant": true
    },
    {
      "inputs": [],
      "name": "issueVolume",
      "outputs": [
        {
          "internalType": "uint256",
          "name": "",
          "type": "uint256"
        }
      ],
      "stateMutability": "view",
      "type": "function",
      "constant": true
    },
    {
      "inputs": [],
      "name": "couponRate",
      "outputs": [
        {
          "internalType": "uint256",
          "name": "",
          "type": "uint256"
        }
      ],
      "stateMutability": "view",
      "type": "function",
      "constant": true
    },
    {
      "inputs": [],
      "name": "issueDate",
      "outputs": [
        {
          "internalType": "uint256",
          "name": "",
          "type": "uint256"
        }
      ],
      "stateMutability": "view",
      "type": "function",
      "constant": true
    },
    {
      "inputs": [],
      "name": "maturityDate",
      "outputs": [
        {
          "internalType": "uint256",
          "name": "",
          "type": "uint256"
        }
      ],
      "stateMutability": "view",
      "type": "function",
      "constant": true
    },
    {
      "inputs": [
        {
          "internalType": "address",
          "name": "_account",
          "type": "address"
        }
      ],
      "name": "principalOf",
      "outputs": [
        {
          "internalType": "uint256",
          "name": "",
          "type": "uint256"
        }
      ],
      "stateMutability": "view",
      "type": "function",
      "constant": true
    },
    {
      "inputs": [
        {
          "internalType": "address",
          "name": "_owner",
          "type": "address"
        },
        {
          "internalType": "address",
          "name": "_spender",
          "type": "address"
        }
      ],
      "name": "approval",
      "outputs": [
        {
          "internalType": "uint256",
          "name": "",
          "type": "uint256"
        }
      ],
      "stateMutability": "view",
      "type": "function",
      "constant": true
    },
    {
      "inputs": [
        {
          "internalType": "address",
          "name": "_spender",
          "type": "address"
        },
        {
          "internalType": "uint256",
          "name": "_amount",
          "type": "uint256"
        }
      ],
      "name": "approve",
      "outputs": [
        {
          "internalType": "bool",
          "name": "",
          "type": "bool"
        }
      ],
      "stateMutability": "nonpayable",
      "type": "function"
    },
    {
      "inputs": [
        {
          "internalType": "address",
          "name": "_spender",
          "type": "address"
        },
        {
          "internalType": "uint256",
          "name": "_amount",
          "type": "uint256"
        }
      ],
      "name": "decreaseAllowance",
      "outputs": [
        {
          "internalType": "bool",
          "name": "",
          "type": "bool"
        }
      ],
      "stateMutability": "nonpayable",
      "type": "function"
    },
    {
      "inputs": [
        {
          "internalType": "address",
          "name": "_to",
          "type": "address"
        },
        {
          "internalType": "uint256",
          "name": "_amount",
          "type": "uint256"
        },
        {
          "internalType": "bytes",
          "name": "_data",
          "type": "bytes"
        }
      ],
      "name": "transfer",
      "outputs": [
        {
          "internalType": "bool",
          "name": "",
          "type": "bool"
        }
      ],
      "stateMutability": "nonpayable",
      "type": "function"
    },
    {
      "inputs": [
        {
          "internalType": "address",
          "name": "_from",
          "type": "address"
        },
        {
          "internalType": "address",
          "name": "_to",
          "type": "address"
        },
        {
          "internalType": "uint256",
          "name": "_amount",
          "type": "uint256"
        },
        {
          "internalType": "bytes",
          "name": "_data",
          "type": "bytes"
        }
      ],
      "name": "transferFrom",
      "outputs": [
        {
          "internalType": "bool",
          "name": "",
          "type": "bool"
        }
      ],
      "stateMutability": "nonpayable",
      "type": "function"
    },
    {
      "inputs": [],
      "name": "getBondInfo",
      "outputs": [
        {
          "components": [
            {
              "internalType": "string",
              "name": "isin",
              "type": "string"
            },
            {
              "internalType": "string",
              "name": "name",
              "type": "string"
            },
            {
              "internalType": "address",
              "name": "currency",
              "type": "address"
            },
            {
              "internalType": "uint256",
              "name": "denomination",
              "type": "uint256"
            },
            {
              "internalType": "uint256",
              "name": "issueVolume",
              "type": "uint256"
            },
            {
              "internalType": "uint256",
              "name": "couponRate",
              "type": "uint256"
            },
            {
              "internalType": "uint256",
              "name": "issueDate",
              "type": "uint256"
            },
            {
              "internalType": "uint256",
              "name": "maturityDate",
              "type": "uint256"
            }
          ],
          "internalType": "struct BondStorage.Bond",
          "name": "",
          "type": "tuple"
        }
      ],
      "stateMutability": "view",
      "type": "function",
      "constant": true
    },
    {
      "inputs": [],
      "name": "getIssuerInfo",
      "outputs": [
        {
          "components": [
            {
              "internalType": "address",
              "name": "accountAddress",
              "type": "address"
            },
            {
              "internalType": "string",
              "name": "name",
              "type": "string"
            },
            {
              "internalType": "string",
              "name": "country",
              "type": "string"
            },
            {
              "internalType": "string",
              "name": "email",
              "type": "string"
            },
            {
              "internalType": "string",
              "name": "category",
              "type": "string"
            },
            {
              "internalType": "string",
              "name": "creditRating",
              "type": "string"
            },
            {
              "internalType": "uint256",
              "name": "carbonCredit",
              "type": "uint256"
            }
          ],
          "internalType": "struct BondStorage.Issuer",
          "name": "",
          "type": "tuple"
        }
      ],
      "stateMutability": "view",
      "type": "function",
      "constant": true
    },
    {
      "inputs": [],
      "name": "getListOfInvestorsOffer",
      "outputs": [
        {
          "components": [
            {
              "internalType": "address",
              "name": "investor",
              "type": "address"
            },
            {
              "internalType": "uint256",
              "name": "principal",
              "type": "uint256"
            }
          ],
          "internalType": "struct BondStorage.Offer[]",
          "name": "",
          "type": "tuple[]"
        }
      ],
      "stateMutability": "view",
      "type": "function",
      "constant": true
    }
  ],
  "bytecode": "0x60806040523480156200001157600080fd5b50604051620047ba380380620047ba8339818101604052810190620000379190620007ce565b8160000151600490816200004c919062000a94565b50816000600460405162000061919062000c15565b9081526020016040518091039020600082015181600001908162000086919062000a94565b5060208201518160010190816200009e919062000a94565b5060408201518160020160006101000a81548173ffffffffffffffffffffffffffffffffffffffff021916908373ffffffffffffffffffffffffffffffffffffffff160217905550606082015181600301556080820151816004015560a0820151816005015560c0820151816006015560e0820151816007015590505080600160046040516200012f919062000c15565b908152602001604051809103902060008201518160000160006101000a81548173ffffffffffffffffffffffffffffffffffffffff021916908373ffffffffffffffffffffffffffffffffffffffff16021790555060208201518160010190816200019b919062000a94565b506040820151816002019081620001b3919062000a94565b506060820151816003019081620001cb919062000a94565b506080820151816004019081620001e3919062000a94565b5060a0820151816005019081620001fb919062000a94565b5060c0820151816006015590505033600560006101000a81548173ffffffffffffffffffffffffffffffffffffffff021916908373ffffffffffffffffffffffffffffffffffffffff16021790555042600060046040516200025e919062000c15565b908152602001604051809103902060060181905550600080600460405162000287919062000c15565b90815260200160405180910390206006015490506000806004604051620002af919062000c15565b908152602001604051809103902060070154905081811162000308576040517f08c379a0000000000000000000000000000000000000000000000000000000008152600401620002ff9062000cb5565b60405180910390fd5b5050505062000cd7565b6000604051905090565b600080fd5b600080fd5b600080fd5b6000601f19601f8301169050919050565b7f4e487b7100000000000000000000000000000000000000000000000000000000600052604160045260246000fd5b62000376826200032b565b810181811067ffffffffffffffff821117156200039857620003976200033c565b5b80604052505050565b6000620003ad62000312565b9050620003bb82826200036b565b919050565b600080fd5b600080fd5b600080fd5b600067ffffffffffffffff821115620003ed57620003ec6200033c565b5b620003f8826200032b565b9050602081019050919050565b60005b838110156200042557808201518184015260208101905062000408565b60008484015250505050565b6000620004486200044284620003cf565b620003a1565b905082815260208101848484011115620004675762000466620003ca565b5b6200047484828562000405565b509392505050565b600082601f830112620004945762000493620003c5565b5b8151620004a684826020860162000431565b91505092915050565b600073ffffffffffffffffffffffffffffffffffffffff82169050919050565b6000620004dc82620004af565b9050919050565b620004ee81620004cf565b8114620004fa57600080fd5b50565b6000815190506200050e81620004e3565b92915050565b6000819050919050565b620005298162000514565b81146200053557600080fd5b50565b60008151905062000549816200051e565b92915050565b6000610100828403121562000569576200056862000326565b5b62000576610100620003a1565b9050600082015167ffffffffffffffff811115620005995762000598620003c0565b5b620005a7848285016200047c565b600083015250602082015167ffffffffffffffff811115620005ce57620005cd620003c0565b5b620005dc848285016200047c565b6020830152506040620005f284828501620004fd565b6040830152506060620006088482850162000538565b60608301525060806200061e8482850162000538565b60808301525060a0620006348482850162000538565b60a08301525060c06200064a8482850162000538565b60c08301525060e0620006608482850162000538565b60e08301525092915050565b600060e0828403121562000685576200068462000326565b5b6200069160e0620003a1565b90506000620006a384828501620004fd565b600083015250602082015167ffffffffffffffff811115620006ca57620006c9620003c0565b5b620006d8848285016200047c565b602083015250604082015167ffffffffffffffff811115620006ff57620006fe620003c0565b5b6200070d848285016200047c565b604083015250606082015167ffffffffffffffff811115620007345762000733620003c0565b5b62000742848285016200047c565b606083015250608082015167ffffffffffffffff811115620007695762000768620003c0565b5b62000777848285016200047c565b60808301525060a082015167ffffffffffffffff8111156200079e576200079d620003c0565b5b620007ac848285016200047c565b60a08301525060c0620007c28482850162000538565b60c08301525092915050565b60008060408385031215620007e857620007e76200031c565b5b600083015167ffffffffffffffff81111562000809576200080862000321565b5b62000817858286016200054f565b925050602083015167ffffffffffffffff8111156200083b576200083a62000321565b5b62000849858286016200066c565b9150509250929050565b600081519050919050565b7f4e487b7100000000000000000000000000000000000000000000000000000000600052602260045260246000fd5b60006002820490506001821680620008a657607f821691505b602082108103620008bc57620008bb6200085e565b5b50919050565b60008190508160005260206000209050919050565b60006020601f8301049050919050565b600082821b905092915050565b600060088302620009267fffffffffffffffffffffffffffffffffffffffffffffffffffffffffffffffff82620008e7565b620009328683620008e7565b95508019841693508086168417925050509392505050565b6000819050919050565b6000620009756200096f620009698462000514565b6200094a565b62000514565b9050919050565b6000819050919050565b620009918362000954565b620009a9620009a0826200097c565b848454620008f4565b825550505050565b600090565b620009c0620009b1565b620009cd81848462000986565b505050565b5b81811015620009f557620009e9600082620009b6565b600181019050620009d3565b5050565b601f82111562000a445762000a0e81620008c2565b62000a1984620008d7565b8101602085101562000a29578190505b62000a4162000a3885620008d7565b830182620009d2565b50505b505050565b600082821c905092915050565b600062000a696000198460080262000a49565b1980831691505092915050565b600062000a84838362000a56565b9150826002028217905092915050565b62000a9f8262000853565b67ffffffffffffffff81111562000abb5762000aba6200033c565b5b62000ac782546200088d565b62000ad4828285620009f9565b600060209050601f83116001811462000b0c576000841562000af7578287015190505b62000b03858262000a76565b86555062000b73565b601f19841662000b1c86620008c2565b60005b8281101562000b465784890151825560018201915060208501945060208101905062000b1f565b8683101562000b66578489015162000b62601f89168262000a56565b8355505b6001600288020188555050505b505050505050565b600081905092915050565b6000815462000b95816200088d565b62000ba1818662000b7b565b9450600182166000811462000bbf576001811462000bd55762000c0c565b60ff198316865281151582028601935062000c0c565b62000be085620008c2565b60005b8381101562000c045781548189015260018201915060208101905062000be3565b838801955050505b50505092915050565b600062000c23828462000b86565b915081905092915050565b600082825260208201905092915050565b7f436f6e7374727563746f723a20494e56414c49445f4d415455524954595f444160008201527f5445000000000000000000000000000000000000000000000000000000000000602082015250565b600062000c9d60228362000c2e565b915062000caa8262000c3f565b604082019050919050565b6000602082019050818103600083015262000cd08162000c8e565b9050919050565b613ad38062000ce76000396000f3fe608060405234801561001057600080fd5b50600436106101585760003560e01c8063a69df4b5116100c3578063d5070b3e1161007c578063d5070b3e14610397578063d59624b4146103b5578063e1270b6e146103d3578063e5a6b10f14610403578063f207564e14610421578063f83d08ba1461043d57610158565b8063a69df4b5146102fb578063ab67aa5814610305578063be040fb014610335578063be45fd621461033f578063c0bcb26f1461036f578063d383f6461461038d57610158565b8063710d332911610115578063710d3329146102355780637dbdc9531461025357806382d5a60d146102715780638bca6d161461028f5780638d1343e0146102ad578063a457c2d7146102cb57610158565b806306fdde031461015d578063095ea7b31461017b5780632c0bc9a0146101ab578063363cc427146101c95780635256214b146101e757806361e20a1c14610205575b600080fd5b61016561045b565b60405161017291906126be565b60405180910390f35b6101956004803603810190610190919061277e565b61050d565b6040516101a291906127d9565b60405180910390f35b6101b3610529565b6040516101c091906126be565b60405180910390f35b6101d16105b7565b6040516101de9190612803565b60405180910390f35b6101ef6105dd565b6040516101fc919061291a565b60405180910390f35b61021f600480360381019061021a919061293c565b61069c565b60405161022c9190612978565b60405180910390f35b61023d6106e5565b60405161024a9190612978565b60405180910390f35b61025b61070e565b6040516102689190612a95565b60405180910390f35b610279610a7f565b60405161028691906126be565b60405180910390f35b610297610b31565b6040516102a49190612978565b60405180910390f35b6102b5610b5a565b6040516102c29190612978565b60405180910390f35b6102e560048036038101906102e0919061277e565b610b83565b6040516102f291906127d9565b60405180910390f35b610303610b9f565b005b61031f600480360381019061031a9190612b1c565b610c7e565b60405161032c91906127d9565b60405180910390f35b61033d610caa565b005b61035960048036038101906103549190612ba4565b610cf9565b60405161036691906127d9565b60405180910390f35b610377610d19565b6040516103849190612978565b60405180910390f35b610395610d42565b005b61039f610ddc565b6040516103ac9190612ccf565b60405180910390f35b6103bd610fc0565b6040516103ca9190612978565b60405180910390f35b6103ed60048036038101906103e89190612cf1565b610fe9565b6040516103fa9190612978565b60405180910390f35b61040b611070565b6040516104189190612803565b60405180910390f35b61043b60048036038101906104369190612d31565b6110b9565b005b610445611276565b6040516104529190612978565b60405180910390f35b60606000600460405161046e9190612e61565b9081526020016040518091039020600101805461048a90612d8d565b80601f01602080910402602001604051908101604052809291908181526020018280546104b690612d8d565b80156105035780601f106104d857610100808354040283529160200191610503565b820191906000526020600020905b8154815290600101906020018083116104e657829003601f168201915b5050505050905090565b60008033905061051e81858561127c565b600191505092915050565b6004805461053690612d8d565b80601f016020809104026020016040519081016040528092919081815260200182805461056290612d8d565b80156105af5780601f10610584576101008083540402835291602001916105af565b820191906000526020600020905b81548152906001019060200180831161059257829003601f168201915b505050505081565b600560009054906101000a900473ffffffffffffffffffffffffffffffffffffffff1681565b60606007805480602002602001604051908101604052809291908181526020016000905b8282101561069357838290600052602060002090600202016040518060400160405290816000820160009054906101000a900473ffffffffffffffffffffffffffffffffffffffff1673ffffffffffffffffffffffffffffffffffffffff1673ffffffffffffffffffffffffffffffffffffffff16815260200160018201548152505081526020019060010190610601565b50505050905090565b6000600260008373ffffffffffffffffffffffffffffffffffffffff1673ffffffffffffffffffffffffffffffffffffffff168152602001908152602001600020549050919050565b60008060046040516106f79190612e61565b908152602001604051809103902060040154905090565b610716612580565b600160046040516107279190612e61565b90815260200160405180910390206040518060e00160405290816000820160009054906101000a900473ffffffffffffffffffffffffffffffffffffffff1673ffffffffffffffffffffffffffffffffffffffff1673ffffffffffffffffffffffffffffffffffffffff1681526020016001820180546107a690612d8d565b80601f01602080910402602001604051908101604052809291908181526020018280546107d290612d8d565b801561081f5780601f106107f45761010080835404028352916020019161081f565b820191906000526020600020905b81548152906001019060200180831161080257829003601f168201915b5050505050815260200160028201805461083890612d8d565b80601f016020809104026020016040519081016040528092919081815260200182805461086490612d8d565b80156108b15780601f10610886576101008083540402835291602001916108b1565b820191906000526020600020905b81548152906001019060200180831161089457829003601f168201915b505050505081526020016003820180546108ca90612d8d565b80601f01602080910402602001604051908101604052809291908181526020018280546108f690612d8d565b80156109435780601f1061091857610100808354040283529160200191610943565b820191906000526020600020905b81548152906001019060200180831161092657829003601f168201915b5050505050815260200160048201805461095c90612d8d565b80601f016020809104026020016040519081016040528092919081815260200182805461098890612d8d565b80156109d55780601f106109aa576101008083540402835291602001916109d5565b820191906000526020600020905b8154815290600101906020018083116109b857829003601f168201915b505050505081526020016005820180546109ee90612d8d565b80601f0160208091040260200160405190810160405280929190818152602001828054610a1a90612d8d565b8015610a675780601f10610a3c57610100808354040283529160200191610a67565b820191906000526020600020905b815481529060010190602001808311610a4a57829003601f168201915b50505050508152602001600682015481525050905090565b606060006004604051610a929190612e61565b90815260200160405180910390206000018054610aae90612d8d565b80601f0160208091040260200160405190810160405280929190818152602001828054610ada90612d8d565b8015610b275780601f10610afc57610100808354040283529160200191610b27565b820191906000526020600020905b815481529060010190602001808311610b0a57829003601f168201915b5050505050905090565b6000806004604051610b439190612e61565b908152602001604051809103902060030154905090565b6000806004604051610b6c9190612e61565b908152602001604051809103902060060154905090565b600080339050610b9481858561165c565b600191505092915050565b600560009054906101000a900473ffffffffffffffffffffffffffffffffffffffff1673ffffffffffffffffffffffffffffffffffffffff163373ffffffffffffffffffffffffffffffffffffffff1614610c2f576040517f08c379a0000000000000000000000000000000000000000000000000000000008152600401610c2690612ec4565b60405180910390fd5b600060065414610c74576040517f08c379a0000000000000000000000000000000000000000000000000000000008152600401610c6b90612f30565b60405180910390fd5b6001600681905550565b600080339050610c8f8782876119f7565b610c9c8787878787611b44565b600191505095945050505050565b600160065414610cef576040517f08c379a0000000000000000000000000000000000000000000000000000000008152600401610ce690612f9c565b60405180910390fd5b610cf7611f07565b565b600080339050610d0c8187878787611b44565b6001915050949350505050565b6000806004604051610d2b9190612e61565b908152602001604051809103902060050154905090565b600560009054906101000a900473ffffffffffffffffffffffffffffffffffffffff1673ffffffffffffffffffffffffffffffffffffffff163373ffffffffffffffffffffffffffffffffffffffff1614610dd2576040517f08c379a0000000000000000000000000000000000000000000000000000000008152600401610dc990612ec4565b60405180910390fd5b610dda6122c4565b565b610de46125d3565b60006004604051610df59190612e61565b908152602001604051809103902060405180610100016040529081600082018054610e1f90612d8d565b80601f0160208091040260200160405190810160405280929190818152602001828054610e4b90612d8d565b8015610e985780601f10610e6d57610100808354040283529160200191610e98565b820191906000526020600020905b815481529060010190602001808311610e7b57829003601f168201915b50505050508152602001600182018054610eb190612d8d565b80601f0160208091040260200160405190810160405280929190818152602001828054610edd90612d8d565b8015610f2a5780601f10610eff57610100808354040283529160200191610f2a565b820191906000526020600020905b815481529060010190602001808311610f0d57829003601f168201915b505050505081526020016002820160009054906101000a900473ffffffffffffffffffffffffffffffffffffffff1673ffffffffffffffffffffffffffffffffffffffff1673ffffffffffffffffffffffffffffffffffffffff16815260200160038201548152602001600482015481526020016005820154815260200160068201548152602001600782015481525050905090565b6000806004604051610fd29190612e61565b908152602001604051809103902060070154905090565b6000600360008473ffffffffffffffffffffffffffffffffffffffff1673ffffffffffffffffffffffffffffffffffffffff16815260200190815260200160002060008373ffffffffffffffffffffffffffffffffffffffff1673ffffffffffffffffffffffffffffffffffffffff16815260200190815260200160002054905092915050565b60008060046040516110829190612e61565b908152602001604051809103902060020160009054906101000a900473ffffffffffffffffffffffffffffffffffffffff16905090565b60003390506000600160046040516110d19190612e61565b908152602001604051809103902060000160009054906101000a900473ffffffffffffffffffffffffffffffffffffffff169050600760405180604001604052803373ffffffffffffffffffffffffffffffffffffffff16815260200185815250908060018154018082558091505060019003906000526020600020906002020160009091909190915060008201518160000160006101000a81548173ffffffffffffffffffffffffffffffffffffffff021916908373ffffffffffffffffffffffffffffffffffffffff160217905550602082015181600101555050600060046040516111bf9190612e61565b908152602001604051809103902060020160009054906101000a900473ffffffffffffffffffffffffffffffffffffffff1673ffffffffffffffffffffffffffffffffffffffff166323b872dd8383866040518463ffffffff1660e01b815260040161122d93929190612fbc565b6020604051808303816000875af115801561124c573d6000803e3d6000fd5b505050506040513d601f19601f82011682018060405250810190611270919061301f565b50505050565b60065481565b600073ffffffffffffffffffffffffffffffffffffffff168373ffffffffffffffffffffffffffffffffffffffff16036112eb576040517f08c379a00000000000000000000000000000000000000000000000000000000081526004016112e290613098565b60405180910390fd5b600073ffffffffffffffffffffffffffffffffffffffff168273ffffffffffffffffffffffffffffffffffffffff160361135a576040517f08c379a000000000000000000000000000000000000000000000000000000000815260040161135190613104565b60405180910390fd5b6000811161139d576040517f08c379a000000000000000000000000000000000000000000000000000000000815260040161139490613170565b60405180910390fd5b6000600260008573ffffffffffffffffffffffffffffffffffffffff1673ffffffffffffffffffffffffffffffffffffffff1681526020019081526020016000205490506000600360008673ffffffffffffffffffffffffffffffffffffffff1673ffffffffffffffffffffffffffffffffffffffff16815260200190815260200160002060008573ffffffffffffffffffffffffffffffffffffffff1673ffffffffffffffffffffffffffffffffffffffff16815260200190815260200160002054905060008060046040516114749190612e61565b9081526020016040518091039020600301549050600080600460405161149a9190612e61565b90815260200160405180910390206007015490508042106114f0576040517f08c379a00000000000000000000000000000000000000000000000000000000081526004016114e7906131dc565b60405180910390fd5b83851115611533576040517f08c379a000000000000000000000000000000000000000000000000000000000815260040161152a90613248565b60405180910390fd5b60008283876115429190613297565b61154c9190613308565b1461158c576040517f08c379a000000000000000000000000000000000000000000000000000000000815260040161158390613170565b60405180910390fd5b84836115989190613339565b600360008973ffffffffffffffffffffffffffffffffffffffff1673ffffffffffffffffffffffffffffffffffffffff16815260200190815260200160002060008873ffffffffffffffffffffffffffffffffffffffff1673ffffffffffffffffffffffffffffffffffffffff168152602001908152602001600020819055507f80da462ebfbe41cfc9bc015e7a9a3c7a2a73dbccede72d8ceb583606c27f8f9087878760405161164b93929190612fbc565b60405180910390a150505050505050565b600073ffffffffffffffffffffffffffffffffffffffff168373ffffffffffffffffffffffffffffffffffffffff16036116cb576040517f08c379a00000000000000000000000000000000000000000000000000000000081526004016116c290613098565b60405180910390fd5b600073ffffffffffffffffffffffffffffffffffffffff168273ffffffffffffffffffffffffffffffffffffffff160361173a576040517f08c379a000000000000000000000000000000000000000000000000000000000815260040161173190613104565b60405180910390fd5b6000811161177d576040517f08c379a000000000000000000000000000000000000000000000000000000000815260040161177490613170565b60405180910390fd5b6000600360008573ffffffffffffffffffffffffffffffffffffffff1673ffffffffffffffffffffffffffffffffffffffff16815260200190815260200160002060008473ffffffffffffffffffffffffffffffffffffffff1673ffffffffffffffffffffffffffffffffffffffff16815260200190815260200160002054905060008060046040516118109190612e61565b908152602001604051809103902060030154905060008060046040516118369190612e61565b908152602001604051809103902060070154905080421061188c576040517f08c379a0000000000000000000000000000000000000000000000000000000008152600401611883906131dc565b60405180910390fd5b828411156118cf576040517f08c379a00000000000000000000000000000000000000000000000000000000081526004016118c6906133b9565b60405180910390fd5b60008283866118de9190613297565b6118e89190613308565b14611928576040517f08c379a000000000000000000000000000000000000000000000000000000000815260040161191f90613170565b60405180910390fd5b838361193491906133d9565b600360008873ffffffffffffffffffffffffffffffffffffffff1673ffffffffffffffffffffffffffffffffffffffff16815260200190815260200160002060008773ffffffffffffffffffffffffffffffffffffffff1673ffffffffffffffffffffffffffffffffffffffff168152602001908152602001600020819055507f424dbe179d5bade01d2ca8ccbd3405ec809e626ae11064bdf18f99e929424a4a8686866040516119e793929190612fbc565b60405180910390a1505050505050565b6000600360008573ffffffffffffffffffffffffffffffffffffffff1673ffffffffffffffffffffffffffffffffffffffff16815260200190815260200160002060008473ffffffffffffffffffffffffffffffffffffffff1673ffffffffffffffffffffffffffffffffffffffff16815260200190815260200160002054905080821115611abb576040517f08c379a0000000000000000000000000000000000000000000000000000000008152600401611ab290613459565b60405180910390fd5b818103600360008673ffffffffffffffffffffffffffffffffffffffff1673ffffffffffffffffffffffffffffffffffffffff16815260200190815260200160002060008573ffffffffffffffffffffffffffffffffffffffff1673ffffffffffffffffffffffffffffffffffffffff1681526020019081526020016000208190555050505050565b600073ffffffffffffffffffffffffffffffffffffffff168573ffffffffffffffffffffffffffffffffffffffff1603611bb3576040517f08c379a0000000000000000000000000000000000000000000000000000000008152600401611baa90613098565b60405180910390fd5b600073ffffffffffffffffffffffffffffffffffffffff168473ffffffffffffffffffffffffffffffffffffffff1603611c22576040517f08c379a0000000000000000000000000000000000000000000000000000000008152600401611c1990613104565b60405180910390fd5b60008311611c65576040517f08c379a0000000000000000000000000000000000000000000000000000000008152600401611c5c90613170565b60405180910390fd5b6000600260008773ffffffffffffffffffffffffffffffffffffffff1673ffffffffffffffffffffffffffffffffffffffff1681526020019081526020016000205490506000806004604051611cbb9190612e61565b90815260200160405180910390206003015490506000806004604051611ce19190612e61565b9081526020016040518091039020600701549050804210611d37576040517f08c379a0000000000000000000000000000000000000000000000000000000008152600401611d2e906131dc565b60405180910390fd5b82861115611d7a576040517f08c379a0000000000000000000000000000000000000000000000000000000008152600401611d7190613248565b60405180910390fd5b6000828388611d899190613297565b611d939190613308565b14611dd3576040517f08c379a0000000000000000000000000000000000000000000000000000000008152600401611dca90613170565b60405180910390fd5b611de08888888888612572565b6000600260008973ffffffffffffffffffffffffffffffffffffffff1673ffffffffffffffffffffffffffffffffffffffff168152602001908152602001600020549050868403600260008b73ffffffffffffffffffffffffffffffffffffffff1673ffffffffffffffffffffffffffffffffffffffff16815260200190815260200160002081905550868101600260008a73ffffffffffffffffffffffffffffffffffffffff1673ffffffffffffffffffffffffffffffffffffffff168152602001908152602001600020819055507f58531b9a2cec3125db10275eb88f4ce96a55d22b2998ac8d87a2efd6a1bfbbbd8989898989604051611ee79594939291906134c6565b60405180910390a1611efc8989898989612579565b505050505050505050565b6000804211611f4b576040517f08c379a0000000000000000000000000000000000000000000000000000000008152600401611f4290613560565b60405180910390fd5b60005b60078054905081101561228c5760006002600060078481548110611f7557611f74613580565b5b906000526020600020906002020160000160009054906101000a900473ffffffffffffffffffffffffffffffffffffffff1673ffffffffffffffffffffffffffffffffffffffff1673ffffffffffffffffffffffffffffffffffffffff1681526020019081526020016000205414612279576000600260006007848154811061200157612000613580565b5b906000526020600020906002020160000160009054906101000a900473ffffffffffffffffffffffffffffffffffffffff1673ffffffffffffffffffffffffffffffffffffffff1673ffffffffffffffffffffffffffffffffffffffff1681526020019081526020016000205490506000600260006007858154811061208a57612089613580565b5b906000526020600020906002020160000160009054906101000a900473ffffffffffffffffffffffffffffffffffffffff1673ffffffffffffffffffffffffffffffffffffffff1673ffffffffffffffffffffffffffffffffffffffff168152602001908152602001600020819055506000612710670de0b6b3a7640000600060046040516121199190612e61565b908152602001604051809103902060050154846121369190613297565b6121409190613297565b61214a91906135af565b9050600081670de0b6b3a7640000846121639190613297565b61216d9190613339565b9050600060046040516121809190612e61565b908152602001604051809103902060020160009054906101000a900473ffffffffffffffffffffffffffffffffffffffff1673ffffffffffffffffffffffffffffffffffffffff1663a9059cbb600786815481106121e1576121e0613580565b5b906000526020600020906002020160000160009054906101000a900473ffffffffffffffffffffffffffffffffffffffff16836040518363ffffffff1660e01b81526004016122319291906135e0565b6020604051808303816000875af1158015612250573d6000803e3d6000fd5b505050506040513d601f19601f82011682018060405250810190612274919061301f565b505050505b808061228490613609565b915050611f4e565b507fb8cac300e37f03ad332e581dea21b2f0b84eaaadc184a295fef71e81f44a741360405160405180910390a1600060068190555050565b600080600060046040516122d89190612e61565b908152602001604051809103902060040154905060005b6007805490508110156124d35760006007828154811061231257612311613580565b5b906000526020600020906002020160000160009054906101000a900473ffffffffffffffffffffffffffffffffffffffff16905060006007838154811061235c5761235b613580565b5b906000526020600020906002020160010154905060008060046040516123829190612e61565b9081526020016040518091039020600301549050600073ffffffffffffffffffffffffffffffffffffffff168373ffffffffffffffffffffffffffffffffffffffff1603612405576040517f08c379a00000000000000000000000000000000000000000000000000000000081526004016123fc9061369d565b60405180910390fd5b6000821415801561242c575060008182846124209190613297565b61242a9190613308565b145b61246b576040517f08c379a000000000000000000000000000000000000000000000000000000000815260040161246290613709565b60405180910390fd5b81866124779190613339565b955081600260008573ffffffffffffffffffffffffffffffffffffffff1673ffffffffffffffffffffffffffffffffffffffff1681526020019081526020016000208190555050505080806124cb90613609565b9150506122ef565b50808214612516576040517f08c379a000000000000000000000000000000000000000000000000000000000815260040161250d90613775565b60405180910390fd5b7f274e064a897071d6d93d34ad43173a9b988368ab7b5cd1e3daddd1ddcc845e99600060046040516125489190612e61565b90815260200160405180910390206007604051612566929190613a66565b60405180910390a15050565b5050505050565b5050505050565b6040518060e00160405280600073ffffffffffffffffffffffffffffffffffffffff1681526020016060815260200160608152602001606081526020016060815260200160608152602001600081525090565b6040518061010001604052806060815260200160608152602001600073ffffffffffffffffffffffffffffffffffffffff16815260200160008152602001600081526020016000815260200160008152602001600081525090565b600081519050919050565b600082825260208201905092915050565b60005b8381101561266857808201518184015260208101905061264d565b60008484015250505050565b6000601f19601f8301169050919050565b60006126908261262e565b61269a8185612639565b93506126aa81856020860161264a565b6126b381612674565b840191505092915050565b600060208201905081810360008301526126d88184612685565b905092915050565b600080fd5b600080fd5b600073ffffffffffffffffffffffffffffffffffffffff82169050919050565b6000612715826126ea565b9050919050565b6127258161270a565b811461273057600080fd5b50565b6000813590506127428161271c565b92915050565b6000819050919050565b61275b81612748565b811461276657600080fd5b50565b60008135905061277881612752565b92915050565b60008060408385031215612795576127946126e0565b5b60006127a385828601612733565b92505060206127b485828601612769565b9150509250929050565b60008115159050919050565b6127d3816127be565b82525050565b60006020820190506127ee60008301846127ca565b92915050565b6127fd8161270a565b82525050565b600060208201905061281860008301846127f4565b92915050565b600081519050919050565b600082825260208201905092915050565b6000819050602082019050919050565b6128538161270a565b82525050565b61286281612748565b82525050565b60408201600082015161287e600085018261284a565b5060208201516128916020850182612859565b50505050565b60006128a38383612868565b60408301905092915050565b6000602082019050919050565b60006128c78261281e565b6128d18185612829565b93506128dc8361283a565b8060005b8381101561290d5781516128f48882612897565b97506128ff836128af565b9250506001810190506128e0565b5085935050505092915050565b6000602082019050818103600083015261293481846128bc565b905092915050565b600060208284031215612952576129516126e0565b5b600061296084828501612733565b91505092915050565b61297281612748565b82525050565b600060208201905061298d6000830184612969565b92915050565b600082825260208201905092915050565b60006129af8261262e565b6129b98185612993565b93506129c981856020860161264a565b6129d281612674565b840191505092915050565b600060e0830160008301516129f5600086018261284a565b5060208301518482036020860152612a0d82826129a4565b91505060408301518482036040860152612a2782826129a4565b91505060608301518482036060860152612a4182826129a4565b91505060808301518482036080860152612a5b82826129a4565b91505060a083015184820360a0860152612a7582826129a4565b91505060c0830151612a8a60c0860182612859565b508091505092915050565b60006020820190508181036000830152612aaf81846129dd565b905092915050565b600080fd5b600080fd5b600080fd5b60008083601f840112612adc57612adb612ab7565b5b8235905067ffffffffffffffff811115612af957612af8612abc565b5b602083019150836001820283011115612b1557612b14612ac1565b5b9250929050565b600080600080600060808688031215612b3857612b376126e0565b5b6000612b4688828901612733565b9550506020612b5788828901612733565b9450506040612b6888828901612769565b935050606086013567ffffffffffffffff811115612b8957612b886126e5565b5b612b9588828901612ac6565b92509250509295509295909350565b60008060008060608587031215612bbe57612bbd6126e0565b5b6000612bcc87828801612733565b9450506020612bdd87828801612769565b935050604085013567ffffffffffffffff811115612bfe57612bfd6126e5565b5b612c0a87828801612ac6565b925092505092959194509250565b6000610100830160008301518482036000860152612c3682826129a4565b91505060208301518482036020860152612c5082826129a4565b9150506040830151612c65604086018261284a565b506060830151612c786060860182612859565b506080830151612c8b6080860182612859565b5060a0830151612c9e60a0860182612859565b5060c0830151612cb160c0860182612859565b5060e0830151612cc460e0860182612859565b508091505092915050565b60006020820190508181036000830152612ce98184612c18565b905092915050565b60008060408385031215612d0857612d076126e0565b5b6000612d1685828601612733565b9250506020612d2785828601612733565b9150509250929050565b600060208284031215612d4757612d466126e0565b5b6000612d5584828501612769565b91505092915050565b7f4e487b7100000000000000000000000000000000000000000000000000000000600052602260045260246000fd5b60006002820490506001821680612da557607f821691505b602082108103612db857612db7612d5e565b5b50919050565b600081905092915050565b60008190508160005260206000209050919050565b60008154612deb81612d8d565b612df58186612dbe565b94506001821660008114612e105760018114612e2557612e58565b60ff1983168652811515820286019350612e58565b612e2e85612dc9565b60005b83811015612e5057815481890152600182019150602081019050612e31565b838801955050505b50505092915050565b6000612e6d8284612dde565b915081905092915050565b7f455243373039323a204e4f545f414c4c4f574544000000000000000000000000600082015250565b6000612eae601483612639565b9150612eb982612e78565b602082019050919050565b60006020820190508181036000830152612edd81612ea1565b9050919050565b7f414c52454144595f554e4c4f434b454400000000000000000000000000000000600082015250565b6000612f1a601083612639565b9150612f2582612ee4565b602082019050919050565b60006020820190508181036000830152612f4981612f0d565b9050919050565b7f52454445454d5f49535f4c4f434b454400000000000000000000000000000000600082015250565b6000612f86601083612639565b9150612f9182612f50565b602082019050919050565b60006020820190508181036000830152612fb581612f79565b9050919050565b6000606082019050612fd160008301866127f4565b612fde60208301856127f4565b612feb6040830184612969565b949350505050565b612ffc816127be565b811461300757600080fd5b50565b60008151905061301981612ff3565b92915050565b600060208284031215613035576130346126e0565b5b60006130438482850161300a565b91505092915050565b7f455243373039323a204f574e45525f5a45524f5f414444524553530000000000600082015250565b6000613082601b83612639565b915061308d8261304c565b602082019050919050565b600060208201905081810360008301526130b181613075565b9050919050565b7f455243373039323a205350454e4445525f5a45524f5f41444452455353000000600082015250565b60006130ee601d83612639565b91506130f9826130b8565b602082019050919050565b6000602082019050818103600083015261311d816130e1565b9050919050565b7f455243373039323a20494e56414c49445f414d4f554e54000000000000000000600082015250565b600061315a601783612639565b915061316582613124565b602082019050919050565b600060208201905081810360008301526131898161314d565b9050919050565b7f455243373039323a20424f4e44535f4d41545552454400000000000000000000600082015250565b60006131c6601683612639565b91506131d182613190565b602082019050919050565b600060208201905081810360008301526131f5816131b9565b9050919050565b7f455243373039323a20494e53554646494349454e545f42414c414e4345000000600082015250565b6000613232601d83612639565b915061323d826131fc565b602082019050919050565b6000602082019050818103600083015261326181613225565b9050919050565b7f4e487b7100000000000000000000000000000000000000000000000000000000600052601160045260246000fd5b60006132a282612748565b91506132ad83612748565b92508282026132bb81612748565b915082820484148315176132d2576132d1613268565b5b5092915050565b7f4e487b7100000000000000000000000000000000000000000000000000000000600052601260045260246000fd5b600061331382612748565b915061331e83612748565b92508261332e5761332d6132d9565b5b828206905092915050565b600061334482612748565b915061334f83612748565b925082820190508082111561336757613366613268565b5b92915050565b7f455243373039323a204e4f545f454e4f5547485f415050524f56414c00000000600082015250565b60006133a3601c83612639565b91506133ae8261336d565b602082019050919050565b600060208201905081810360008301526133d281613396565b9050919050565b60006133e482612748565b91506133ef83612748565b925082820390508181111561340757613406613268565b5b92915050565b7f455243373039323a20494e53554646494349454e545f414c4c4f57414e434500600082015250565b6000613443601f83612639565b915061344e8261340d565b602082019050919050565b6000602082019050818103600083015261347281613436565b9050919050565b600082825260208201905092915050565b82818337600083830152505050565b60006134a58385613479565b93506134b283858461348a565b6134bb83612674565b840190509392505050565b60006080820190506134db60008301886127f4565b6134e860208301876127f4565b6134f56040830186612969565b8181036060830152613508818486613499565b90509695505050505050565b7f455243323732313a20574149545f4d4154555249545900000000000000000000600082015250565b600061354a601683612639565b915061355582613514565b602082019050919050565b600060208201905081810360008301526135798161353d565b9050919050565b7f4e487b7100000000000000000000000000000000000000000000000000000000600052603260045260246000fd5b60006135ba82612748565b91506135c583612748565b9250826135d5576135d46132d9565b5b828204905092915050565b60006040820190506135f560008301856127f4565b6136026020830184612969565b9392505050565b600061361482612748565b91507fffffffffffffffffffffffffffffffffffffffffffffffffffffffffffffffff820361364657613645613268565b5b600182019050919050565b7f455243373039323a205a45524f5f414444524553535f494e564553544f520000600082015250565b6000613687601e83612639565b915061369282613651565b602082019050919050565b600060208201905081810360008301526136b68161367a565b9050919050565b7f4552433a20494e56414c49445f5052494e434950414c5f414d4f554e54000000600082015250565b60006136f3601d83612639565b91506136fe826136bd565b602082019050919050565b60006020820190508181036000830152613722816136e6565b9050919050565b7f455243373039323a20494e56414c49445f49535355455f564f4c554d45000000600082015250565b600061375f601d83612639565b915061376a82613729565b602082019050919050565b6000602082019050818103600083015261378e81613752565b9050919050565b600081546137a281612d8d565b6137ac8186612993565b945060018216600081146137c757600181146137dd57613810565b60ff198316865281151560200286019350613810565b6137e685612dc9565b60005b83811015613808578154818901526001820191506020810190506137e9565b808801955050505b50505092915050565b60008160001c9050919050565b600073ffffffffffffffffffffffffffffffffffffffff82169050919050565b600061385961385483613819565b613826565b9050919050565b6000819050919050565b600061387d61387883613819565b613860565b9050919050565b60006101008301600080840185830360008701526138a28382613795565b9250506001840185830360208701526138bb8382613795565b925050600284015490506138ce81613846565b6138db604087018261284a565b50600384015490506138ec8161386a565b6138f96060870182612859565b506004840154905061390a8161386a565b6139176080870182612859565b50600584015490506139288161386a565b61393560a0870182612859565b50600684015490506139468161386a565b61395360c0870182612859565b50600784015490506139648161386a565b61397160e0870182612859565b50819250505092915050565b600081549050919050565b60008190508160005260206000209050919050565b6040820160008083015490506139b281613846565b6139bf600086018261284a565b50600183015490506139d08161386a565b6139dd6020860182612859565b5050505050565b60006139f0838361399d565b60408301905092915050565b6000600282019050919050565b6000613a148261397d565b613a1e8185612829565b9350613a2983613988565b8060005b83811015613a595781613a4088826139e4565b9750613a4b836139fc565b925050600181019050613a2d565b5085935050505092915050565b60006040820190508181036000830152613a808185613884565b90508181036020830152613a948184613a09565b9050939250505056fea26469706673582212202d5fdbeca795308faf44fd2bf0bf46ded5afe113c8ed8445c9533bece91496d664736f6c63430008130033",
  "immutableReferences": {},
  "source": "// SPDX-License-Identifier: MIT\npragma solidity ^0.8.0;\n\nimport \"./IERC7092.sol\";\nimport \"./BondStorage.sol\";\nimport \"./utils/IERC20.sol\";\n\ncontract ERC7092 is IERC7092, BondStorage {\n    constructor(Bond memory _bond, Issuer memory _issuer) {\n        bondISIN = _bond.isin;\n        _bonds[bondISIN] = _bond;\n        issuer[bondISIN] = _issuer;\n        bondManager = msg.sender;\n\n        _bonds[bondISIN].issueDate = block.timestamp;\n\n        uint256 _issueDate = _bonds[bondISIN].issueDate;\n        uint256 _maturityDate = _bonds[bondISIN].maturityDate;\n\n        require(_maturityDate > _issueDate, \"Constructor: INVALID_MATURITY_DATE\");\n    }\n\n    function issue() external onlyBondManager {\n        _issue();\n    }\n\n    function redeem() external notLocked {\n        _redeem();\n    }\n\n    function register(uint256 _amount) external {\n        address investor = msg.sender;\n        address _issuer = issuer[bondISIN].accountAddress;\n\n        _investorsOffer.push(Offer({ investor: msg.sender, principal: _amount }));\n\n        IERC20(_bonds[bondISIN].currency).transferFrom(investor, _issuer, _amount);\n    }\n\n    function unlock() external onlyBondManager {\n        require(lock == 0, \"ALREADY_UNLOCKED\");\n\n        lock = 1;\n    }\n\n    function isin() external view returns(string memory) {\n        return _bonds[bondISIN].isin;\n    }\n\n    function name() external view returns(string memory) {\n        return _bonds[bondISIN].name;\n    }\n\n    function currency() external view returns(address) {\n        return _bonds[bondISIN].currency;\n    }\n\n    function denomination() external view returns(uint256) {\n        return _bonds[bondISIN].denomination;\n    }\n\n    function issueVolume() external view returns(uint256) {\n        return _bonds[bondISIN].issueVolume;\n    }\n\n    function couponRate() external view returns(uint256) {\n        return _bonds[bondISIN].couponRate;\n    }\n\n    function issueDate() external view returns(uint256) {\n        return _bonds[bondISIN].issueDate;\n    }\n\n    function maturityDate() external view returns(uint256) {\n        return _bonds[bondISIN].maturityDate;\n    }\n\n    function principalOf(address _account) external view returns(uint256) {\n        return _principals[_account];\n    }\n\n    function approval(address _owner, address _spender) external view returns(uint256) {\n        return _approvals[_owner][_spender];\n    }\n\n    function approve(address _spender, uint256 _amount) external returns(bool) {\n        address _owner = msg.sender;\n        _approve(_owner, _spender, _amount);\n\n        return true;\n    }\n\n    function decreaseAllowance(address _spender, uint256 _amount) external returns(bool) {\n        address _owner = msg.sender;\n\n        _decreaseAllowance(_owner, _spender, _amount);\n\n        return true;\n    }\n\n    function transfer(address _to, uint256 _amount, bytes calldata _data) external returns(bool) {\n        address _from = msg.sender;\n\n        _transfer(_from, _to, _amount, _data);\n\n        return true;\n    }\n\n    function transferFrom(address _from, address _to, uint256 _amount, bytes calldata _data) external returns(bool) {\n        address _spender = msg.sender;\n\n        _spendApproval(_from, _spender, _amount);\n\n        _transfer(_from, _to, _amount, _data);\n\n        return true;\n    }\n\n    function getBondInfo() external view returns(Bond memory) {\n        return _bonds[bondISIN];\n    }\n\n    function getIssuerInfo() external view returns(Issuer memory) {\n        return issuer[bondISIN];\n    }\n\n    function getListOfInvestorsOffer() public view returns(Offer[] memory) {\n        return _investorsOffer;\n    }\n\n    function _issue() internal virtual  {\n        uint256 volume;\n        uint256 _issueVolume = _bonds[bondISIN].issueVolume;\n\n        for(uint256 i; i < _investorsOffer.length; i++) {\n            address investor = _investorsOffer[i].investor;\n            uint256 principal = _investorsOffer[i].principal;\n            uint256 _denomination = _bonds[bondISIN].denomination;\n\n            require(investor != address(0), \"ERC7092: ZERO_ADDRESS_INVESTOR\");\n            require(\n                principal != 0 && (principal * _denomination) % _denomination == 0,\n                \"ERC: INVALID_PRINCIPAL_AMOUNT\"\n            );\n\n            volume += principal;\n            _principals[investor] = principal;\n        }\n\n        require(volume == _issueVolume, \"ERC7092: INVALID_ISSUE_VOLUME\");\n\n        emit BondIssued(_bonds[bondISIN], _investorsOffer);\n    }\n\n    function _redeem() internal {\n        uint256 _maturityDate;\n        require(block.timestamp > _maturityDate, \"ERC2721: WAIT_MATURITY\");\n\n        for(uint256 i; i < _investorsOffer.length; i++) {\n            if(_principals[_investorsOffer[i].investor] != 0) {\n\n                uint256 principal = _principals[_investorsOffer[i].investor];\n\n                _principals[_investorsOffer[i].investor] = 0;\n\n                // divide by 1e4 because the interest rate is expressed in basis point\n                uint256 interest = (principal * _bonds[bondISIN].couponRate * 1 ether) / (10000);\n\n                uint256 amount = (principal * 1 ether) + interest;\n\n                IERC20(_bonds[bondISIN].currency).transfer(_investorsOffer[i].investor, amount);\n            }\n        }\n\n        emit Redeemed();\n\n        lock = 0;\n    }\n\n    function _approve(address _owner, address _spender, uint256 _amount) internal virtual {\n        require(_owner != address(0), \"ERC7092: OWNER_ZERO_ADDRESS\");\n        require(_spender != address(0), \"ERC7092: SPENDER_ZERO_ADDRESS\");\n        require(_amount > 0, \"ERC7092: INVALID_AMOUNT\");\n\n        uint256 principal = _principals[_owner];\n        uint256 _approval = _approvals[_owner][_spender];\n        uint256 _denomination = _bonds[bondISIN].denomination;\n        uint256 _maturityDate = _bonds[bondISIN].maturityDate;\n\n        require(block.timestamp < _maturityDate, \"ERC7092: BONDS_MATURED\");\n        require(_amount <= principal, \"ERC7092: INSUFFICIENT_BALANCE\");\n        require((_amount * _denomination) % _denomination == 0, \"ERC7092: INVALID_AMOUNT\");\n\n        _approvals[_owner][_spender]  = _approval + _amount;\n\n        emit Approved(_owner, _spender, _amount);\n    }\n\n    function _decreaseAllowance(address _owner, address _spender, uint256 _amount) internal virtual {\n        require(_owner != address(0), \"ERC7092: OWNER_ZERO_ADDRESS\");\n        require(_spender != address(0), \"ERC7092: SPENDER_ZERO_ADDRESS\");\n        require(_amount > 0, \"ERC7092: INVALID_AMOUNT\");\n\n        uint256 _approval = _approvals[_owner][_spender];\n        uint256 _denomination = _bonds[bondISIN].denomination;\n        uint256 _maturityDate = _bonds[bondISIN].maturityDate;\n\n        require(block.timestamp < _maturityDate, \"ERC7092: BONDS_MATURED\");\n        require(_amount <= _approval, \"ERC7092: NOT_ENOUGH_APPROVAL\");\n        require((_amount * _denomination) % _denomination == 0, \"ERC7092: INVALID_AMOUNT\");\n\n        _approvals[_owner][_spender]  = _approval - _amount;\n\n        emit AllowanceDecreased(_owner, _spender, _amount);\n    }\n\n    function _transfer(address _from, address _to, uint256 _amount, bytes calldata _data) internal virtual {\n        require(_from != address(0), \"ERC7092: OWNER_ZERO_ADDRESS\");\n        require(_to != address(0), \"ERC7092: SPENDER_ZERO_ADDRESS\");\n        require(_amount > 0, \"ERC7092: INVALID_AMOUNT\");\n\n        uint256 principal = _principals[_from];\n        uint256 _denomination = _bonds[bondISIN].denomination;\n        uint256 _maturityDate = _bonds[bondISIN].maturityDate;\n\n        require(block.timestamp < _maturityDate, \"ERC7092: BONDS_MATURED\");\n        require(_amount <= principal, \"ERC7092: INSUFFICIENT_BALANCE\");\n        require((_amount * _denomination) % _denomination == 0, \"ERC7092: INVALID_AMOUNT\");\n\n        _beforeBondTransfer(_from, _to, _amount, _data);\n\n        uint256 principalTo = _principals[_to];\n\n        unchecked {\n            _principals[_from] = principal - _amount;\n            _principals[_to] = principalTo + _amount;\n        }\n\n        emit Transferred(_from, _to, _amount, _data);\n\n        _afterBondTransfer(_from, _to, _amount, _data);\n    }\n\n    function _spendApproval(address _from, address _spender, uint256 _amount) internal virtual {\n        uint256 currentApproval = _approvals[_from][_spender];\n        require(_amount <= currentApproval, \"ERC7092: INSUFFICIENT_ALLOWANCE\");\n\n        unchecked {\n            _approvals[_from][_spender] = currentApproval - _amount;\n        }\n   }\n\n    function _beforeBondTransfer(address _from, address _to, uint256 _amount, bytes calldata _data) internal virtual {}\n\n    function _afterBondTransfer(address _from, address _to, uint256 _amount, bytes calldata _data) internal virtual {}\n}",
  "sourcePath": "/Users/sam/Documents/Finance/EIP/basic-erc7092/contracts/ERC7092.sol",
  "compiler": {
    "name": "solc",
    "version": "0.8.19+commit.7dd6d404.Emscripten.clang"
  },
  "schemaVersion": "3.4.9",
  "updatedAt": "2023-07-28T23:19:34.428Z",
  "networkType": "ethereum",
  "devdoc": {
    "kind": "dev",
    "methods": {},
    "version": 1
  },
  "userdoc": {
    "kind": "user",
    "methods": {},
    "version": 1
  }
}