{
  "contractName": "ERC7092",
  "abi": [
    {
      "inputs": [
        {
          "components": [
            {
              "internalType": "string",
              "name": "isin",
              "type": "string"
            },
            {
              "internalType": "string",
              "name": "name",
              "type": "string"
            },
            {
              "internalType": "string",
              "name": "symbol",
              "type": "string"
            },
            {
              "internalType": "address",
              "name": "currency",
              "type": "address"
            },
            {
              "internalType": "uint256",
              "name": "denomination",
              "type": "uint256"
            },
            {
              "internalType": "uint256",
              "name": "issueVolume",
              "type": "uint256"
            },
            {
              "internalType": "uint256",
              "name": "couponRate",
              "type": "uint256"
            },
            {
              "internalType": "uint256",
              "name": "issueDate",
              "type": "uint256"
            },
            {
              "internalType": "uint256",
              "name": "maturityDate",
              "type": "uint256"
            }
          ],
          "internalType": "struct BondStorage.Bond",
          "name": "_bond",
          "type": "tuple"
        },
        {
          "components": [
            {
              "internalType": "address",
              "name": "accountAddress",
              "type": "address"
            },
            {
              "internalType": "string",
              "name": "name",
              "type": "string"
            },
            {
              "internalType": "string",
              "name": "country",
              "type": "string"
            },
            {
              "internalType": "string",
              "name": "email",
              "type": "string"
            },
            {
              "internalType": "string",
              "name": "category",
              "type": "string"
            },
            {
              "internalType": "string",
              "name": "creditRating",
              "type": "string"
            },
            {
              "internalType": "uint256",
              "name": "carbonCredit",
              "type": "uint256"
            }
          ],
          "internalType": "struct BondStorage.Issuer",
          "name": "_issuer",
          "type": "tuple"
        }
      ],
      "stateMutability": "nonpayable",
      "type": "constructor"
    },
    {
      "anonymous": false,
      "inputs": [
        {
          "indexed": false,
          "internalType": "address",
          "name": "_owner",
          "type": "address"
        },
        {
          "indexed": false,
          "internalType": "address",
          "name": "_spender",
          "type": "address"
        },
        {
          "indexed": false,
          "internalType": "uint256",
          "name": "_amount",
          "type": "uint256"
        }
      ],
      "name": "AllowanceDecreased",
      "type": "event"
    },
    {
      "anonymous": false,
      "inputs": [
        {
          "indexed": false,
          "internalType": "address",
          "name": "_owner",
          "type": "address"
        },
        {
          "indexed": false,
          "internalType": "address",
          "name": "_spender",
          "type": "address"
        },
        {
          "indexed": false,
          "internalType": "uint256",
          "name": "_amount",
          "type": "uint256"
        }
      ],
      "name": "Approved",
      "type": "event"
    },
    {
      "anonymous": false,
      "inputs": [
        {
          "components": [
            {
              "internalType": "string",
              "name": "isin",
              "type": "string"
            },
            {
              "internalType": "string",
              "name": "name",
              "type": "string"
            },
            {
              "internalType": "string",
              "name": "symbol",
              "type": "string"
            },
            {
              "internalType": "address",
              "name": "currency",
              "type": "address"
            },
            {
              "internalType": "uint256",
              "name": "denomination",
              "type": "uint256"
            },
            {
              "internalType": "uint256",
              "name": "issueVolume",
              "type": "uint256"
            },
            {
              "internalType": "uint256",
              "name": "couponRate",
              "type": "uint256"
            },
            {
              "internalType": "uint256",
              "name": "issueDate",
              "type": "uint256"
            },
            {
              "internalType": "uint256",
              "name": "maturityDate",
              "type": "uint256"
            }
          ],
          "indexed": false,
          "internalType": "struct BondStorage.Bond",
          "name": "_bond",
          "type": "tuple"
        },
        {
          "components": [
            {
              "internalType": "address",
              "name": "investor",
              "type": "address"
            },
            {
              "internalType": "uint256",
              "name": "principal",
              "type": "uint256"
            }
          ],
          "indexed": false,
          "internalType": "struct BondStorage.Offer[]",
          "name": "_offers",
          "type": "tuple[]"
        }
      ],
      "name": "BondIssued",
      "type": "event"
    },
    {
      "anonymous": false,
      "inputs": [],
      "name": "Redeemed",
      "type": "event"
    },
    {
      "anonymous": false,
      "inputs": [
        {
          "indexed": false,
          "internalType": "address",
          "name": "_from",
          "type": "address"
        },
        {
          "indexed": false,
          "internalType": "address",
          "name": "_to",
          "type": "address"
        },
        {
          "indexed": false,
          "internalType": "uint256",
          "name": "_amount",
          "type": "uint256"
        },
        {
          "indexed": false,
          "internalType": "bytes",
          "name": "_data",
          "type": "bytes"
        }
      ],
      "name": "Transferred",
      "type": "event"
    },
    {
      "inputs": [],
      "name": "bondISIN",
      "outputs": [
        {
          "internalType": "string",
          "name": "",
          "type": "string"
        }
      ],
      "stateMutability": "view",
      "type": "function",
      "constant": true
    },
    {
      "inputs": [],
      "name": "bondManager",
      "outputs": [
        {
          "internalType": "address",
          "name": "",
          "type": "address"
        }
      ],
      "stateMutability": "view",
      "type": "function",
      "constant": true
    },
    {
      "inputs": [],
      "name": "lock",
      "outputs": [
        {
          "internalType": "uint256",
          "name": "",
          "type": "uint256"
        }
      ],
      "stateMutability": "view",
      "type": "function",
      "constant": true
    },
    {
      "inputs": [],
      "name": "issue",
      "outputs": [],
      "stateMutability": "nonpayable",
      "type": "function"
    },
    {
      "inputs": [],
      "name": "redeem",
      "outputs": [],
      "stateMutability": "nonpayable",
      "type": "function"
    },
    {
      "inputs": [
        {
          "internalType": "address",
          "name": "_investor",
          "type": "address"
        },
        {
          "internalType": "uint256",
          "name": "_amount",
          "type": "uint256"
        }
      ],
      "name": "register",
      "outputs": [],
      "stateMutability": "nonpayable",
      "type": "function"
    },
    {
      "inputs": [],
      "name": "unlock",
      "outputs": [],
      "stateMutability": "nonpayable",
      "type": "function"
    },
    {
      "inputs": [],
      "name": "isin",
      "outputs": [
        {
          "internalType": "string",
          "name": "",
          "type": "string"
        }
      ],
      "stateMutability": "view",
      "type": "function",
      "constant": true
    },
    {
      "inputs": [],
      "name": "name",
      "outputs": [
        {
          "internalType": "string",
          "name": "",
          "type": "string"
        }
      ],
      "stateMutability": "view",
      "type": "function",
      "constant": true
    },
    {
      "inputs": [],
      "name": "symbol",
      "outputs": [
        {
          "internalType": "string",
          "name": "",
          "type": "string"
        }
      ],
      "stateMutability": "view",
      "type": "function",
      "constant": true
    },
    {
      "inputs": [],
      "name": "currency",
      "outputs": [
        {
          "internalType": "address",
          "name": "",
          "type": "address"
        }
      ],
      "stateMutability": "view",
      "type": "function",
      "constant": true
    },
    {
      "inputs": [],
      "name": "denomination",
      "outputs": [
        {
          "internalType": "uint256",
          "name": "",
          "type": "uint256"
        }
      ],
      "stateMutability": "view",
      "type": "function",
      "constant": true
    },
    {
      "inputs": [],
      "name": "issueVolume",
      "outputs": [
        {
          "internalType": "uint256",
          "name": "",
          "type": "uint256"
        }
      ],
      "stateMutability": "view",
      "type": "function",
      "constant": true
    },
    {
      "inputs": [],
      "name": "couponRate",
      "outputs": [
        {
          "internalType": "uint256",
          "name": "",
          "type": "uint256"
        }
      ],
      "stateMutability": "view",
      "type": "function",
      "constant": true
    },
    {
      "inputs": [],
      "name": "issueDate",
      "outputs": [
        {
          "internalType": "uint256",
          "name": "",
          "type": "uint256"
        }
      ],
      "stateMutability": "view",
      "type": "function",
      "constant": true
    },
    {
      "inputs": [],
      "name": "maturityDate",
      "outputs": [
        {
          "internalType": "uint256",
          "name": "",
          "type": "uint256"
        }
      ],
      "stateMutability": "view",
      "type": "function",
      "constant": true
    },
    {
      "inputs": [
        {
          "internalType": "address",
          "name": "_account",
          "type": "address"
        }
      ],
      "name": "principalOf",
      "outputs": [
        {
          "internalType": "uint256",
          "name": "",
          "type": "uint256"
        }
      ],
      "stateMutability": "view",
      "type": "function",
      "constant": true
    },
    {
      "inputs": [
        {
          "internalType": "address",
          "name": "_owner",
          "type": "address"
        },
        {
          "internalType": "address",
          "name": "_spender",
          "type": "address"
        }
      ],
      "name": "approval",
      "outputs": [
        {
          "internalType": "uint256",
          "name": "",
          "type": "uint256"
        }
      ],
      "stateMutability": "view",
      "type": "function",
      "constant": true
    },
    {
      "inputs": [
        {
          "internalType": "address",
          "name": "_spender",
          "type": "address"
        },
        {
          "internalType": "uint256",
          "name": "_amount",
          "type": "uint256"
        }
      ],
      "name": "approve",
      "outputs": [
        {
          "internalType": "bool",
          "name": "",
          "type": "bool"
        }
      ],
      "stateMutability": "nonpayable",
      "type": "function"
    },
    {
      "inputs": [
        {
          "internalType": "address",
          "name": "_spender",
          "type": "address"
        },
        {
          "internalType": "uint256",
          "name": "_amount",
          "type": "uint256"
        }
      ],
      "name": "decreaseAllowance",
      "outputs": [
        {
          "internalType": "bool",
          "name": "",
          "type": "bool"
        }
      ],
      "stateMutability": "nonpayable",
      "type": "function"
    },
    {
      "inputs": [
        {
          "internalType": "address",
          "name": "_to",
          "type": "address"
        },
        {
          "internalType": "uint256",
          "name": "_amount",
          "type": "uint256"
        },
        {
          "internalType": "bytes",
          "name": "_data",
          "type": "bytes"
        }
      ],
      "name": "transfer",
      "outputs": [
        {
          "internalType": "bool",
          "name": "",
          "type": "bool"
        }
      ],
      "stateMutability": "nonpayable",
      "type": "function"
    },
    {
      "inputs": [
        {
          "internalType": "address",
          "name": "_from",
          "type": "address"
        },
        {
          "internalType": "address",
          "name": "_to",
          "type": "address"
        },
        {
          "internalType": "uint256",
          "name": "_amount",
          "type": "uint256"
        },
        {
          "internalType": "bytes",
          "name": "_data",
          "type": "bytes"
        }
      ],
      "name": "transferFrom",
      "outputs": [
        {
          "internalType": "bool",
          "name": "",
          "type": "bool"
        }
      ],
      "stateMutability": "nonpayable",
      "type": "function"
    },
    {
      "inputs": [],
      "name": "getBondInfo",
      "outputs": [
        {
          "components": [
            {
              "internalType": "string",
              "name": "isin",
              "type": "string"
            },
            {
              "internalType": "string",
              "name": "name",
              "type": "string"
            },
            {
              "internalType": "string",
              "name": "symbol",
              "type": "string"
            },
            {
              "internalType": "address",
              "name": "currency",
              "type": "address"
            },
            {
              "internalType": "uint256",
              "name": "denomination",
              "type": "uint256"
            },
            {
              "internalType": "uint256",
              "name": "issueVolume",
              "type": "uint256"
            },
            {
              "internalType": "uint256",
              "name": "couponRate",
              "type": "uint256"
            },
            {
              "internalType": "uint256",
              "name": "issueDate",
              "type": "uint256"
            },
            {
              "internalType": "uint256",
              "name": "maturityDate",
              "type": "uint256"
            }
          ],
          "internalType": "struct BondStorage.Bond",
          "name": "",
          "type": "tuple"
        }
      ],
      "stateMutability": "view",
      "type": "function",
      "constant": true
    },
    {
      "inputs": [],
      "name": "getIssuerInfo",
      "outputs": [
        {
          "components": [
            {
              "internalType": "address",
              "name": "accountAddress",
              "type": "address"
            },
            {
              "internalType": "string",
              "name": "name",
              "type": "string"
            },
            {
              "internalType": "string",
              "name": "country",
              "type": "string"
            },
            {
              "internalType": "string",
              "name": "email",
              "type": "string"
            },
            {
              "internalType": "string",
              "name": "category",
              "type": "string"
            },
            {
              "internalType": "string",
              "name": "creditRating",
              "type": "string"
            },
            {
              "internalType": "uint256",
              "name": "carbonCredit",
              "type": "uint256"
            }
          ],
          "internalType": "struct BondStorage.Issuer",
          "name": "",
          "type": "tuple"
        }
      ],
      "stateMutability": "view",
      "type": "function",
      "constant": true
    },
    {
      "inputs": [],
      "name": "getListOfInvestorsOffer",
      "outputs": [
        {
          "components": [
            {
              "internalType": "address",
              "name": "investor",
              "type": "address"
            },
            {
              "internalType": "uint256",
              "name": "principal",
              "type": "uint256"
            }
          ],
          "internalType": "struct BondStorage.Offer[]",
          "name": "",
          "type": "tuple[]"
        }
      ],
      "stateMutability": "view",
      "type": "function",
      "constant": true
    }
  ],
  "bytecode": "0x60806040523480156200001157600080fd5b5060405162004a2238038062004a2283398181016040528101906200003791906200081e565b8160000151600490816200004c919062000ae4565b50816000600460405162000061919062000c65565b9081526020016040518091039020600082015181600001908162000086919062000ae4565b5060208201518160010190816200009e919062000ae4565b506040820151816002019081620000b6919062000ae4565b5060608201518160030160006101000a81548173ffffffffffffffffffffffffffffffffffffffff021916908373ffffffffffffffffffffffffffffffffffffffff1602179055506080820151816004015560a0820151816005015560c0820151816006015560e082015181600701556101008201518160080155905050806001600460405162000148919062000c65565b908152602001604051809103902060008201518160000160006101000a81548173ffffffffffffffffffffffffffffffffffffffff021916908373ffffffffffffffffffffffffffffffffffffffff1602179055506020820151816001019081620001b4919062000ae4565b506040820151816002019081620001cc919062000ae4565b506060820151816003019081620001e4919062000ae4565b506080820151816004019081620001fc919062000ae4565b5060a082015181600501908162000214919062000ae4565b5060c0820151816006015590505033600560006101000a81548173ffffffffffffffffffffffffffffffffffffffff021916908373ffffffffffffffffffffffffffffffffffffffff160217905550426000600460405162000277919062000c65565b9081526020016040518091039020600701819055506000806004604051620002a0919062000c65565b90815260200160405180910390206007015490506000806004604051620002c8919062000c65565b908152602001604051809103902060080154905081811162000321576040517f08c379a0000000000000000000000000000000000000000000000000000000008152600401620003189062000d05565b60405180910390fd5b5050505062000d27565b6000604051905090565b600080fd5b600080fd5b600080fd5b6000601f19601f8301169050919050565b7f4e487b7100000000000000000000000000000000000000000000000000000000600052604160045260246000fd5b6200038f8262000344565b810181811067ffffffffffffffff82111715620003b157620003b062000355565b5b80604052505050565b6000620003c66200032b565b9050620003d4828262000384565b919050565b600080fd5b600080fd5b600080fd5b600067ffffffffffffffff82111562000406576200040562000355565b5b620004118262000344565b9050602081019050919050565b60005b838110156200043e57808201518184015260208101905062000421565b60008484015250505050565b6000620004616200045b84620003e8565b620003ba565b90508281526020810184848401111562000480576200047f620003e3565b5b6200048d8482856200041e565b509392505050565b600082601f830112620004ad57620004ac620003de565b5b8151620004bf8482602086016200044a565b91505092915050565b600073ffffffffffffffffffffffffffffffffffffffff82169050919050565b6000620004f582620004c8565b9050919050565b6200050781620004e8565b81146200051357600080fd5b50565b6000815190506200052781620004fc565b92915050565b6000819050919050565b62000542816200052d565b81146200054e57600080fd5b50565b600081519050620005628162000537565b92915050565b600061012082840312156200058257620005816200033f565b5b6200058f610120620003ba565b9050600082015167ffffffffffffffff811115620005b257620005b1620003d9565b5b620005c08482850162000495565b600083015250602082015167ffffffffffffffff811115620005e757620005e6620003d9565b5b620005f58482850162000495565b602083015250604082015167ffffffffffffffff8111156200061c576200061b620003d9565b5b6200062a8482850162000495565b6040830152506060620006408482850162000516565b6060830152506080620006568482850162000551565b60808301525060a06200066c8482850162000551565b60a08301525060c0620006828482850162000551565b60c08301525060e0620006988482850162000551565b60e083015250610100620006af8482850162000551565b6101008301525092915050565b600060e08284031215620006d557620006d46200033f565b5b620006e160e0620003ba565b90506000620006f38482850162000516565b600083015250602082015167ffffffffffffffff8111156200071a5762000719620003d9565b5b620007288482850162000495565b602083015250604082015167ffffffffffffffff8111156200074f576200074e620003d9565b5b6200075d8482850162000495565b604083015250606082015167ffffffffffffffff811115620007845762000783620003d9565b5b620007928482850162000495565b606083015250608082015167ffffffffffffffff811115620007b957620007b8620003d9565b5b620007c78482850162000495565b60808301525060a082015167ffffffffffffffff811115620007ee57620007ed620003d9565b5b620007fc8482850162000495565b60a08301525060c0620008128482850162000551565b60c08301525092915050565b6000806040838503121562000838576200083762000335565b5b600083015167ffffffffffffffff8111156200085957620008586200033a565b5b620008678582860162000568565b925050602083015167ffffffffffffffff8111156200088b576200088a6200033a565b5b6200089985828601620006bc565b9150509250929050565b600081519050919050565b7f4e487b7100000000000000000000000000000000000000000000000000000000600052602260045260246000fd5b60006002820490506001821680620008f657607f821691505b6020821081036200090c576200090b620008ae565b5b50919050565b60008190508160005260206000209050919050565b60006020601f8301049050919050565b600082821b905092915050565b600060088302620009767fffffffffffffffffffffffffffffffffffffffffffffffffffffffffffffffff8262000937565b62000982868362000937565b95508019841693508086168417925050509392505050565b6000819050919050565b6000620009c5620009bf620009b9846200052d565b6200099a565b6200052d565b9050919050565b6000819050919050565b620009e183620009a4565b620009f9620009f082620009cc565b84845462000944565b825550505050565b600090565b62000a1062000a01565b62000a1d818484620009d6565b505050565b5b8181101562000a455762000a3960008262000a06565b60018101905062000a23565b5050565b601f82111562000a945762000a5e8162000912565b62000a698462000927565b8101602085101562000a79578190505b62000a9162000a888562000927565b83018262000a22565b50505b505050565b600082821c905092915050565b600062000ab96000198460080262000a99565b1980831691505092915050565b600062000ad4838362000aa6565b9150826002028217905092915050565b62000aef82620008a3565b67ffffffffffffffff81111562000b0b5762000b0a62000355565b5b62000b178254620008dd565b62000b2482828562000a49565b600060209050601f83116001811462000b5c576000841562000b47578287015190505b62000b53858262000ac6565b86555062000bc3565b601f19841662000b6c8662000912565b60005b8281101562000b965784890151825560018201915060208501945060208101905062000b6f565b8683101562000bb6578489015162000bb2601f89168262000aa6565b8355505b6001600288020188555050505b505050505050565b600081905092915050565b6000815462000be581620008dd565b62000bf1818662000bcb565b9450600182166000811462000c0f576001811462000c255762000c5c565b60ff198316865281151582028601935062000c5c565b62000c308562000912565b60005b8381101562000c545781548189015260018201915060208101905062000c33565b838801955050505b50505092915050565b600062000c73828462000bd6565b915081905092915050565b600082825260208201905092915050565b7f436f6e7374727563746f723a20494e56414c49445f4d415455524954595f444160008201527f5445000000000000000000000000000000000000000000000000000000000000602082015250565b600062000ced60228362000c7e565b915062000cfa8262000c8f565b604082019050919050565b6000602082019050818103600083015262000d208162000cde565b9050919050565b613ceb8062000d376000396000f3fe608060405234801561001057600080fd5b50600436106101735760003560e01c806395d89b41116100de578063c0bcb26f11610097578063d59624b411610071578063d59624b41461040a578063e1270b6e14610428578063e5a6b10f14610458578063f83d08ba1461047657610173565b8063c0bcb26f146103c4578063d383f646146103e2578063d5070b3e146103ec57610173565b806395d89b4114610302578063a457c2d714610320578063a69df4b514610350578063ab67aa581461035a578063be040fb01461038a578063be45fd621461039457610173565b80636d705ebb116101305780636d705ebb14610250578063710d33291461026c5780637dbdc9531461028a57806382d5a60d146102a85780638bca6d16146102c65780638d1343e0146102e457610173565b806306fdde0314610178578063095ea7b3146101965780632c0bc9a0146101c6578063363cc427146101e45780635256214b1461020257806361e20a1c14610220575b600080fd5b610180610494565b60405161018d91906128cd565b60405180910390f35b6101b060048036038101906101ab919061298d565b610546565b6040516101bd91906129e8565b60405180910390f35b6101ce610562565b6040516101db91906128cd565b60405180910390f35b6101ec6105f0565b6040516101f99190612a12565b60405180910390f35b61020a610616565b6040516102179190612b29565b60405180910390f35b61023a60048036038101906102359190612b4b565b6106d5565b6040516102479190612b87565b60405180910390f35b61026a6004803603810190610265919061298d565b61071e565b005b610274610966565b6040516102819190612b87565b60405180910390f35b61029261098f565b60405161029f9190612ca4565b60405180910390f35b6102b0610d00565b6040516102bd91906128cd565b60405180910390f35b6102ce610db2565b6040516102db9190612b87565b60405180910390f35b6102ec610ddb565b6040516102f99190612b87565b60405180910390f35b61030a610e04565b60405161031791906128cd565b60405180910390f35b61033a6004803603810190610335919061298d565b610eb6565b60405161034791906129e8565b60405180910390f35b610358610ed2565b005b610374600480360381019061036f9190612d2b565b610fb1565b60405161038191906129e8565b60405180910390f35b610392610fdd565b005b6103ae60048036038101906103a99190612db3565b61102c565b6040516103bb91906129e8565b60405180910390f35b6103cc61104c565b6040516103d99190612b87565b60405180910390f35b6103ea611075565b005b6103f461110f565b6040516104019190612efa565b60405180910390f35b610412611385565b60405161041f9190612b87565b60405180910390f35b610442600480360381019061043d9190612f1c565b6113ae565b60405161044f9190612b87565b60405180910390f35b610460611435565b60405161046d9190612a12565b60405180910390f35b61047e61147e565b60405161048b9190612b87565b60405180910390f35b6060600060046040516104a7919061305f565b908152602001604051809103902060010180546104c390612f8b565b80601f01602080910402602001604051908101604052809291908181526020018280546104ef90612f8b565b801561053c5780601f106105115761010080835404028352916020019161053c565b820191906000526020600020905b81548152906001019060200180831161051f57829003601f168201915b5050505050905090565b600080339050610557818585611484565b600191505092915050565b6004805461056f90612f8b565b80601f016020809104026020016040519081016040528092919081815260200182805461059b90612f8b565b80156105e85780601f106105bd576101008083540402835291602001916105e8565b820191906000526020600020905b8154815290600101906020018083116105cb57829003601f168201915b505050505081565b600560009054906101000a900473ffffffffffffffffffffffffffffffffffffffff1681565b60606007805480602002602001604051908101604052809291908181526020016000905b828210156106cc57838290600052602060002090600202016040518060400160405290816000820160009054906101000a900473ffffffffffffffffffffffffffffffffffffffff1673ffffffffffffffffffffffffffffffffffffffff1673ffffffffffffffffffffffffffffffffffffffff1681526020016001820154815250508152602001906001019061063a565b50505050905090565b6000600260008373ffffffffffffffffffffffffffffffffffffffff1673ffffffffffffffffffffffffffffffffffffffff168152602001908152602001600020549050919050565b600560009054906101000a900473ffffffffffffffffffffffffffffffffffffffff1673ffffffffffffffffffffffffffffffffffffffff163373ffffffffffffffffffffffffffffffffffffffff16146107ae576040517f08c379a00000000000000000000000000000000000000000000000000000000081526004016107a5906130c2565b60405180910390fd5b6000600160046040516107c1919061305f565b908152602001604051809103902060000160009054906101000a900473ffffffffffffffffffffffffffffffffffffffff169050600760405180604001604052808573ffffffffffffffffffffffffffffffffffffffff16815260200184815250908060018154018082558091505060019003906000526020600020906002020160009091909190915060008201518160000160006101000a81548173ffffffffffffffffffffffffffffffffffffffff021916908373ffffffffffffffffffffffffffffffffffffffff160217905550602082015181600101555050600060046040516108af919061305f565b908152602001604051809103902060030160009054906101000a900473ffffffffffffffffffffffffffffffffffffffff1673ffffffffffffffffffffffffffffffffffffffff166323b872dd8483856040518463ffffffff1660e01b815260040161091d939291906130e2565b6020604051808303816000875af115801561093c573d6000803e3d6000fd5b505050506040513d601f19601f820116820180604052508101906109609190613145565b50505050565b6000806004604051610978919061305f565b908152602001604051809103902060050154905090565b610997612788565b600160046040516109a8919061305f565b90815260200160405180910390206040518060e00160405290816000820160009054906101000a900473ffffffffffffffffffffffffffffffffffffffff1673ffffffffffffffffffffffffffffffffffffffff1673ffffffffffffffffffffffffffffffffffffffff168152602001600182018054610a2790612f8b565b80601f0160208091040260200160405190810160405280929190818152602001828054610a5390612f8b565b8015610aa05780601f10610a7557610100808354040283529160200191610aa0565b820191906000526020600020905b815481529060010190602001808311610a8357829003601f168201915b50505050508152602001600282018054610ab990612f8b565b80601f0160208091040260200160405190810160405280929190818152602001828054610ae590612f8b565b8015610b325780601f10610b0757610100808354040283529160200191610b32565b820191906000526020600020905b815481529060010190602001808311610b1557829003601f168201915b50505050508152602001600382018054610b4b90612f8b565b80601f0160208091040260200160405190810160405280929190818152602001828054610b7790612f8b565b8015610bc45780601f10610b9957610100808354040283529160200191610bc4565b820191906000526020600020905b815481529060010190602001808311610ba757829003601f168201915b50505050508152602001600482018054610bdd90612f8b565b80601f0160208091040260200160405190810160405280929190818152602001828054610c0990612f8b565b8015610c565780601f10610c2b57610100808354040283529160200191610c56565b820191906000526020600020905b815481529060010190602001808311610c3957829003601f168201915b50505050508152602001600582018054610c6f90612f8b565b80601f0160208091040260200160405190810160405280929190818152602001828054610c9b90612f8b565b8015610ce85780601f10610cbd57610100808354040283529160200191610ce8565b820191906000526020600020905b815481529060010190602001808311610ccb57829003601f168201915b50505050508152602001600682015481525050905090565b606060006004604051610d13919061305f565b90815260200160405180910390206000018054610d2f90612f8b565b80601f0160208091040260200160405190810160405280929190818152602001828054610d5b90612f8b565b8015610da85780601f10610d7d57610100808354040283529160200191610da8565b820191906000526020600020905b815481529060010190602001808311610d8b57829003601f168201915b5050505050905090565b6000806004604051610dc4919061305f565b908152602001604051809103902060040154905090565b6000806004604051610ded919061305f565b908152602001604051809103902060070154905090565b606060006004604051610e17919061305f565b90815260200160405180910390206002018054610e3390612f8b565b80601f0160208091040260200160405190810160405280929190818152602001828054610e5f90612f8b565b8015610eac5780601f10610e8157610100808354040283529160200191610eac565b820191906000526020600020905b815481529060010190602001808311610e8f57829003601f168201915b5050505050905090565b600080339050610ec7818585611864565b600191505092915050565b600560009054906101000a900473ffffffffffffffffffffffffffffffffffffffff1673ffffffffffffffffffffffffffffffffffffffff163373ffffffffffffffffffffffffffffffffffffffff1614610f62576040517f08c379a0000000000000000000000000000000000000000000000000000000008152600401610f59906130c2565b60405180910390fd5b600060065414610fa7576040517f08c379a0000000000000000000000000000000000000000000000000000000008152600401610f9e906131be565b60405180910390fd5b6001600681905550565b600080339050610fc2878287611bff565b610fcf8787878787611d4c565b600191505095945050505050565b600160065414611022576040517f08c379a00000000000000000000000000000000000000000000000000000000081526004016110199061322a565b60405180910390fd5b61102a61210f565b565b60008033905061103f8187878787611d4c565b6001915050949350505050565b600080600460405161105e919061305f565b908152602001604051809103902060060154905090565b600560009054906101000a900473ffffffffffffffffffffffffffffffffffffffff1673ffffffffffffffffffffffffffffffffffffffff163373ffffffffffffffffffffffffffffffffffffffff1614611105576040517f08c379a00000000000000000000000000000000000000000000000000000000081526004016110fc906130c2565b60405180910390fd5b61110d6124cc565b565b6111176127db565b60006004604051611128919061305f565b90815260200160405180910390206040518061012001604052908160008201805461115290612f8b565b80601f016020809104026020016040519081016040528092919081815260200182805461117e90612f8b565b80156111cb5780601f106111a0576101008083540402835291602001916111cb565b820191906000526020600020905b8154815290600101906020018083116111ae57829003601f168201915b505050505081526020016001820180546111e490612f8b565b80601f016020809104026020016040519081016040528092919081815260200182805461121090612f8b565b801561125d5780601f106112325761010080835404028352916020019161125d565b820191906000526020600020905b81548152906001019060200180831161124057829003601f168201915b5050505050815260200160028201805461127690612f8b565b80601f01602080910402602001604051908101604052809291908181526020018280546112a290612f8b565b80156112ef5780601f106112c4576101008083540402835291602001916112ef565b820191906000526020600020905b8154815290600101906020018083116112d257829003601f168201915b505050505081526020016003820160009054906101000a900473ffffffffffffffffffffffffffffffffffffffff1673ffffffffffffffffffffffffffffffffffffffff1673ffffffffffffffffffffffffffffffffffffffff16815260200160048201548152602001600582015481526020016006820154815260200160078201548152602001600882015481525050905090565b6000806004604051611397919061305f565b908152602001604051809103902060080154905090565b6000600360008473ffffffffffffffffffffffffffffffffffffffff1673ffffffffffffffffffffffffffffffffffffffff16815260200190815260200160002060008373ffffffffffffffffffffffffffffffffffffffff1673ffffffffffffffffffffffffffffffffffffffff16815260200190815260200160002054905092915050565b6000806004604051611447919061305f565b908152602001604051809103902060030160009054906101000a900473ffffffffffffffffffffffffffffffffffffffff16905090565b60065481565b600073ffffffffffffffffffffffffffffffffffffffff168373ffffffffffffffffffffffffffffffffffffffff16036114f3576040517f08c379a00000000000000000000000000000000000000000000000000000000081526004016114ea90613296565b60405180910390fd5b600073ffffffffffffffffffffffffffffffffffffffff168273ffffffffffffffffffffffffffffffffffffffff1603611562576040517f08c379a000000000000000000000000000000000000000000000000000000000815260040161155990613302565b60405180910390fd5b600081116115a5576040517f08c379a000000000000000000000000000000000000000000000000000000000815260040161159c9061336e565b60405180910390fd5b6000600260008573ffffffffffffffffffffffffffffffffffffffff1673ffffffffffffffffffffffffffffffffffffffff1681526020019081526020016000205490506000600360008673ffffffffffffffffffffffffffffffffffffffff1673ffffffffffffffffffffffffffffffffffffffff16815260200190815260200160002060008573ffffffffffffffffffffffffffffffffffffffff1673ffffffffffffffffffffffffffffffffffffffff168152602001908152602001600020549050600080600460405161167c919061305f565b908152602001604051809103902060040154905060008060046040516116a2919061305f565b90815260200160405180910390206008015490508042106116f8576040517f08c379a00000000000000000000000000000000000000000000000000000000081526004016116ef906133da565b60405180910390fd5b8385111561173b576040517f08c379a000000000000000000000000000000000000000000000000000000000815260040161173290613446565b60405180910390fd5b600082838761174a9190613495565b6117549190613506565b14611794576040517f08c379a000000000000000000000000000000000000000000000000000000000815260040161178b9061336e565b60405180910390fd5b84836117a09190613537565b600360008973ffffffffffffffffffffffffffffffffffffffff1673ffffffffffffffffffffffffffffffffffffffff16815260200190815260200160002060008873ffffffffffffffffffffffffffffffffffffffff1673ffffffffffffffffffffffffffffffffffffffff168152602001908152602001600020819055507f80da462ebfbe41cfc9bc015e7a9a3c7a2a73dbccede72d8ceb583606c27f8f90878787604051611853939291906130e2565b60405180910390a150505050505050565b600073ffffffffffffffffffffffffffffffffffffffff168373ffffffffffffffffffffffffffffffffffffffff16036118d3576040517f08c379a00000000000000000000000000000000000000000000000000000000081526004016118ca90613296565b60405180910390fd5b600073ffffffffffffffffffffffffffffffffffffffff168273ffffffffffffffffffffffffffffffffffffffff1603611942576040517f08c379a000000000000000000000000000000000000000000000000000000000815260040161193990613302565b60405180910390fd5b60008111611985576040517f08c379a000000000000000000000000000000000000000000000000000000000815260040161197c9061336e565b60405180910390fd5b6000600360008573ffffffffffffffffffffffffffffffffffffffff1673ffffffffffffffffffffffffffffffffffffffff16815260200190815260200160002060008473ffffffffffffffffffffffffffffffffffffffff1673ffffffffffffffffffffffffffffffffffffffff1681526020019081526020016000205490506000806004604051611a18919061305f565b90815260200160405180910390206004015490506000806004604051611a3e919061305f565b9081526020016040518091039020600801549050804210611a94576040517f08c379a0000000000000000000000000000000000000000000000000000000008152600401611a8b906133da565b60405180910390fd5b82841115611ad7576040517f08c379a0000000000000000000000000000000000000000000000000000000008152600401611ace906135b7565b60405180910390fd5b6000828386611ae69190613495565b611af09190613506565b14611b30576040517f08c379a0000000000000000000000000000000000000000000000000000000008152600401611b279061336e565b60405180910390fd5b8383611b3c91906135d7565b600360008873ffffffffffffffffffffffffffffffffffffffff1673ffffffffffffffffffffffffffffffffffffffff16815260200190815260200160002060008773ffffffffffffffffffffffffffffffffffffffff1673ffffffffffffffffffffffffffffffffffffffff168152602001908152602001600020819055507f424dbe179d5bade01d2ca8ccbd3405ec809e626ae11064bdf18f99e929424a4a868686604051611bef939291906130e2565b60405180910390a1505050505050565b6000600360008573ffffffffffffffffffffffffffffffffffffffff1673ffffffffffffffffffffffffffffffffffffffff16815260200190815260200160002060008473ffffffffffffffffffffffffffffffffffffffff1673ffffffffffffffffffffffffffffffffffffffff16815260200190815260200160002054905080821115611cc3576040517f08c379a0000000000000000000000000000000000000000000000000000000008152600401611cba90613657565b60405180910390fd5b818103600360008673ffffffffffffffffffffffffffffffffffffffff1673ffffffffffffffffffffffffffffffffffffffff16815260200190815260200160002060008573ffffffffffffffffffffffffffffffffffffffff1673ffffffffffffffffffffffffffffffffffffffff1681526020019081526020016000208190555050505050565b600073ffffffffffffffffffffffffffffffffffffffff168573ffffffffffffffffffffffffffffffffffffffff1603611dbb576040517f08c379a0000000000000000000000000000000000000000000000000000000008152600401611db290613296565b60405180910390fd5b600073ffffffffffffffffffffffffffffffffffffffff168473ffffffffffffffffffffffffffffffffffffffff1603611e2a576040517f08c379a0000000000000000000000000000000000000000000000000000000008152600401611e2190613302565b60405180910390fd5b60008311611e6d576040517f08c379a0000000000000000000000000000000000000000000000000000000008152600401611e649061336e565b60405180910390fd5b6000600260008773ffffffffffffffffffffffffffffffffffffffff1673ffffffffffffffffffffffffffffffffffffffff1681526020019081526020016000205490506000806004604051611ec3919061305f565b90815260200160405180910390206004015490506000806004604051611ee9919061305f565b9081526020016040518091039020600801549050804210611f3f576040517f08c379a0000000000000000000000000000000000000000000000000000000008152600401611f36906133da565b60405180910390fd5b82861115611f82576040517f08c379a0000000000000000000000000000000000000000000000000000000008152600401611f7990613446565b60405180910390fd5b6000828388611f919190613495565b611f9b9190613506565b14611fdb576040517f08c379a0000000000000000000000000000000000000000000000000000000008152600401611fd29061336e565b60405180910390fd5b611fe8888888888861277a565b6000600260008973ffffffffffffffffffffffffffffffffffffffff1673ffffffffffffffffffffffffffffffffffffffff168152602001908152602001600020549050868403600260008b73ffffffffffffffffffffffffffffffffffffffff1673ffffffffffffffffffffffffffffffffffffffff16815260200190815260200160002081905550868101600260008a73ffffffffffffffffffffffffffffffffffffffff1673ffffffffffffffffffffffffffffffffffffffff168152602001908152602001600020819055507f58531b9a2cec3125db10275eb88f4ce96a55d22b2998ac8d87a2efd6a1bfbbbd89898989896040516120ef9594939291906136c4565b60405180910390a16121048989898989612781565b505050505050505050565b6000804211612153576040517f08c379a000000000000000000000000000000000000000000000000000000000815260040161214a9061375e565b60405180910390fd5b60005b600780549050811015612494576000600260006007848154811061217d5761217c61377e565b5b906000526020600020906002020160000160009054906101000a900473ffffffffffffffffffffffffffffffffffffffff1673ffffffffffffffffffffffffffffffffffffffff1673ffffffffffffffffffffffffffffffffffffffff168152602001908152602001600020541461248157600060026000600784815481106122095761220861377e565b5b906000526020600020906002020160000160009054906101000a900473ffffffffffffffffffffffffffffffffffffffff1673ffffffffffffffffffffffffffffffffffffffff1673ffffffffffffffffffffffffffffffffffffffff168152602001908152602001600020549050600060026000600785815481106122925761229161377e565b5b906000526020600020906002020160000160009054906101000a900473ffffffffffffffffffffffffffffffffffffffff1673ffffffffffffffffffffffffffffffffffffffff1673ffffffffffffffffffffffffffffffffffffffff168152602001908152602001600020819055506000612710670de0b6b3a764000060006004604051612321919061305f565b9081526020016040518091039020600601548461233e9190613495565b6123489190613495565b61235291906137ad565b9050600081670de0b6b3a76400008461236b9190613495565b6123759190613537565b905060006004604051612388919061305f565b908152602001604051809103902060030160009054906101000a900473ffffffffffffffffffffffffffffffffffffffff1673ffffffffffffffffffffffffffffffffffffffff1663a9059cbb600786815481106123e9576123e861377e565b5b906000526020600020906002020160000160009054906101000a900473ffffffffffffffffffffffffffffffffffffffff16836040518363ffffffff1660e01b81526004016124399291906137de565b6020604051808303816000875af1158015612458573d6000803e3d6000fd5b505050506040513d601f19601f8201168201806040525081019061247c9190613145565b505050505b808061248c90613807565b915050612156565b507fb8cac300e37f03ad332e581dea21b2f0b84eaaadc184a295fef71e81f44a741360405160405180910390a1600060068190555050565b600080600060046040516124e0919061305f565b908152602001604051809103902060050154905060005b6007805490508110156126db5760006007828154811061251a5761251961377e565b5b906000526020600020906002020160000160009054906101000a900473ffffffffffffffffffffffffffffffffffffffff1690506000600783815481106125645761256361377e565b5b9060005260206000209060020201600101549050600080600460405161258a919061305f565b9081526020016040518091039020600401549050600073ffffffffffffffffffffffffffffffffffffffff168373ffffffffffffffffffffffffffffffffffffffff160361260d576040517f08c379a00000000000000000000000000000000000000000000000000000000081526004016126049061389b565b60405180910390fd5b60008214158015612634575060008182846126289190613495565b6126329190613506565b145b612673576040517f08c379a000000000000000000000000000000000000000000000000000000000815260040161266a90613907565b60405180910390fd5b818661267f9190613537565b955081600260008573ffffffffffffffffffffffffffffffffffffffff1673ffffffffffffffffffffffffffffffffffffffff1681526020019081526020016000208190555050505080806126d390613807565b9150506124f7565b5080821461271e576040517f08c379a000000000000000000000000000000000000000000000000000000000815260040161271590613973565b60405180910390fd5b7f68136622ee097034c8905076503c344047e80ff1e72df52de54f48d8dea3336560006004604051612750919061305f565b9081526020016040518091039020600760405161276e929190613c7e565b60405180910390a15050565b5050505050565b5050505050565b6040518060e00160405280600073ffffffffffffffffffffffffffffffffffffffff1681526020016060815260200160608152602001606081526020016060815260200160608152602001600081525090565b604051806101200160405280606081526020016060815260200160608152602001600073ffffffffffffffffffffffffffffffffffffffff16815260200160008152602001600081526020016000815260200160008152602001600081525090565b600081519050919050565b600082825260208201905092915050565b60005b8381101561287757808201518184015260208101905061285c565b60008484015250505050565b6000601f19601f8301169050919050565b600061289f8261283d565b6128a98185612848565b93506128b9818560208601612859565b6128c281612883565b840191505092915050565b600060208201905081810360008301526128e78184612894565b905092915050565b600080fd5b600080fd5b600073ffffffffffffffffffffffffffffffffffffffff82169050919050565b6000612924826128f9565b9050919050565b61293481612919565b811461293f57600080fd5b50565b6000813590506129518161292b565b92915050565b6000819050919050565b61296a81612957565b811461297557600080fd5b50565b60008135905061298781612961565b92915050565b600080604083850312156129a4576129a36128ef565b5b60006129b285828601612942565b92505060206129c385828601612978565b9150509250929050565b60008115159050919050565b6129e2816129cd565b82525050565b60006020820190506129fd60008301846129d9565b92915050565b612a0c81612919565b82525050565b6000602082019050612a276000830184612a03565b92915050565b600081519050919050565b600082825260208201905092915050565b6000819050602082019050919050565b612a6281612919565b82525050565b612a7181612957565b82525050565b604082016000820151612a8d6000850182612a59565b506020820151612aa06020850182612a68565b50505050565b6000612ab28383612a77565b60408301905092915050565b6000602082019050919050565b6000612ad682612a2d565b612ae08185612a38565b9350612aeb83612a49565b8060005b83811015612b1c578151612b038882612aa6565b9750612b0e83612abe565b925050600181019050612aef565b5085935050505092915050565b60006020820190508181036000830152612b438184612acb565b905092915050565b600060208284031215612b6157612b606128ef565b5b6000612b6f84828501612942565b91505092915050565b612b8181612957565b82525050565b6000602082019050612b9c6000830184612b78565b92915050565b600082825260208201905092915050565b6000612bbe8261283d565b612bc88185612ba2565b9350612bd8818560208601612859565b612be181612883565b840191505092915050565b600060e083016000830151612c046000860182612a59565b5060208301518482036020860152612c1c8282612bb3565b91505060408301518482036040860152612c368282612bb3565b91505060608301518482036060860152612c508282612bb3565b91505060808301518482036080860152612c6a8282612bb3565b91505060a083015184820360a0860152612c848282612bb3565b91505060c0830151612c9960c0860182612a68565b508091505092915050565b60006020820190508181036000830152612cbe8184612bec565b905092915050565b600080fd5b600080fd5b600080fd5b60008083601f840112612ceb57612cea612cc6565b5b8235905067ffffffffffffffff811115612d0857612d07612ccb565b5b602083019150836001820283011115612d2457612d23612cd0565b5b9250929050565b600080600080600060808688031215612d4757612d466128ef565b5b6000612d5588828901612942565b9550506020612d6688828901612942565b9450506040612d7788828901612978565b935050606086013567ffffffffffffffff811115612d9857612d976128f4565b5b612da488828901612cd5565b92509250509295509295909350565b60008060008060608587031215612dcd57612dcc6128ef565b5b6000612ddb87828801612942565b9450506020612dec87828801612978565b935050604085013567ffffffffffffffff811115612e0d57612e0c6128f4565b5b612e1987828801612cd5565b925092505092959194509250565b6000610120830160008301518482036000860152612e458282612bb3565b91505060208301518482036020860152612e5f8282612bb3565b91505060408301518482036040860152612e798282612bb3565b9150506060830151612e8e6060860182612a59565b506080830151612ea16080860182612a68565b5060a0830151612eb460a0860182612a68565b5060c0830151612ec760c0860182612a68565b5060e0830151612eda60e0860182612a68565b50610100830151612eef610100860182612a68565b508091505092915050565b60006020820190508181036000830152612f148184612e27565b905092915050565b60008060408385031215612f3357612f326128ef565b5b6000612f4185828601612942565b9250506020612f5285828601612942565b9150509250929050565b7f4e487b7100000000000000000000000000000000000000000000000000000000600052602260045260246000fd5b60006002820490506001821680612fa357607f821691505b602082108103612fb657612fb5612f5c565b5b50919050565b600081905092915050565b60008190508160005260206000209050919050565b60008154612fe981612f8b565b612ff38186612fbc565b9450600182166000811461300e576001811461302357613056565b60ff1983168652811515820286019350613056565b61302c85612fc7565b60005b8381101561304e5781548189015260018201915060208101905061302f565b838801955050505b50505092915050565b600061306b8284612fdc565b915081905092915050565b7f455243373039323a204e4f545f414c4c4f574544000000000000000000000000600082015250565b60006130ac601483612848565b91506130b782613076565b602082019050919050565b600060208201905081810360008301526130db8161309f565b9050919050565b60006060820190506130f76000830186612a03565b6131046020830185612a03565b6131116040830184612b78565b949350505050565b613122816129cd565b811461312d57600080fd5b50565b60008151905061313f81613119565b92915050565b60006020828403121561315b5761315a6128ef565b5b600061316984828501613130565b91505092915050565b7f414c52454144595f554e4c4f434b454400000000000000000000000000000000600082015250565b60006131a8601083612848565b91506131b382613172565b602082019050919050565b600060208201905081810360008301526131d78161319b565b9050919050565b7f52454445454d5f49535f4c4f434b454400000000000000000000000000000000600082015250565b6000613214601083612848565b915061321f826131de565b602082019050919050565b6000602082019050818103600083015261324381613207565b9050919050565b7f455243373039323a204f574e45525f5a45524f5f414444524553530000000000600082015250565b6000613280601b83612848565b915061328b8261324a565b602082019050919050565b600060208201905081810360008301526132af81613273565b9050919050565b7f455243373039323a205350454e4445525f5a45524f5f41444452455353000000600082015250565b60006132ec601d83612848565b91506132f7826132b6565b602082019050919050565b6000602082019050818103600083015261331b816132df565b9050919050565b7f455243373039323a20494e56414c49445f414d4f554e54000000000000000000600082015250565b6000613358601783612848565b915061336382613322565b602082019050919050565b600060208201905081810360008301526133878161334b565b9050919050565b7f455243373039323a20424f4e44535f4d41545552454400000000000000000000600082015250565b60006133c4601683612848565b91506133cf8261338e565b602082019050919050565b600060208201905081810360008301526133f3816133b7565b9050919050565b7f455243373039323a20494e53554646494349454e545f42414c414e4345000000600082015250565b6000613430601d83612848565b915061343b826133fa565b602082019050919050565b6000602082019050818103600083015261345f81613423565b9050919050565b7f4e487b7100000000000000000000000000000000000000000000000000000000600052601160045260246000fd5b60006134a082612957565b91506134ab83612957565b92508282026134b981612957565b915082820484148315176134d0576134cf613466565b5b5092915050565b7f4e487b7100000000000000000000000000000000000000000000000000000000600052601260045260246000fd5b600061351182612957565b915061351c83612957565b92508261352c5761352b6134d7565b5b828206905092915050565b600061354282612957565b915061354d83612957565b925082820190508082111561356557613564613466565b5b92915050565b7f455243373039323a204e4f545f454e4f5547485f415050524f56414c00000000600082015250565b60006135a1601c83612848565b91506135ac8261356b565b602082019050919050565b600060208201905081810360008301526135d081613594565b9050919050565b60006135e282612957565b91506135ed83612957565b925082820390508181111561360557613604613466565b5b92915050565b7f455243373039323a20494e53554646494349454e545f414c4c4f57414e434500600082015250565b6000613641601f83612848565b915061364c8261360b565b602082019050919050565b6000602082019050818103600083015261367081613634565b9050919050565b600082825260208201905092915050565b82818337600083830152505050565b60006136a38385613677565b93506136b0838584613688565b6136b983612883565b840190509392505050565b60006080820190506136d96000830188612a03565b6136e66020830187612a03565b6136f36040830186612b78565b8181036060830152613706818486613697565b90509695505050505050565b7f455243323732313a20574149545f4d4154555249545900000000000000000000600082015250565b6000613748601683612848565b915061375382613712565b602082019050919050565b600060208201905081810360008301526137778161373b565b9050919050565b7f4e487b7100000000000000000000000000000000000000000000000000000000600052603260045260246000fd5b60006137b882612957565b91506137c383612957565b9250826137d3576137d26134d7565b5b828204905092915050565b60006040820190506137f36000830185612a03565b6138006020830184612b78565b9392505050565b600061381282612957565b91507fffffffffffffffffffffffffffffffffffffffffffffffffffffffffffffffff820361384457613843613466565b5b600182019050919050565b7f455243373039323a205a45524f5f414444524553535f494e564553544f520000600082015250565b6000613885601e83612848565b91506138908261384f565b602082019050919050565b600060208201905081810360008301526138b481613878565b9050919050565b7f4552433a20494e56414c49445f5052494e434950414c5f414d4f554e54000000600082015250565b60006138f1601d83612848565b91506138fc826138bb565b602082019050919050565b60006020820190508181036000830152613920816138e4565b9050919050565b7f455243373039323a20494e56414c49445f49535355455f564f4c554d45000000600082015250565b600061395d601d83612848565b915061396882613927565b602082019050919050565b6000602082019050818103600083015261398c81613950565b9050919050565b600081546139a081612f8b565b6139aa8186612ba2565b945060018216600081146139c557600181146139db57613a0e565b60ff198316865281151560200286019350613a0e565b6139e485612fc7565b60005b83811015613a06578154818901526001820191506020810190506139e7565b808801955050505b50505092915050565b60008160001c9050919050565b600073ffffffffffffffffffffffffffffffffffffffff82169050919050565b6000613a57613a5283613a17565b613a24565b9050919050565b6000819050919050565b6000613a7b613a7683613a17565b613a5e565b9050919050565b6000610120830160008084018583036000870152613aa08382613993565b925050600184018583036020870152613ab98382613993565b925050600284018583036040870152613ad28382613993565b92505060038401549050613ae581613a44565b613af26060870182612a59565b5060048401549050613b0381613a68565b613b106080870182612a68565b5060058401549050613b2181613a68565b613b2e60a0870182612a68565b5060068401549050613b3f81613a68565b613b4c60c0870182612a68565b5060078401549050613b5d81613a68565b613b6a60e0870182612a68565b5060088401549050613b7b81613a68565b613b89610100870182612a68565b50819250505092915050565b600081549050919050565b60008190508160005260206000209050919050565b604082016000808301549050613bca81613a44565b613bd76000860182612a59565b5060018301549050613be881613a68565b613bf56020860182612a68565b5050505050565b6000613c088383613bb5565b60408301905092915050565b6000600282019050919050565b6000613c2c82613b95565b613c368185612a38565b9350613c4183613ba0565b8060005b83811015613c715781613c588882613bfc565b9750613c6383613c14565b925050600181019050613c45565b5085935050505092915050565b60006040820190508181036000830152613c988185613a82565b90508181036020830152613cac8184613c21565b9050939250505056fea2646970667358221220298acd22d262c3e8a0e4e977ec8ea7fe1233962b07a1cfa7021aa528bda27a6464736f6c63430008130033",
  "immutableReferences": {},
  "source": "// SPDX-License-Identifier: MIT\npragma solidity ^0.8.0;\n\nimport \"./IERC7092.sol\";\nimport \"./BondStorage.sol\";\nimport \"./utils/IERC20.sol\";\n\ncontract ERC7092 is IERC7092, BondStorage {\n    constructor(Bond memory _bond, Issuer memory _issuer) {\n        bondISIN = _bond.isin;\n        _bonds[bondISIN] = _bond;\n        issuer[bondISIN] = _issuer;\n        bondManager = msg.sender;\n\n        _bonds[bondISIN].issueDate = block.timestamp;\n\n        uint256 _issueDate = _bonds[bondISIN].issueDate;\n        uint256 _maturityDate = _bonds[bondISIN].maturityDate;\n\n        require(_maturityDate > _issueDate, \"Constructor: INVALID_MATURITY_DATE\");\n    }\n\n    function issue() external onlyBondManager {\n        _issue();\n    }\n\n    function redeem() external notLocked {\n        _redeem();\n    }\n\n    function register(address _investor, uint256 _amount) onlyBondManager external {\n        address _issuer = issuer[bondISIN].accountAddress;\n\n        _investorsOffer.push(Offer({ investor: _investor, principal: _amount }));\n\n        IERC20(_bonds[bondISIN].currency).transferFrom(_investor, _issuer, _amount);\n    }\n\n    function unlock() external onlyBondManager {\n        require(lock == 0, \"ALREADY_UNLOCKED\");\n\n        lock = 1;\n    }\n\n    function isin() external view returns(string memory) {\n        return _bonds[bondISIN].isin;\n    }\n\n    function name() external view returns(string memory) {\n        return _bonds[bondISIN].name;\n    }\n\n    function symbol() external view returns(string memory) {\n        return _bonds[bondISIN].symbol;\n    }\n\n    function currency() external view returns(address) {\n        return _bonds[bondISIN].currency;\n    }\n\n    function denomination() external view returns(uint256) {\n        return _bonds[bondISIN].denomination;\n    }\n\n    function issueVolume() external view returns(uint256) {\n        return _bonds[bondISIN].issueVolume;\n    }\n\n    function couponRate() external view returns(uint256) {\n        return _bonds[bondISIN].couponRate;\n    }\n\n    function issueDate() external view returns(uint256) {\n        return _bonds[bondISIN].issueDate;\n    }\n\n    function maturityDate() external view returns(uint256) {\n        return _bonds[bondISIN].maturityDate;\n    }\n\n    function principalOf(address _account) external view returns(uint256) {\n        return _principals[_account];\n    }\n\n    function approval(address _owner, address _spender) external view returns(uint256) {\n        return _approvals[_owner][_spender];\n    }\n\n    function approve(address _spender, uint256 _amount) external returns(bool) {\n        address _owner = msg.sender;\n        _approve(_owner, _spender, _amount);\n\n        return true;\n    }\n\n    function decreaseAllowance(address _spender, uint256 _amount) external returns(bool) {\n        address _owner = msg.sender;\n\n        _decreaseAllowance(_owner, _spender, _amount);\n\n        return true;\n    }\n\n    function transfer(address _to, uint256 _amount, bytes calldata _data) external returns(bool) {\n        address _from = msg.sender;\n\n        _transfer(_from, _to, _amount, _data);\n\n        return true;\n    }\n\n    function transferFrom(address _from, address _to, uint256 _amount, bytes calldata _data) external returns(bool) {\n        address _spender = msg.sender;\n\n        _spendApproval(_from, _spender, _amount);\n\n        _transfer(_from, _to, _amount, _data);\n\n        return true;\n    }\n\n    function getBondInfo() external view returns(Bond memory) {\n        return _bonds[bondISIN];\n    }\n\n    function getIssuerInfo() external view returns(Issuer memory) {\n        return issuer[bondISIN];\n    }\n\n    function getListOfInvestorsOffer() public view returns(Offer[] memory) {\n        return _investorsOffer;\n    }\n\n    function _issue() internal virtual  {\n        uint256 volume;\n        uint256 _issueVolume = _bonds[bondISIN].issueVolume;\n\n        for(uint256 i; i < _investorsOffer.length; i++) {\n            address investor = _investorsOffer[i].investor;\n            uint256 principal = _investorsOffer[i].principal;\n            uint256 _denomination = _bonds[bondISIN].denomination;\n\n            require(investor != address(0), \"ERC7092: ZERO_ADDRESS_INVESTOR\");\n            require(\n                principal != 0 && (principal * _denomination) % _denomination == 0,\n                \"ERC: INVALID_PRINCIPAL_AMOUNT\"\n            );\n\n            volume += principal;\n            _principals[investor] = principal;\n        }\n\n        require(volume == _issueVolume, \"ERC7092: INVALID_ISSUE_VOLUME\");\n\n        emit BondIssued(_bonds[bondISIN], _investorsOffer);\n    }\n\n    function _redeem() internal {\n        uint256 _maturityDate;\n        require(block.timestamp > _maturityDate, \"ERC2721: WAIT_MATURITY\");\n\n        for(uint256 i; i < _investorsOffer.length; i++) {\n            if(_principals[_investorsOffer[i].investor] != 0) {\n\n                uint256 principal = _principals[_investorsOffer[i].investor];\n\n                _principals[_investorsOffer[i].investor] = 0;\n\n                // divide by 1e4 because the interest rate is expressed in basis point\n                uint256 interest = (principal * _bonds[bondISIN].couponRate * 1 ether) / (10000);\n\n                uint256 amount = (principal * 1 ether) + interest;\n\n                IERC20(_bonds[bondISIN].currency).transfer(_investorsOffer[i].investor, amount);\n            }\n        }\n\n        emit Redeemed();\n\n        lock = 0;\n    }\n\n    function _approve(address _owner, address _spender, uint256 _amount) internal virtual {\n        require(_owner != address(0), \"ERC7092: OWNER_ZERO_ADDRESS\");\n        require(_spender != address(0), \"ERC7092: SPENDER_ZERO_ADDRESS\");\n        require(_amount > 0, \"ERC7092: INVALID_AMOUNT\");\n\n        uint256 principal = _principals[_owner];\n        uint256 _approval = _approvals[_owner][_spender];\n        uint256 _denomination = _bonds[bondISIN].denomination;\n        uint256 _maturityDate = _bonds[bondISIN].maturityDate;\n\n        require(block.timestamp < _maturityDate, \"ERC7092: BONDS_MATURED\");\n        require(_amount <= principal, \"ERC7092: INSUFFICIENT_BALANCE\");\n        require((_amount * _denomination) % _denomination == 0, \"ERC7092: INVALID_AMOUNT\");\n\n        _approvals[_owner][_spender]  = _approval + _amount;\n\n        emit Approved(_owner, _spender, _amount);\n    }\n\n    function _decreaseAllowance(address _owner, address _spender, uint256 _amount) internal virtual {\n        require(_owner != address(0), \"ERC7092: OWNER_ZERO_ADDRESS\");\n        require(_spender != address(0), \"ERC7092: SPENDER_ZERO_ADDRESS\");\n        require(_amount > 0, \"ERC7092: INVALID_AMOUNT\");\n\n        uint256 _approval = _approvals[_owner][_spender];\n        uint256 _denomination = _bonds[bondISIN].denomination;\n        uint256 _maturityDate = _bonds[bondISIN].maturityDate;\n\n        require(block.timestamp < _maturityDate, \"ERC7092: BONDS_MATURED\");\n        require(_amount <= _approval, \"ERC7092: NOT_ENOUGH_APPROVAL\");\n        require((_amount * _denomination) % _denomination == 0, \"ERC7092: INVALID_AMOUNT\");\n\n        _approvals[_owner][_spender]  = _approval - _amount;\n\n        emit AllowanceDecreased(_owner, _spender, _amount);\n    }\n\n    function _transfer(address _from, address _to, uint256 _amount, bytes calldata _data) internal virtual {\n        require(_from != address(0), \"ERC7092: OWNER_ZERO_ADDRESS\");\n        require(_to != address(0), \"ERC7092: SPENDER_ZERO_ADDRESS\");\n        require(_amount > 0, \"ERC7092: INVALID_AMOUNT\");\n\n        uint256 principal = _principals[_from];\n        uint256 _denomination = _bonds[bondISIN].denomination;\n        uint256 _maturityDate = _bonds[bondISIN].maturityDate;\n\n        require(block.timestamp < _maturityDate, \"ERC7092: BONDS_MATURED\");\n        require(_amount <= principal, \"ERC7092: INSUFFICIENT_BALANCE\");\n        require((_amount * _denomination) % _denomination == 0, \"ERC7092: INVALID_AMOUNT\");\n\n        _beforeBondTransfer(_from, _to, _amount, _data);\n\n        uint256 principalTo = _principals[_to];\n\n        unchecked {\n            _principals[_from] = principal - _amount;\n            _principals[_to] = principalTo + _amount;\n        }\n\n        emit Transferred(_from, _to, _amount, _data);\n\n        _afterBondTransfer(_from, _to, _amount, _data);\n    }\n\n    function _spendApproval(address _from, address _spender, uint256 _amount) internal virtual {\n        uint256 currentApproval = _approvals[_from][_spender];\n        require(_amount <= currentApproval, \"ERC7092: INSUFFICIENT_ALLOWANCE\");\n\n        unchecked {\n            _approvals[_from][_spender] = currentApproval - _amount;\n        }\n   }\n\n    function _beforeBondTransfer(address _from, address _to, uint256 _amount, bytes calldata _data) internal virtual {}\n\n    function _afterBondTransfer(address _from, address _to, uint256 _amount, bytes calldata _data) internal virtual {}\n}",
  "sourcePath": "/Users/sam/Documents/Finance/EIP/basic-erc7092/contracts/ERC7092.sol",
  "compiler": {
    "name": "solc",
    "version": "0.8.19+commit.7dd6d404.Emscripten.clang"
  },
  "schemaVersion": "3.4.9",
  "updatedAt": "2023-08-19T23:00:14.356Z",
  "networkType": "ethereum",
  "devdoc": {
    "kind": "dev",
    "methods": {},
    "version": 1
  },
  "userdoc": {
    "kind": "user",
    "methods": {},
    "version": 1
  }
}