{
  "contractName": "ERC7092",
  "abi": [
    {
      "inputs": [
        {
          "components": [
            {
              "internalType": "string",
              "name": "isin",
              "type": "string"
            },
            {
              "internalType": "string",
              "name": "name",
              "type": "string"
            },
            {
              "internalType": "string",
              "name": "symbol",
              "type": "string"
            },
            {
              "internalType": "address",
              "name": "currency",
              "type": "address"
            },
            {
              "internalType": "uint256",
              "name": "denomination",
              "type": "uint256"
            },
            {
              "internalType": "uint256",
              "name": "issueVolume",
              "type": "uint256"
            },
            {
              "internalType": "uint256",
              "name": "couponRate",
              "type": "uint256"
            },
            {
              "internalType": "uint256",
              "name": "issueDate",
              "type": "uint256"
            },
            {
              "internalType": "uint256",
              "name": "maturityDate",
              "type": "uint256"
            }
          ],
          "internalType": "struct IData.Bond",
          "name": "_bond",
          "type": "tuple"
        },
        {
          "components": [
            {
              "internalType": "address",
              "name": "accountAddress",
              "type": "address"
            },
            {
              "internalType": "string",
              "name": "name",
              "type": "string"
            },
            {
              "internalType": "string",
              "name": "country",
              "type": "string"
            },
            {
              "internalType": "string",
              "name": "email",
              "type": "string"
            },
            {
              "internalType": "string",
              "name": "category",
              "type": "string"
            },
            {
              "internalType": "string",
              "name": "creditRating",
              "type": "string"
            },
            {
              "internalType": "uint256",
              "name": "carbonCredit",
              "type": "uint256"
            }
          ],
          "internalType": "struct IData.Issuer",
          "name": "_issuer",
          "type": "tuple"
        }
      ],
      "stateMutability": "nonpayable",
      "type": "constructor"
    },
    {
      "anonymous": false,
      "inputs": [
        {
          "indexed": false,
          "internalType": "address",
          "name": "_owner",
          "type": "address"
        },
        {
          "indexed": false,
          "internalType": "address",
          "name": "_spender",
          "type": "address"
        },
        {
          "indexed": false,
          "internalType": "uint256",
          "name": "_amount",
          "type": "uint256"
        }
      ],
      "name": "AllowanceDecreased",
      "type": "event"
    },
    {
      "anonymous": false,
      "inputs": [
        {
          "indexed": false,
          "internalType": "address",
          "name": "_owner",
          "type": "address"
        },
        {
          "indexed": false,
          "internalType": "address",
          "name": "_spender",
          "type": "address"
        },
        {
          "indexed": false,
          "internalType": "uint256",
          "name": "_amount",
          "type": "uint256"
        }
      ],
      "name": "Approved",
      "type": "event"
    },
    {
      "anonymous": false,
      "inputs": [
        {
          "components": [
            {
              "internalType": "string",
              "name": "isin",
              "type": "string"
            },
            {
              "internalType": "string",
              "name": "name",
              "type": "string"
            },
            {
              "internalType": "string",
              "name": "symbol",
              "type": "string"
            },
            {
              "internalType": "address",
              "name": "currency",
              "type": "address"
            },
            {
              "internalType": "uint256",
              "name": "denomination",
              "type": "uint256"
            },
            {
              "internalType": "uint256",
              "name": "issueVolume",
              "type": "uint256"
            },
            {
              "internalType": "uint256",
              "name": "couponRate",
              "type": "uint256"
            },
            {
              "internalType": "uint256",
              "name": "issueDate",
              "type": "uint256"
            },
            {
              "internalType": "uint256",
              "name": "maturityDate",
              "type": "uint256"
            }
          ],
          "indexed": false,
          "internalType": "struct IData.Bond",
          "name": "_bond",
          "type": "tuple"
        },
        {
          "components": [
            {
              "internalType": "address",
              "name": "investor",
              "type": "address"
            },
            {
              "internalType": "uint256",
              "name": "principal",
              "type": "uint256"
            }
          ],
          "indexed": false,
          "internalType": "struct IData.Offer[]",
          "name": "_offers",
          "type": "tuple[]"
        }
      ],
      "name": "BondIssued",
      "type": "event"
    },
    {
      "anonymous": false,
      "inputs": [],
      "name": "Redeemed",
      "type": "event"
    },
    {
      "anonymous": false,
      "inputs": [
        {
          "indexed": false,
          "internalType": "address",
          "name": "_from",
          "type": "address"
        },
        {
          "indexed": false,
          "internalType": "address",
          "name": "_to",
          "type": "address"
        },
        {
          "indexed": false,
          "internalType": "uint256",
          "name": "_amount",
          "type": "uint256"
        },
        {
          "indexed": false,
          "internalType": "bytes",
          "name": "_data",
          "type": "bytes"
        }
      ],
      "name": "Transferred",
      "type": "event"
    },
    {
      "inputs": [],
      "name": "bondISIN",
      "outputs": [
        {
          "internalType": "string",
          "name": "",
          "type": "string"
        }
      ],
      "stateMutability": "view",
      "type": "function",
      "constant": true
    },
    {
      "inputs": [],
      "name": "bondManager",
      "outputs": [
        {
          "internalType": "address",
          "name": "",
          "type": "address"
        }
      ],
      "stateMutability": "view",
      "type": "function",
      "constant": true
    },
    {
      "inputs": [],
      "name": "lock",
      "outputs": [
        {
          "internalType": "uint256",
          "name": "",
          "type": "uint256"
        }
      ],
      "stateMutability": "view",
      "type": "function",
      "constant": true
    },
    {
      "inputs": [],
      "name": "issue",
      "outputs": [],
      "stateMutability": "nonpayable",
      "type": "function"
    },
    {
      "inputs": [],
      "name": "redeem",
      "outputs": [],
      "stateMutability": "nonpayable",
      "type": "function"
    },
    {
      "inputs": [
        {
          "internalType": "address",
          "name": "_investor",
          "type": "address"
        },
        {
          "internalType": "uint256",
          "name": "_amount",
          "type": "uint256"
        }
      ],
      "name": "register",
      "outputs": [],
      "stateMutability": "nonpayable",
      "type": "function"
    },
    {
      "inputs": [],
      "name": "unlock",
      "outputs": [],
      "stateMutability": "nonpayable",
      "type": "function"
    },
    {
      "inputs": [],
      "name": "isin",
      "outputs": [
        {
          "internalType": "string",
          "name": "",
          "type": "string"
        }
      ],
      "stateMutability": "view",
      "type": "function",
      "constant": true
    },
    {
      "inputs": [],
      "name": "name",
      "outputs": [
        {
          "internalType": "string",
          "name": "",
          "type": "string"
        }
      ],
      "stateMutability": "view",
      "type": "function",
      "constant": true
    },
    {
      "inputs": [],
      "name": "symbol",
      "outputs": [
        {
          "internalType": "string",
          "name": "",
          "type": "string"
        }
      ],
      "stateMutability": "view",
      "type": "function",
      "constant": true
    },
    {
      "inputs": [],
      "name": "currency",
      "outputs": [
        {
          "internalType": "address",
          "name": "",
          "type": "address"
        }
      ],
      "stateMutability": "view",
      "type": "function",
      "constant": true
    },
    {
      "inputs": [],
      "name": "denomination",
      "outputs": [
        {
          "internalType": "uint256",
          "name": "",
          "type": "uint256"
        }
      ],
      "stateMutability": "view",
      "type": "function",
      "constant": true
    },
    {
      "inputs": [],
      "name": "issueVolume",
      "outputs": [
        {
          "internalType": "uint256",
          "name": "",
          "type": "uint256"
        }
      ],
      "stateMutability": "view",
      "type": "function",
      "constant": true
    },
    {
      "inputs": [],
      "name": "couponRate",
      "outputs": [
        {
          "internalType": "uint256",
          "name": "",
          "type": "uint256"
        }
      ],
      "stateMutability": "view",
      "type": "function",
      "constant": true
    },
    {
      "inputs": [],
      "name": "issueDate",
      "outputs": [
        {
          "internalType": "uint256",
          "name": "",
          "type": "uint256"
        }
      ],
      "stateMutability": "view",
      "type": "function",
      "constant": true
    },
    {
      "inputs": [],
      "name": "maturityDate",
      "outputs": [
        {
          "internalType": "uint256",
          "name": "",
          "type": "uint256"
        }
      ],
      "stateMutability": "view",
      "type": "function",
      "constant": true
    },
    {
      "inputs": [
        {
          "internalType": "address",
          "name": "_account",
          "type": "address"
        }
      ],
      "name": "principalOf",
      "outputs": [
        {
          "internalType": "uint256",
          "name": "",
          "type": "uint256"
        }
      ],
      "stateMutability": "view",
      "type": "function",
      "constant": true
    },
    {
      "inputs": [
        {
          "internalType": "address",
          "name": "_owner",
          "type": "address"
        },
        {
          "internalType": "address",
          "name": "_spender",
          "type": "address"
        }
      ],
      "name": "approval",
      "outputs": [
        {
          "internalType": "uint256",
          "name": "",
          "type": "uint256"
        }
      ],
      "stateMutability": "view",
      "type": "function",
      "constant": true
    },
    {
      "inputs": [
        {
          "internalType": "address",
          "name": "_spender",
          "type": "address"
        },
        {
          "internalType": "uint256",
          "name": "_amount",
          "type": "uint256"
        }
      ],
      "name": "approve",
      "outputs": [
        {
          "internalType": "bool",
          "name": "",
          "type": "bool"
        }
      ],
      "stateMutability": "nonpayable",
      "type": "function"
    },
    {
      "inputs": [
        {
          "internalType": "address",
          "name": "_spender",
          "type": "address"
        },
        {
          "internalType": "uint256",
          "name": "_amount",
          "type": "uint256"
        }
      ],
      "name": "decreaseAllowance",
      "outputs": [
        {
          "internalType": "bool",
          "name": "",
          "type": "bool"
        }
      ],
      "stateMutability": "nonpayable",
      "type": "function"
    },
    {
      "inputs": [
        {
          "internalType": "address",
          "name": "_to",
          "type": "address"
        },
        {
          "internalType": "uint256",
          "name": "_amount",
          "type": "uint256"
        },
        {
          "internalType": "bytes",
          "name": "_data",
          "type": "bytes"
        }
      ],
      "name": "transfer",
      "outputs": [
        {
          "internalType": "bool",
          "name": "",
          "type": "bool"
        }
      ],
      "stateMutability": "nonpayable",
      "type": "function"
    },
    {
      "inputs": [
        {
          "internalType": "address",
          "name": "_from",
          "type": "address"
        },
        {
          "internalType": "address",
          "name": "_to",
          "type": "address"
        },
        {
          "internalType": "uint256",
          "name": "_amount",
          "type": "uint256"
        },
        {
          "internalType": "bytes",
          "name": "_data",
          "type": "bytes"
        }
      ],
      "name": "transferFrom",
      "outputs": [
        {
          "internalType": "bool",
          "name": "",
          "type": "bool"
        }
      ],
      "stateMutability": "nonpayable",
      "type": "function"
    },
    {
      "inputs": [],
      "name": "getBondInfo",
      "outputs": [
        {
          "components": [
            {
              "internalType": "string",
              "name": "isin",
              "type": "string"
            },
            {
              "internalType": "string",
              "name": "name",
              "type": "string"
            },
            {
              "internalType": "string",
              "name": "symbol",
              "type": "string"
            },
            {
              "internalType": "address",
              "name": "currency",
              "type": "address"
            },
            {
              "internalType": "uint256",
              "name": "denomination",
              "type": "uint256"
            },
            {
              "internalType": "uint256",
              "name": "issueVolume",
              "type": "uint256"
            },
            {
              "internalType": "uint256",
              "name": "couponRate",
              "type": "uint256"
            },
            {
              "internalType": "uint256",
              "name": "issueDate",
              "type": "uint256"
            },
            {
              "internalType": "uint256",
              "name": "maturityDate",
              "type": "uint256"
            }
          ],
          "internalType": "struct IData.Bond",
          "name": "",
          "type": "tuple"
        }
      ],
      "stateMutability": "view",
      "type": "function",
      "constant": true
    },
    {
      "inputs": [],
      "name": "getIssuerInfo",
      "outputs": [
        {
          "components": [
            {
              "internalType": "address",
              "name": "accountAddress",
              "type": "address"
            },
            {
              "internalType": "string",
              "name": "name",
              "type": "string"
            },
            {
              "internalType": "string",
              "name": "country",
              "type": "string"
            },
            {
              "internalType": "string",
              "name": "email",
              "type": "string"
            },
            {
              "internalType": "string",
              "name": "category",
              "type": "string"
            },
            {
              "internalType": "string",
              "name": "creditRating",
              "type": "string"
            },
            {
              "internalType": "uint256",
              "name": "carbonCredit",
              "type": "uint256"
            }
          ],
          "internalType": "struct IData.Issuer",
          "name": "",
          "type": "tuple"
        }
      ],
      "stateMutability": "view",
      "type": "function",
      "constant": true
    },
    {
      "inputs": [],
      "name": "getListOfInvestorsOffer",
      "outputs": [
        {
          "components": [
            {
              "internalType": "address",
              "name": "investor",
              "type": "address"
            },
            {
              "internalType": "uint256",
              "name": "principal",
              "type": "uint256"
            }
          ],
          "internalType": "struct IData.Offer[]",
          "name": "",
          "type": "tuple[]"
        }
      ],
      "stateMutability": "view",
      "type": "function",
      "constant": true
    }
  ],
  "bytecode": "0x60806040523480156200001157600080fd5b5060405162004a3538038062004a3583398181016040528101906200003791906200081e565b8160000151600490816200004c919062000ae4565b50816000600460405162000061919062000c65565b9081526020016040518091039020600082015181600001908162000086919062000ae4565b5060208201518160010190816200009e919062000ae4565b506040820151816002019081620000b6919062000ae4565b5060608201518160030160006101000a81548173ffffffffffffffffffffffffffffffffffffffff021916908373ffffffffffffffffffffffffffffffffffffffff1602179055506080820151816004015560a0820151816005015560c0820151816006015560e082015181600701556101008201518160080155905050806001600460405162000148919062000c65565b908152602001604051809103902060008201518160000160006101000a81548173ffffffffffffffffffffffffffffffffffffffff021916908373ffffffffffffffffffffffffffffffffffffffff1602179055506020820151816001019081620001b4919062000ae4565b506040820151816002019081620001cc919062000ae4565b506060820151816003019081620001e4919062000ae4565b506080820151816004019081620001fc919062000ae4565b5060a082015181600501908162000214919062000ae4565b5060c0820151816006015590505033600560006101000a81548173ffffffffffffffffffffffffffffffffffffffff021916908373ffffffffffffffffffffffffffffffffffffffff160217905550426000600460405162000277919062000c65565b9081526020016040518091039020600701819055506000806004604051620002a0919062000c65565b90815260200160405180910390206007015490506000806004604051620002c8919062000c65565b908152602001604051809103902060080154905081811162000321576040517f08c379a0000000000000000000000000000000000000000000000000000000008152600401620003189062000d05565b60405180910390fd5b5050505062000d27565b6000604051905090565b600080fd5b600080fd5b600080fd5b6000601f19601f8301169050919050565b7f4e487b7100000000000000000000000000000000000000000000000000000000600052604160045260246000fd5b6200038f8262000344565b810181811067ffffffffffffffff82111715620003b157620003b062000355565b5b80604052505050565b6000620003c66200032b565b9050620003d4828262000384565b919050565b600080fd5b600080fd5b600080fd5b600067ffffffffffffffff82111562000406576200040562000355565b5b620004118262000344565b9050602081019050919050565b60005b838110156200043e57808201518184015260208101905062000421565b60008484015250505050565b6000620004616200045b84620003e8565b620003ba565b90508281526020810184848401111562000480576200047f620003e3565b5b6200048d8482856200041e565b509392505050565b600082601f830112620004ad57620004ac620003de565b5b8151620004bf8482602086016200044a565b91505092915050565b600073ffffffffffffffffffffffffffffffffffffffff82169050919050565b6000620004f582620004c8565b9050919050565b6200050781620004e8565b81146200051357600080fd5b50565b6000815190506200052781620004fc565b92915050565b6000819050919050565b62000542816200052d565b81146200054e57600080fd5b50565b600081519050620005628162000537565b92915050565b600061012082840312156200058257620005816200033f565b5b6200058f610120620003ba565b9050600082015167ffffffffffffffff811115620005b257620005b1620003d9565b5b620005c08482850162000495565b600083015250602082015167ffffffffffffffff811115620005e757620005e6620003d9565b5b620005f58482850162000495565b602083015250604082015167ffffffffffffffff8111156200061c576200061b620003d9565b5b6200062a8482850162000495565b6040830152506060620006408482850162000516565b6060830152506080620006568482850162000551565b60808301525060a06200066c8482850162000551565b60a08301525060c0620006828482850162000551565b60c08301525060e0620006988482850162000551565b60e083015250610100620006af8482850162000551565b6101008301525092915050565b600060e08284031215620006d557620006d46200033f565b5b620006e160e0620003ba565b90506000620006f38482850162000516565b600083015250602082015167ffffffffffffffff8111156200071a5762000719620003d9565b5b620007288482850162000495565b602083015250604082015167ffffffffffffffff8111156200074f576200074e620003d9565b5b6200075d8482850162000495565b604083015250606082015167ffffffffffffffff811115620007845762000783620003d9565b5b620007928482850162000495565b606083015250608082015167ffffffffffffffff811115620007b957620007b8620003d9565b5b620007c78482850162000495565b60808301525060a082015167ffffffffffffffff811115620007ee57620007ed620003d9565b5b620007fc8482850162000495565b60a08301525060c0620008128482850162000551565b60c08301525092915050565b6000806040838503121562000838576200083762000335565b5b600083015167ffffffffffffffff8111156200085957620008586200033a565b5b620008678582860162000568565b925050602083015167ffffffffffffffff8111156200088b576200088a6200033a565b5b6200089985828601620006bc565b9150509250929050565b600081519050919050565b7f4e487b7100000000000000000000000000000000000000000000000000000000600052602260045260246000fd5b60006002820490506001821680620008f657607f821691505b6020821081036200090c576200090b620008ae565b5b50919050565b60008190508160005260206000209050919050565b60006020601f8301049050919050565b600082821b905092915050565b600060088302620009767fffffffffffffffffffffffffffffffffffffffffffffffffffffffffffffffff8262000937565b62000982868362000937565b95508019841693508086168417925050509392505050565b6000819050919050565b6000620009c5620009bf620009b9846200052d565b6200099a565b6200052d565b9050919050565b6000819050919050565b620009e183620009a4565b620009f9620009f082620009cc565b84845462000944565b825550505050565b600090565b62000a1062000a01565b62000a1d818484620009d6565b505050565b5b8181101562000a455762000a3960008262000a06565b60018101905062000a23565b5050565b601f82111562000a945762000a5e8162000912565b62000a698462000927565b8101602085101562000a79578190505b62000a9162000a888562000927565b83018262000a22565b50505b505050565b600082821c905092915050565b600062000ab96000198460080262000a99565b1980831691505092915050565b600062000ad4838362000aa6565b9150826002028217905092915050565b62000aef82620008a3565b67ffffffffffffffff81111562000b0b5762000b0a62000355565b5b62000b178254620008dd565b62000b2482828562000a49565b600060209050601f83116001811462000b5c576000841562000b47578287015190505b62000b53858262000ac6565b86555062000bc3565b601f19841662000b6c8662000912565b60005b8281101562000b965784890151825560018201915060208501945060208101905062000b6f565b8683101562000bb6578489015162000bb2601f89168262000aa6565b8355505b6001600288020188555050505b505050505050565b600081905092915050565b6000815462000be581620008dd565b62000bf1818662000bcb565b9450600182166000811462000c0f576001811462000c255762000c5c565b60ff198316865281151582028601935062000c5c565b62000c308562000912565b60005b8381101562000c545781548189015260018201915060208101905062000c33565b838801955050505b50505092915050565b600062000c73828462000bd6565b915081905092915050565b600082825260208201905092915050565b7f436f6e7374727563746f723a20494e56414c49445f4d415455524954595f444160008201527f5445000000000000000000000000000000000000000000000000000000000000602082015250565b600062000ced60228362000c7e565b915062000cfa8262000c8f565b604082019050919050565b6000602082019050818103600083015262000d208162000cde565b9050919050565b613cfe8062000d376000396000f3fe608060405234801561001057600080fd5b50600436106101735760003560e01c806395d89b41116100de578063c0bcb26f11610097578063d59624b411610071578063d59624b41461040a578063e1270b6e14610428578063e5a6b10f14610458578063f83d08ba1461047657610173565b8063c0bcb26f146103c4578063d383f646146103e2578063d5070b3e146103ec57610173565b806395d89b4114610302578063a457c2d714610320578063a69df4b514610350578063ab67aa581461035a578063be040fb01461038a578063be45fd621461039457610173565b80636d705ebb116101305780636d705ebb14610250578063710d33291461026c5780637dbdc9531461028a57806382d5a60d146102a85780638bca6d16146102c65780638d1343e0146102e457610173565b806306fdde0314610178578063095ea7b3146101965780632c0bc9a0146101c6578063363cc427146101e45780635256214b1461020257806361e20a1c14610220575b600080fd5b610180610494565b60405161018d91906128e0565b60405180910390f35b6101b060048036038101906101ab91906129a0565b610546565b6040516101bd91906129fb565b60405180910390f35b6101ce610562565b6040516101db91906128e0565b60405180910390f35b6101ec6105f0565b6040516101f99190612a25565b60405180910390f35b61020a610616565b6040516102179190612b3c565b60405180910390f35b61023a60048036038101906102359190612b5e565b6106d5565b6040516102479190612b9a565b60405180910390f35b61026a600480360381019061026591906129a0565b61071e565b005b610274610979565b6040516102819190612b9a565b60405180910390f35b6102926109a2565b60405161029f9190612cb7565b60405180910390f35b6102b0610d13565b6040516102bd91906128e0565b60405180910390f35b6102ce610dc5565b6040516102db9190612b9a565b60405180910390f35b6102ec610dee565b6040516102f99190612b9a565b60405180910390f35b61030a610e17565b60405161031791906128e0565b60405180910390f35b61033a600480360381019061033591906129a0565b610ec9565b60405161034791906129fb565b60405180910390f35b610358610ee5565b005b610374600480360381019061036f9190612d3e565b610fc4565b60405161038191906129fb565b60405180910390f35b610392610ff0565b005b6103ae60048036038101906103a99190612dc6565b61103f565b6040516103bb91906129fb565b60405180910390f35b6103cc61105f565b6040516103d99190612b9a565b60405180910390f35b6103ea611088565b005b6103f4611122565b6040516104019190612f0d565b60405180910390f35b610412611398565b60405161041f9190612b9a565b60405180910390f35b610442600480360381019061043d9190612f2f565b6113c1565b60405161044f9190612b9a565b60405180910390f35b610460611448565b60405161046d9190612a25565b60405180910390f35b61047e611491565b60405161048b9190612b9a565b60405180910390f35b6060600060046040516104a79190613072565b908152602001604051809103902060010180546104c390612f9e565b80601f01602080910402602001604051908101604052809291908181526020018280546104ef90612f9e565b801561053c5780601f106105115761010080835404028352916020019161053c565b820191906000526020600020905b81548152906001019060200180831161051f57829003601f168201915b5050505050905090565b600080339050610557818585611497565b600191505092915050565b6004805461056f90612f9e565b80601f016020809104026020016040519081016040528092919081815260200182805461059b90612f9e565b80156105e85780601f106105bd576101008083540402835291602001916105e8565b820191906000526020600020905b8154815290600101906020018083116105cb57829003601f168201915b505050505081565b600560009054906101000a900473ffffffffffffffffffffffffffffffffffffffff1681565b60606007805480602002602001604051908101604052809291908181526020016000905b828210156106cc57838290600052602060002090600202016040518060400160405290816000820160009054906101000a900473ffffffffffffffffffffffffffffffffffffffff1673ffffffffffffffffffffffffffffffffffffffff1673ffffffffffffffffffffffffffffffffffffffff1681526020016001820154815250508152602001906001019061063a565b50505050905090565b6000600260008373ffffffffffffffffffffffffffffffffffffffff1673ffffffffffffffffffffffffffffffffffffffff168152602001908152602001600020549050919050565b600560009054906101000a900473ffffffffffffffffffffffffffffffffffffffff1673ffffffffffffffffffffffffffffffffffffffff163373ffffffffffffffffffffffffffffffffffffffff16146107ae576040517f08c379a00000000000000000000000000000000000000000000000000000000081526004016107a5906130d5565b60405180910390fd5b6000600160046040516107c19190613072565b908152602001604051809103902060000160009054906101000a900473ffffffffffffffffffffffffffffffffffffffff169050600760405180604001604052808573ffffffffffffffffffffffffffffffffffffffff168152602001670de0b6b3a7640000856108329190613153565b815250908060018154018082558091505060019003906000526020600020906002020160009091909190915060008201518160000160006101000a81548173ffffffffffffffffffffffffffffffffffffffff021916908373ffffffffffffffffffffffffffffffffffffffff160217905550602082015181600101555050600060046040516108c29190613072565b908152602001604051809103902060030160009054906101000a900473ffffffffffffffffffffffffffffffffffffffff1673ffffffffffffffffffffffffffffffffffffffff166323b872dd8483856040518463ffffffff1660e01b815260040161093093929190613184565b6020604051808303816000875af115801561094f573d6000803e3d6000fd5b505050506040513d601f19601f8201168201806040525081019061097391906131e7565b50505050565b600080600460405161098b9190613072565b908152602001604051809103902060050154905090565b6109aa61279b565b600160046040516109bb9190613072565b90815260200160405180910390206040518060e00160405290816000820160009054906101000a900473ffffffffffffffffffffffffffffffffffffffff1673ffffffffffffffffffffffffffffffffffffffff1673ffffffffffffffffffffffffffffffffffffffff168152602001600182018054610a3a90612f9e565b80601f0160208091040260200160405190810160405280929190818152602001828054610a6690612f9e565b8015610ab35780601f10610a8857610100808354040283529160200191610ab3565b820191906000526020600020905b815481529060010190602001808311610a9657829003601f168201915b50505050508152602001600282018054610acc90612f9e565b80601f0160208091040260200160405190810160405280929190818152602001828054610af890612f9e565b8015610b455780601f10610b1a57610100808354040283529160200191610b45565b820191906000526020600020905b815481529060010190602001808311610b2857829003601f168201915b50505050508152602001600382018054610b5e90612f9e565b80601f0160208091040260200160405190810160405280929190818152602001828054610b8a90612f9e565b8015610bd75780601f10610bac57610100808354040283529160200191610bd7565b820191906000526020600020905b815481529060010190602001808311610bba57829003601f168201915b50505050508152602001600482018054610bf090612f9e565b80601f0160208091040260200160405190810160405280929190818152602001828054610c1c90612f9e565b8015610c695780601f10610c3e57610100808354040283529160200191610c69565b820191906000526020600020905b815481529060010190602001808311610c4c57829003601f168201915b50505050508152602001600582018054610c8290612f9e565b80601f0160208091040260200160405190810160405280929190818152602001828054610cae90612f9e565b8015610cfb5780601f10610cd057610100808354040283529160200191610cfb565b820191906000526020600020905b815481529060010190602001808311610cde57829003601f168201915b50505050508152602001600682015481525050905090565b606060006004604051610d269190613072565b90815260200160405180910390206000018054610d4290612f9e565b80601f0160208091040260200160405190810160405280929190818152602001828054610d6e90612f9e565b8015610dbb5780601f10610d9057610100808354040283529160200191610dbb565b820191906000526020600020905b815481529060010190602001808311610d9e57829003601f168201915b5050505050905090565b6000806004604051610dd79190613072565b908152602001604051809103902060040154905090565b6000806004604051610e009190613072565b908152602001604051809103902060070154905090565b606060006004604051610e2a9190613072565b90815260200160405180910390206002018054610e4690612f9e565b80601f0160208091040260200160405190810160405280929190818152602001828054610e7290612f9e565b8015610ebf5780601f10610e9457610100808354040283529160200191610ebf565b820191906000526020600020905b815481529060010190602001808311610ea257829003601f168201915b5050505050905090565b600080339050610eda818585611877565b600191505092915050565b600560009054906101000a900473ffffffffffffffffffffffffffffffffffffffff1673ffffffffffffffffffffffffffffffffffffffff163373ffffffffffffffffffffffffffffffffffffffff1614610f75576040517f08c379a0000000000000000000000000000000000000000000000000000000008152600401610f6c906130d5565b60405180910390fd5b600060065414610fba576040517f08c379a0000000000000000000000000000000000000000000000000000000008152600401610fb190613260565b60405180910390fd5b6001600681905550565b600080339050610fd5878287611c12565b610fe28787878787611d5f565b600191505095945050505050565b600160065414611035576040517f08c379a000000000000000000000000000000000000000000000000000000000815260040161102c906132cc565b60405180910390fd5b61103d612122565b565b6000803390506110528187878787611d5f565b6001915050949350505050565b60008060046040516110719190613072565b908152602001604051809103902060060154905090565b600560009054906101000a900473ffffffffffffffffffffffffffffffffffffffff1673ffffffffffffffffffffffffffffffffffffffff163373ffffffffffffffffffffffffffffffffffffffff1614611118576040517f08c379a000000000000000000000000000000000000000000000000000000000815260040161110f906130d5565b60405180910390fd5b6111206124df565b565b61112a6127ee565b6000600460405161113b9190613072565b90815260200160405180910390206040518061012001604052908160008201805461116590612f9e565b80601f016020809104026020016040519081016040528092919081815260200182805461119190612f9e565b80156111de5780601f106111b3576101008083540402835291602001916111de565b820191906000526020600020905b8154815290600101906020018083116111c157829003601f168201915b505050505081526020016001820180546111f790612f9e565b80601f016020809104026020016040519081016040528092919081815260200182805461122390612f9e565b80156112705780601f1061124557610100808354040283529160200191611270565b820191906000526020600020905b81548152906001019060200180831161125357829003601f168201915b5050505050815260200160028201805461128990612f9e565b80601f01602080910402602001604051908101604052809291908181526020018280546112b590612f9e565b80156113025780601f106112d757610100808354040283529160200191611302565b820191906000526020600020905b8154815290600101906020018083116112e557829003601f168201915b505050505081526020016003820160009054906101000a900473ffffffffffffffffffffffffffffffffffffffff1673ffffffffffffffffffffffffffffffffffffffff1673ffffffffffffffffffffffffffffffffffffffff16815260200160048201548152602001600582015481526020016006820154815260200160078201548152602001600882015481525050905090565b60008060046040516113aa9190613072565b908152602001604051809103902060080154905090565b6000600360008473ffffffffffffffffffffffffffffffffffffffff1673ffffffffffffffffffffffffffffffffffffffff16815260200190815260200160002060008373ffffffffffffffffffffffffffffffffffffffff1673ffffffffffffffffffffffffffffffffffffffff16815260200190815260200160002054905092915050565b600080600460405161145a9190613072565b908152602001604051809103902060030160009054906101000a900473ffffffffffffffffffffffffffffffffffffffff16905090565b60065481565b600073ffffffffffffffffffffffffffffffffffffffff168373ffffffffffffffffffffffffffffffffffffffff1603611506576040517f08c379a00000000000000000000000000000000000000000000000000000000081526004016114fd90613338565b60405180910390fd5b600073ffffffffffffffffffffffffffffffffffffffff168273ffffffffffffffffffffffffffffffffffffffff1603611575576040517f08c379a000000000000000000000000000000000000000000000000000000000815260040161156c906133a4565b60405180910390fd5b600081116115b8576040517f08c379a00000000000000000000000000000000000000000000000000000000081526004016115af90613410565b60405180910390fd5b6000600260008573ffffffffffffffffffffffffffffffffffffffff1673ffffffffffffffffffffffffffffffffffffffff1681526020019081526020016000205490506000600360008673ffffffffffffffffffffffffffffffffffffffff1673ffffffffffffffffffffffffffffffffffffffff16815260200190815260200160002060008573ffffffffffffffffffffffffffffffffffffffff1673ffffffffffffffffffffffffffffffffffffffff168152602001908152602001600020549050600080600460405161168f9190613072565b908152602001604051809103902060040154905060008060046040516116b59190613072565b908152602001604051809103902060080154905080421061170b576040517f08c379a00000000000000000000000000000000000000000000000000000000081526004016117029061347c565b60405180910390fd5b8385111561174e576040517f08c379a0000000000000000000000000000000000000000000000000000000008152600401611745906134e8565b60405180910390fd5b600082838761175d9190613508565b611767919061354a565b146117a7576040517f08c379a000000000000000000000000000000000000000000000000000000000815260040161179e90613410565b60405180910390fd5b84836117b3919061357b565b600360008973ffffffffffffffffffffffffffffffffffffffff1673ffffffffffffffffffffffffffffffffffffffff16815260200190815260200160002060008873ffffffffffffffffffffffffffffffffffffffff1673ffffffffffffffffffffffffffffffffffffffff168152602001908152602001600020819055507f80da462ebfbe41cfc9bc015e7a9a3c7a2a73dbccede72d8ceb583606c27f8f9087878760405161186693929190613184565b60405180910390a150505050505050565b600073ffffffffffffffffffffffffffffffffffffffff168373ffffffffffffffffffffffffffffffffffffffff16036118e6576040517f08c379a00000000000000000000000000000000000000000000000000000000081526004016118dd90613338565b60405180910390fd5b600073ffffffffffffffffffffffffffffffffffffffff168273ffffffffffffffffffffffffffffffffffffffff1603611955576040517f08c379a000000000000000000000000000000000000000000000000000000000815260040161194c906133a4565b60405180910390fd5b60008111611998576040517f08c379a000000000000000000000000000000000000000000000000000000000815260040161198f90613410565b60405180910390fd5b6000600360008573ffffffffffffffffffffffffffffffffffffffff1673ffffffffffffffffffffffffffffffffffffffff16815260200190815260200160002060008473ffffffffffffffffffffffffffffffffffffffff1673ffffffffffffffffffffffffffffffffffffffff1681526020019081526020016000205490506000806004604051611a2b9190613072565b90815260200160405180910390206004015490506000806004604051611a519190613072565b9081526020016040518091039020600801549050804210611aa7576040517f08c379a0000000000000000000000000000000000000000000000000000000008152600401611a9e9061347c565b60405180910390fd5b82841115611aea576040517f08c379a0000000000000000000000000000000000000000000000000000000008152600401611ae1906135fb565b60405180910390fd5b6000828386611af99190613508565b611b03919061354a565b14611b43576040517f08c379a0000000000000000000000000000000000000000000000000000000008152600401611b3a90613410565b60405180910390fd5b8383611b4f919061361b565b600360008873ffffffffffffffffffffffffffffffffffffffff1673ffffffffffffffffffffffffffffffffffffffff16815260200190815260200160002060008773ffffffffffffffffffffffffffffffffffffffff1673ffffffffffffffffffffffffffffffffffffffff168152602001908152602001600020819055507f424dbe179d5bade01d2ca8ccbd3405ec809e626ae11064bdf18f99e929424a4a868686604051611c0293929190613184565b60405180910390a1505050505050565b6000600360008573ffffffffffffffffffffffffffffffffffffffff1673ffffffffffffffffffffffffffffffffffffffff16815260200190815260200160002060008473ffffffffffffffffffffffffffffffffffffffff1673ffffffffffffffffffffffffffffffffffffffff16815260200190815260200160002054905080821115611cd6576040517f08c379a0000000000000000000000000000000000000000000000000000000008152600401611ccd9061369b565b60405180910390fd5b818103600360008673ffffffffffffffffffffffffffffffffffffffff1673ffffffffffffffffffffffffffffffffffffffff16815260200190815260200160002060008573ffffffffffffffffffffffffffffffffffffffff1673ffffffffffffffffffffffffffffffffffffffff1681526020019081526020016000208190555050505050565b600073ffffffffffffffffffffffffffffffffffffffff168573ffffffffffffffffffffffffffffffffffffffff1603611dce576040517f08c379a0000000000000000000000000000000000000000000000000000000008152600401611dc590613338565b60405180910390fd5b600073ffffffffffffffffffffffffffffffffffffffff168473ffffffffffffffffffffffffffffffffffffffff1603611e3d576040517f08c379a0000000000000000000000000000000000000000000000000000000008152600401611e34906133a4565b60405180910390fd5b60008311611e80576040517f08c379a0000000000000000000000000000000000000000000000000000000008152600401611e7790613410565b60405180910390fd5b6000600260008773ffffffffffffffffffffffffffffffffffffffff1673ffffffffffffffffffffffffffffffffffffffff1681526020019081526020016000205490506000806004604051611ed69190613072565b90815260200160405180910390206004015490506000806004604051611efc9190613072565b9081526020016040518091039020600801549050804210611f52576040517f08c379a0000000000000000000000000000000000000000000000000000000008152600401611f499061347c565b60405180910390fd5b82861115611f95576040517f08c379a0000000000000000000000000000000000000000000000000000000008152600401611f8c906134e8565b60405180910390fd5b6000828388611fa49190613508565b611fae919061354a565b14611fee576040517f08c379a0000000000000000000000000000000000000000000000000000000008152600401611fe590613410565b60405180910390fd5b611ffb888888888861278d565b6000600260008973ffffffffffffffffffffffffffffffffffffffff1673ffffffffffffffffffffffffffffffffffffffff168152602001908152602001600020549050868403600260008b73ffffffffffffffffffffffffffffffffffffffff1673ffffffffffffffffffffffffffffffffffffffff16815260200190815260200160002081905550868101600260008a73ffffffffffffffffffffffffffffffffffffffff1673ffffffffffffffffffffffffffffffffffffffff168152602001908152602001600020819055507f58531b9a2cec3125db10275eb88f4ce96a55d22b2998ac8d87a2efd6a1bfbbbd8989898989604051612102959493929190613708565b60405180910390a16121178989898989612794565b505050505050505050565b6000804211612166576040517f08c379a000000000000000000000000000000000000000000000000000000000815260040161215d906137a2565b60405180910390fd5b60005b6007805490508110156124a757600060026000600784815481106121905761218f6137c2565b5b906000526020600020906002020160000160009054906101000a900473ffffffffffffffffffffffffffffffffffffffff1673ffffffffffffffffffffffffffffffffffffffff1673ffffffffffffffffffffffffffffffffffffffff1681526020019081526020016000205414612494576000600260006007848154811061221c5761221b6137c2565b5b906000526020600020906002020160000160009054906101000a900473ffffffffffffffffffffffffffffffffffffffff1673ffffffffffffffffffffffffffffffffffffffff1673ffffffffffffffffffffffffffffffffffffffff168152602001908152602001600020549050600060026000600785815481106122a5576122a46137c2565b5b906000526020600020906002020160000160009054906101000a900473ffffffffffffffffffffffffffffffffffffffff1673ffffffffffffffffffffffffffffffffffffffff1673ffffffffffffffffffffffffffffffffffffffff168152602001908152602001600020819055506000612710670de0b6b3a7640000600060046040516123349190613072565b908152602001604051809103902060060154846123519190613508565b61235b9190613508565b6123659190613153565b9050600081670de0b6b3a76400008461237e9190613508565b612388919061357b565b90506000600460405161239b9190613072565b908152602001604051809103902060030160009054906101000a900473ffffffffffffffffffffffffffffffffffffffff1673ffffffffffffffffffffffffffffffffffffffff1663a9059cbb600786815481106123fc576123fb6137c2565b5b906000526020600020906002020160000160009054906101000a900473ffffffffffffffffffffffffffffffffffffffff16836040518363ffffffff1660e01b815260040161244c9291906137f1565b6020604051808303816000875af115801561246b573d6000803e3d6000fd5b505050506040513d601f19601f8201168201806040525081019061248f91906131e7565b505050505b808061249f9061381a565b915050612169565b507fb8cac300e37f03ad332e581dea21b2f0b84eaaadc184a295fef71e81f44a741360405160405180910390a1600060068190555050565b600080600060046040516124f39190613072565b908152602001604051809103902060050154905060005b6007805490508110156126ee5760006007828154811061252d5761252c6137c2565b5b906000526020600020906002020160000160009054906101000a900473ffffffffffffffffffffffffffffffffffffffff169050600060078381548110612577576125766137c2565b5b9060005260206000209060020201600101549050600080600460405161259d9190613072565b9081526020016040518091039020600401549050600073ffffffffffffffffffffffffffffffffffffffff168373ffffffffffffffffffffffffffffffffffffffff1603612620576040517f08c379a0000000000000000000000000000000000000000000000000000000008152600401612617906138ae565b60405180910390fd5b600082141580156126475750600081828461263b9190613508565b612645919061354a565b145b612686576040517f08c379a000000000000000000000000000000000000000000000000000000000815260040161267d9061391a565b60405180910390fd5b8186612692919061357b565b955081600260008573ffffffffffffffffffffffffffffffffffffffff1673ffffffffffffffffffffffffffffffffffffffff1681526020019081526020016000208190555050505080806126e69061381a565b91505061250a565b50808214612731576040517f08c379a000000000000000000000000000000000000000000000000000000000815260040161272890613986565b60405180910390fd5b7f68136622ee097034c8905076503c344047e80ff1e72df52de54f48d8dea33365600060046040516127639190613072565b90815260200160405180910390206007604051612781929190613c91565b60405180910390a15050565b5050505050565b5050505050565b6040518060e00160405280600073ffffffffffffffffffffffffffffffffffffffff1681526020016060815260200160608152602001606081526020016060815260200160608152602001600081525090565b604051806101200160405280606081526020016060815260200160608152602001600073ffffffffffffffffffffffffffffffffffffffff16815260200160008152602001600081526020016000815260200160008152602001600081525090565b600081519050919050565b600082825260208201905092915050565b60005b8381101561288a57808201518184015260208101905061286f565b60008484015250505050565b6000601f19601f8301169050919050565b60006128b282612850565b6128bc818561285b565b93506128cc81856020860161286c565b6128d581612896565b840191505092915050565b600060208201905081810360008301526128fa81846128a7565b905092915050565b600080fd5b600080fd5b600073ffffffffffffffffffffffffffffffffffffffff82169050919050565b60006129378261290c565b9050919050565b6129478161292c565b811461295257600080fd5b50565b6000813590506129648161293e565b92915050565b6000819050919050565b61297d8161296a565b811461298857600080fd5b50565b60008135905061299a81612974565b92915050565b600080604083850312156129b7576129b6612902565b5b60006129c585828601612955565b92505060206129d68582860161298b565b9150509250929050565b60008115159050919050565b6129f5816129e0565b82525050565b6000602082019050612a1060008301846129ec565b92915050565b612a1f8161292c565b82525050565b6000602082019050612a3a6000830184612a16565b92915050565b600081519050919050565b600082825260208201905092915050565b6000819050602082019050919050565b612a758161292c565b82525050565b612a848161296a565b82525050565b604082016000820151612aa06000850182612a6c565b506020820151612ab36020850182612a7b565b50505050565b6000612ac58383612a8a565b60408301905092915050565b6000602082019050919050565b6000612ae982612a40565b612af38185612a4b565b9350612afe83612a5c565b8060005b83811015612b2f578151612b168882612ab9565b9750612b2183612ad1565b925050600181019050612b02565b5085935050505092915050565b60006020820190508181036000830152612b568184612ade565b905092915050565b600060208284031215612b7457612b73612902565b5b6000612b8284828501612955565b91505092915050565b612b948161296a565b82525050565b6000602082019050612baf6000830184612b8b565b92915050565b600082825260208201905092915050565b6000612bd182612850565b612bdb8185612bb5565b9350612beb81856020860161286c565b612bf481612896565b840191505092915050565b600060e083016000830151612c176000860182612a6c565b5060208301518482036020860152612c2f8282612bc6565b91505060408301518482036040860152612c498282612bc6565b91505060608301518482036060860152612c638282612bc6565b91505060808301518482036080860152612c7d8282612bc6565b91505060a083015184820360a0860152612c978282612bc6565b91505060c0830151612cac60c0860182612a7b565b508091505092915050565b60006020820190508181036000830152612cd18184612bff565b905092915050565b600080fd5b600080fd5b600080fd5b60008083601f840112612cfe57612cfd612cd9565b5b8235905067ffffffffffffffff811115612d1b57612d1a612cde565b5b602083019150836001820283011115612d3757612d36612ce3565b5b9250929050565b600080600080600060808688031215612d5a57612d59612902565b5b6000612d6888828901612955565b9550506020612d7988828901612955565b9450506040612d8a8882890161298b565b935050606086013567ffffffffffffffff811115612dab57612daa612907565b5b612db788828901612ce8565b92509250509295509295909350565b60008060008060608587031215612de057612ddf612902565b5b6000612dee87828801612955565b9450506020612dff8782880161298b565b935050604085013567ffffffffffffffff811115612e2057612e1f612907565b5b612e2c87828801612ce8565b925092505092959194509250565b6000610120830160008301518482036000860152612e588282612bc6565b91505060208301518482036020860152612e728282612bc6565b91505060408301518482036040860152612e8c8282612bc6565b9150506060830151612ea16060860182612a6c565b506080830151612eb46080860182612a7b565b5060a0830151612ec760a0860182612a7b565b5060c0830151612eda60c0860182612a7b565b5060e0830151612eed60e0860182612a7b565b50610100830151612f02610100860182612a7b565b508091505092915050565b60006020820190508181036000830152612f278184612e3a565b905092915050565b60008060408385031215612f4657612f45612902565b5b6000612f5485828601612955565b9250506020612f6585828601612955565b9150509250929050565b7f4e487b7100000000000000000000000000000000000000000000000000000000600052602260045260246000fd5b60006002820490506001821680612fb657607f821691505b602082108103612fc957612fc8612f6f565b5b50919050565b600081905092915050565b60008190508160005260206000209050919050565b60008154612ffc81612f9e565b6130068186612fcf565b94506001821660008114613021576001811461303657613069565b60ff1983168652811515820286019350613069565b61303f85612fda565b60005b8381101561306157815481890152600182019150602081019050613042565b838801955050505b50505092915050565b600061307e8284612fef565b915081905092915050565b7f455243373039323a204e4f545f414c4c4f574544000000000000000000000000600082015250565b60006130bf60148361285b565b91506130ca82613089565b602082019050919050565b600060208201905081810360008301526130ee816130b2565b9050919050565b7f4e487b7100000000000000000000000000000000000000000000000000000000600052601260045260246000fd5b7f4e487b7100000000000000000000000000000000000000000000000000000000600052601160045260246000fd5b600061315e8261296a565b91506131698361296a565b925082613179576131786130f5565b5b828204905092915050565b60006060820190506131996000830186612a16565b6131a66020830185612a16565b6131b36040830184612b8b565b949350505050565b6131c4816129e0565b81146131cf57600080fd5b50565b6000815190506131e1816131bb565b92915050565b6000602082840312156131fd576131fc612902565b5b600061320b848285016131d2565b91505092915050565b7f414c52454144595f554e4c4f434b454400000000000000000000000000000000600082015250565b600061324a60108361285b565b915061325582613214565b602082019050919050565b600060208201905081810360008301526132798161323d565b9050919050565b7f52454445454d5f49535f4c4f434b454400000000000000000000000000000000600082015250565b60006132b660108361285b565b91506132c182613280565b602082019050919050565b600060208201905081810360008301526132e5816132a9565b9050919050565b7f455243373039323a204f574e45525f5a45524f5f414444524553530000000000600082015250565b6000613322601b8361285b565b915061332d826132ec565b602082019050919050565b6000602082019050818103600083015261335181613315565b9050919050565b7f455243373039323a205350454e4445525f5a45524f5f41444452455353000000600082015250565b600061338e601d8361285b565b915061339982613358565b602082019050919050565b600060208201905081810360008301526133bd81613381565b9050919050565b7f455243373039323a20494e56414c49445f414d4f554e54000000000000000000600082015250565b60006133fa60178361285b565b9150613405826133c4565b602082019050919050565b60006020820190508181036000830152613429816133ed565b9050919050565b7f455243373039323a20424f4e44535f4d41545552454400000000000000000000600082015250565b600061346660168361285b565b915061347182613430565b602082019050919050565b6000602082019050818103600083015261349581613459565b9050919050565b7f455243373039323a20494e53554646494349454e545f42414c414e4345000000600082015250565b60006134d2601d8361285b565b91506134dd8261349c565b602082019050919050565b60006020820190508181036000830152613501816134c5565b9050919050565b60006135138261296a565b915061351e8361296a565b925082820261352c8161296a565b9150828204841483151761354357613542613124565b5b5092915050565b60006135558261296a565b91506135608361296a565b9250826135705761356f6130f5565b5b828206905092915050565b60006135868261296a565b91506135918361296a565b92508282019050808211156135a9576135a8613124565b5b92915050565b7f455243373039323a204e4f545f454e4f5547485f415050524f56414c00000000600082015250565b60006135e5601c8361285b565b91506135f0826135af565b602082019050919050565b60006020820190508181036000830152613614816135d8565b9050919050565b60006136268261296a565b91506136318361296a565b925082820390508181111561364957613648613124565b5b92915050565b7f455243373039323a20494e53554646494349454e545f414c4c4f57414e434500600082015250565b6000613685601f8361285b565b91506136908261364f565b602082019050919050565b600060208201905081810360008301526136b481613678565b9050919050565b600082825260208201905092915050565b82818337600083830152505050565b60006136e783856136bb565b93506136f48385846136cc565b6136fd83612896565b840190509392505050565b600060808201905061371d6000830188612a16565b61372a6020830187612a16565b6137376040830186612b8b565b818103606083015261374a8184866136db565b90509695505050505050565b7f455243323732313a20574149545f4d4154555249545900000000000000000000600082015250565b600061378c60168361285b565b915061379782613756565b602082019050919050565b600060208201905081810360008301526137bb8161377f565b9050919050565b7f4e487b7100000000000000000000000000000000000000000000000000000000600052603260045260246000fd5b60006040820190506138066000830185612a16565b6138136020830184612b8b565b9392505050565b60006138258261296a565b91507fffffffffffffffffffffffffffffffffffffffffffffffffffffffffffffffff820361385757613856613124565b5b600182019050919050565b7f455243373039323a205a45524f5f414444524553535f494e564553544f520000600082015250565b6000613898601e8361285b565b91506138a382613862565b602082019050919050565b600060208201905081810360008301526138c78161388b565b9050919050565b7f4552433a20494e56414c49445f5052494e434950414c5f414d4f554e54000000600082015250565b6000613904601d8361285b565b915061390f826138ce565b602082019050919050565b60006020820190508181036000830152613933816138f7565b9050919050565b7f455243373039323a20494e56414c49445f49535355455f564f4c554d45000000600082015250565b6000613970601d8361285b565b915061397b8261393a565b602082019050919050565b6000602082019050818103600083015261399f81613963565b9050919050565b600081546139b381612f9e565b6139bd8186612bb5565b945060018216600081146139d857600181146139ee57613a21565b60ff198316865281151560200286019350613a21565b6139f785612fda565b60005b83811015613a19578154818901526001820191506020810190506139fa565b808801955050505b50505092915050565b60008160001c9050919050565b600073ffffffffffffffffffffffffffffffffffffffff82169050919050565b6000613a6a613a6583613a2a565b613a37565b9050919050565b6000819050919050565b6000613a8e613a8983613a2a565b613a71565b9050919050565b6000610120830160008084018583036000870152613ab383826139a6565b925050600184018583036020870152613acc83826139a6565b925050600284018583036040870152613ae583826139a6565b92505060038401549050613af881613a57565b613b056060870182612a6c565b5060048401549050613b1681613a7b565b613b236080870182612a7b565b5060058401549050613b3481613a7b565b613b4160a0870182612a7b565b5060068401549050613b5281613a7b565b613b5f60c0870182612a7b565b5060078401549050613b7081613a7b565b613b7d60e0870182612a7b565b5060088401549050613b8e81613a7b565b613b9c610100870182612a7b565b50819250505092915050565b600081549050919050565b60008190508160005260206000209050919050565b604082016000808301549050613bdd81613a57565b613bea6000860182612a6c565b5060018301549050613bfb81613a7b565b613c086020860182612a7b565b5050505050565b6000613c1b8383613bc8565b60408301905092915050565b6000600282019050919050565b6000613c3f82613ba8565b613c498185612a4b565b9350613c5483613bb3565b8060005b83811015613c845781613c6b8882613c0f565b9750613c7683613c27565b925050600181019050613c58565b5085935050505092915050565b60006040820190508181036000830152613cab8185613a95565b90508181036020830152613cbf8184613c34565b9050939250505056fea2646970667358221220db7cd06948f9cf0f71d5746c34a81a7a9e65730bae3751ba93865a065a1660af64736f6c63430008130033",
  "immutableReferences": {},
  "source": "// SPDX-License-Identifier: MIT\npragma solidity ^0.8.0;\n\nimport \"./IERC7092.sol\";\nimport \"./BondStorage.sol\";\nimport \"./utils/IERC20.sol\";\n\ncontract ERC7092 is IERC7092, BondStorage {\n    constructor(Bond memory _bond, Issuer memory _issuer) {\n        bondISIN = _bond.isin;\n        _bonds[bondISIN] = _bond;\n        issuer[bondISIN] = _issuer;\n        bondManager = msg.sender;\n\n        _bonds[bondISIN].issueDate = block.timestamp;\n\n        uint256 _issueDate = _bonds[bondISIN].issueDate;\n        uint256 _maturityDate = _bonds[bondISIN].maturityDate;\n\n        require(_maturityDate > _issueDate, \"Constructor: INVALID_MATURITY_DATE\");\n    }\n\n    function issue() external onlyBondManager {\n        _issue();\n    }\n\n    function redeem() external notLocked {\n        _redeem();\n    }\n\n    function register(address _investor, uint256 _amount) onlyBondManager external {\n        address _issuer = issuer[bondISIN].accountAddress;\n\n        _investorsOffer.push(Offer({ investor: _investor, principal: _amount / 1 ether }));\n\n        IERC20(_bonds[bondISIN].currency).transferFrom(_investor, _issuer, _amount);\n    }\n\n    function unlock() external onlyBondManager {\n        require(lock == 0, \"ALREADY_UNLOCKED\");\n\n        lock = 1;\n    }\n\n    function isin() external view returns(string memory) {\n        return _bonds[bondISIN].isin;\n    }\n\n    function name() external view returns(string memory) {\n        return _bonds[bondISIN].name;\n    }\n\n    function symbol() external view returns(string memory) {\n        return _bonds[bondISIN].symbol;\n    }\n\n    function currency() external view returns(address) {\n        return _bonds[bondISIN].currency;\n    }\n\n    function denomination() external view returns(uint256) {\n        return _bonds[bondISIN].denomination;\n    }\n\n    function issueVolume() external view returns(uint256) {\n        return _bonds[bondISIN].issueVolume;\n    }\n\n    function couponRate() external view returns(uint256) {\n        return _bonds[bondISIN].couponRate;\n    }\n\n    function issueDate() external view returns(uint256) {\n        return _bonds[bondISIN].issueDate;\n    }\n\n    function maturityDate() external view returns(uint256) {\n        return _bonds[bondISIN].maturityDate;\n    }\n\n    function principalOf(address _account) external view returns(uint256) {\n        return _principals[_account];\n    }\n\n    function approval(address _owner, address _spender) external view returns(uint256) {\n        return _approvals[_owner][_spender];\n    }\n\n    function approve(address _spender, uint256 _amount) external returns(bool) {\n        address _owner = msg.sender;\n        _approve(_owner, _spender, _amount);\n\n        return true;\n    }\n\n    function decreaseAllowance(address _spender, uint256 _amount) external returns(bool) {\n        address _owner = msg.sender;\n\n        _decreaseAllowance(_owner, _spender, _amount);\n\n        return true;\n    }\n\n    function transfer(address _to, uint256 _amount, bytes calldata _data) external returns(bool) {\n        address _from = msg.sender;\n\n        _transfer(_from, _to, _amount, _data);\n\n        return true;\n    }\n\n    function transferFrom(address _from, address _to, uint256 _amount, bytes calldata _data) external returns(bool) {\n        address _spender = msg.sender;\n\n        _spendApproval(_from, _spender, _amount);\n\n        _transfer(_from, _to, _amount, _data);\n\n        return true;\n    }\n\n    function getBondInfo() external view returns(Bond memory) {\n        return _bonds[bondISIN];\n    }\n\n    function getIssuerInfo() external view returns(Issuer memory) {\n        return issuer[bondISIN];\n    }\n\n    function getListOfInvestorsOffer() public view returns(Offer[] memory) {\n        return _investorsOffer;\n    }\n\n    function _issue() internal virtual  {\n        uint256 volume;\n        uint256 _issueVolume = _bonds[bondISIN].issueVolume;\n\n        for(uint256 i; i < _investorsOffer.length; i++) {\n            address investor = _investorsOffer[i].investor;\n            uint256 principal = _investorsOffer[i].principal;\n            uint256 _denomination = _bonds[bondISIN].denomination;\n\n            require(investor != address(0), \"ERC7092: ZERO_ADDRESS_INVESTOR\");\n            require(\n                principal != 0 && (principal * _denomination) % _denomination == 0,\n                \"ERC: INVALID_PRINCIPAL_AMOUNT\"\n            );\n\n            volume += principal;\n            _principals[investor] = principal;\n        }\n\n        require(volume == _issueVolume, \"ERC7092: INVALID_ISSUE_VOLUME\");\n\n        emit BondIssued(_bonds[bondISIN], _investorsOffer);\n    }\n\n    function _redeem() internal {\n        uint256 _maturityDate;\n        require(block.timestamp > _maturityDate, \"ERC2721: WAIT_MATURITY\");\n\n        for(uint256 i; i < _investorsOffer.length; i++) {\n            if(_principals[_investorsOffer[i].investor] != 0) {\n\n                uint256 principal = _principals[_investorsOffer[i].investor];\n\n                _principals[_investorsOffer[i].investor] = 0;\n\n                // divide by 1e4 because the interest rate is expressed in basis point\n                uint256 interest = (principal * _bonds[bondISIN].couponRate * 1 ether) / (10000);\n\n                uint256 amount = (principal * 1 ether) + interest;\n\n                IERC20(_bonds[bondISIN].currency).transfer(_investorsOffer[i].investor, amount);\n            }\n        }\n\n        emit Redeemed();\n\n        lock = 0;\n    }\n\n    function _approve(address _owner, address _spender, uint256 _amount) internal virtual {\n        require(_owner != address(0), \"ERC7092: OWNER_ZERO_ADDRESS\");\n        require(_spender != address(0), \"ERC7092: SPENDER_ZERO_ADDRESS\");\n        require(_amount > 0, \"ERC7092: INVALID_AMOUNT\");\n\n        uint256 principal = _principals[_owner];\n        uint256 _approval = _approvals[_owner][_spender];\n        uint256 _denomination = _bonds[bondISIN].denomination;\n        uint256 _maturityDate = _bonds[bondISIN].maturityDate;\n\n        require(block.timestamp < _maturityDate, \"ERC7092: BONDS_MATURED\");\n        require(_amount <= principal, \"ERC7092: INSUFFICIENT_BALANCE\");\n        require((_amount * _denomination) % _denomination == 0, \"ERC7092: INVALID_AMOUNT\");\n\n        _approvals[_owner][_spender]  = _approval + _amount;\n\n        emit Approved(_owner, _spender, _amount);\n    }\n\n    function _decreaseAllowance(address _owner, address _spender, uint256 _amount) internal virtual {\n        require(_owner != address(0), \"ERC7092: OWNER_ZERO_ADDRESS\");\n        require(_spender != address(0), \"ERC7092: SPENDER_ZERO_ADDRESS\");\n        require(_amount > 0, \"ERC7092: INVALID_AMOUNT\");\n\n        uint256 _approval = _approvals[_owner][_spender];\n        uint256 _denomination = _bonds[bondISIN].denomination;\n        uint256 _maturityDate = _bonds[bondISIN].maturityDate;\n\n        require(block.timestamp < _maturityDate, \"ERC7092: BONDS_MATURED\");\n        require(_amount <= _approval, \"ERC7092: NOT_ENOUGH_APPROVAL\");\n        require((_amount * _denomination) % _denomination == 0, \"ERC7092: INVALID_AMOUNT\");\n\n        _approvals[_owner][_spender]  = _approval - _amount;\n\n        emit AllowanceDecreased(_owner, _spender, _amount);\n    }\n\n    function _transfer(address _from, address _to, uint256 _amount, bytes calldata _data) internal virtual {\n        require(_from != address(0), \"ERC7092: OWNER_ZERO_ADDRESS\");\n        require(_to != address(0), \"ERC7092: SPENDER_ZERO_ADDRESS\");\n        require(_amount > 0, \"ERC7092: INVALID_AMOUNT\");\n\n        uint256 principal = _principals[_from];\n        uint256 _denomination = _bonds[bondISIN].denomination;\n        uint256 _maturityDate = _bonds[bondISIN].maturityDate;\n\n        require(block.timestamp < _maturityDate, \"ERC7092: BONDS_MATURED\");\n        require(_amount <= principal, \"ERC7092: INSUFFICIENT_BALANCE\");\n        require((_amount * _denomination) % _denomination == 0, \"ERC7092: INVALID_AMOUNT\");\n\n        _beforeBondTransfer(_from, _to, _amount, _data);\n\n        uint256 principalTo = _principals[_to];\n\n        unchecked {\n            _principals[_from] = principal - _amount;\n            _principals[_to] = principalTo + _amount;\n        }\n\n        emit Transferred(_from, _to, _amount, _data);\n\n        _afterBondTransfer(_from, _to, _amount, _data);\n    }\n\n    function _spendApproval(address _from, address _spender, uint256 _amount) internal virtual {\n        uint256 currentApproval = _approvals[_from][_spender];\n        require(_amount <= currentApproval, \"ERC7092: INSUFFICIENT_ALLOWANCE\");\n\n        unchecked {\n            _approvals[_from][_spender] = currentApproval - _amount;\n        }\n   }\n\n    function _beforeBondTransfer(address _from, address _to, uint256 _amount, bytes calldata _data) internal virtual {}\n\n    function _afterBondTransfer(address _from, address _to, uint256 _amount, bytes calldata _data) internal virtual {}\n}",
  "sourcePath": "/Users/sam/Documents/Finance/EIP/basic-erc7092/contracts/ERC7092.sol",
  "compiler": {
    "name": "solc",
    "version": "0.8.19+commit.7dd6d404.Emscripten.clang"
  },
  "schemaVersion": "3.4.9",
  "updatedAt": "2023-08-22T01:16:14.297Z",
  "networkType": "ethereum",
  "devdoc": {
    "kind": "dev",
    "methods": {},
    "version": 1
  },
  "userdoc": {
    "kind": "user",
    "methods": {},
    "version": 1
  }
}